:020000040800F2
:1000000000000320710E0008BD250008BF25000870
:10001000C1250008C3250008C52500080000000010
:10002000000000000000000000000000716F0008E8
:10003000C725000800000000017000089368000850
:10004000C10E0008C10E0008C10E0008C10E000854
:10005000C10E0008C10E0008C10E0008C10E000844
:10006000C10E0008C10E0008C10E0008C10E000834
:10007000C10E0008C10E0008C10E0008C10E000824
:10008000C10E0008C10E0008C10E0008C10E000814
:10009000C10E0008C10E0008C10E0008C10E000804
:1000A000C10E0008C10E0008C10E0008C10E0008F4
:1000B000C10E0008C10E0008C10E0008C10E0008E4
:1000C000C10E0008C10E0008C10E0008C10E0008D4
:1000D000C10E0008C10E0008C10E0008C10E0008C4
:1000E000C10E0008C10E0008C10E0008C10E0008B4
:1000F000C10E0008C10E0008C10E0008C10E0008A4
:10010000C10E0008C10E0008C10E0008C10E000893
:10011000C10E0008C10E0008C9250008C10E000864
:10012000C10E0008C10E0008C10E0008C10E000873
:10013000C10E0008C10E0008C10E0008C10E000863
:10014000C10E0008C10E0008C10E0008C10E000853
:10015000C10E0008C10E0008C10E0008C10E000843
:10016000C10E0008C10E0008C10E0008C10E000833
:10017000C10E0008C10E0008C10E000800000000FA
:10018000C10E0008C10E0008C10E0008C10E000813
:10019000C10E0008C10E0008C10E0008C10E000803
:0C01A000D5250008C10E0008E12500086C
:1001B00010B5054C237833B9044B13B10448AFF3A1
:1001C00000800123237010BD6401002000000000A6
:1001D000ACD3010808B5034B1BB103490348AFF387
:1001E000008008BD0000000068010020ACD30108B9
:1001F00001F0FF01102A2BDB10F0070F08D010F8D8
:10020000013B013A8B422DD010F0070F42B3F6D1DB
:10021000F0B441EA012141EA014122F007047FF0F4
:1002200000070023F0E80256083C85EA010586EA4B
:10023000010685FA47F5A3FA87F586FA47F6A5FA87
:1002400087F68EB9EED1F0BC01F0FF0102F0070293
:1002500032B110F8013B013A83EA010313B1F8D13E
:100260000020704701387047002D06BF354603381F
:10027000073815F0010F07D1013015F4807F02BF58
:10028000013015F4C03F0130F0BC0138704700BFA9
:1002900081F0004102E000BF83F0004330B54FEA37
:1002A00041044FEA430594EA050F08BF90EA020FA4
:1002B0001FBF54EA000C55EA020C7FEA645C7FEA37
:1002C000655C00F0E2804FEA5454D4EB5555B8BF5A
:1002D0006D420CDD2C4480EA020281EA030382EACB
:1002E000000083EA010180EA020281EA0303362D5D
:1002F00088BF30BD11F0004F4FEA01314FF4801C30
:100300004CEA113102D0404261EB410113F0004F41
:100310004FEA03334CEA133302D0524263EB4303F8
:1003200094EA050F00F0A780A4F10104D5F1200E96
:100330000DDB02FA0EFC22FA05F2801841F10001F1
:1003400003FA0EF2801843FA05F359410EE0A5F1C5
:1003500020050EF1200E012A03FA0EFC28BF4CF0F6
:10036000020C43FA05F3C01851EBE37101F00045AC
:1003700007D54FF0000EDCF1000C7EEB00006EEBB9
:100380000101B1F5801F1BD3B1F5001F0CD3490843
:100390005FEA30004FEA3C0C04F101044FEA44529A
:1003A00012F5800F80F09A80BCF1004F08BF5FEA21
:1003B000500C50F1000041EB045141EA050130BD01
:1003C0005FEA4C0C404141EB0101013C28BFB1F513
:1003D000801FE9D291F0000F04BF01460020B1FA5E
:1003E00081F308BF2033A3F10B03B3F120020CDA31
:1003F0000C3208DD02F1140CC2F10C0201FA0CF00F
:1004000021FA02F10CE002F11402D8BFC2F1200C73
:1004100001FA02F120FA0CFCDCBF41EA0C01904029
:10042000E41AA2BF01EB0451294330BD6FEA040472
:100430001F3C1CDA0C340EDC04F11404C4F120025D
:1004400020FA04F001FA02F340EA030021FA04F36F
:1004500045EA030130BDC4F10C04C4F1200220FAC6
:1004600002F001FA04F340EA0300294630BD21FA04
:1004700004F0294630BD94F0000F83F4801306BFCA
:1004800081F480110134013D4EE77FEA645C18BFBE
:100490007FEA655C29D094EA050F08BF90EA020F55
:1004A00005D054EA000C04BF1946104630BD91EA4D
:1004B000030F1EBF0021002030BD5FEA545C05D150
:1004C0004000494128BF41F0004130BD14F580048F
:1004D0003CBF01F5801130BD01F0004545F0FE4103
:1004E00041F470014FF0000030BD7FEA645C1ABF38
:1004F000194610467FEA655C1CBF0B46024650EA6F
:10050000013406BF52EA033591EA030F41F400219A
:1005100030BD00BF90F0000F04BF0021704730B520
:100520004FF4806404F132044FF000054FF00001F5
:1005300050E700BF90F0000F04BF0021704730B5B6
:100540004FF4806404F1320410F0004548BF40428B
:100550004FF000013EE700BF42004FEAE2014FEAE0
:1005600031014FEA02701FBF12F07F4393F07F4FBB
:1005700081F06051704732F07F4208BF704793F0BE
:100580007F4F04BF41F40021704730B54FF46074D1
:1005900001F0004521F000411CE700BF50EA0102D4
:1005A00008BF704730B54FF000050AE050EA01027D
:1005B00008BF704730B511F0004502D5404261EBED
:1005C00041014FF4806404F132045FEA915C3FF42E
:1005D000D8AE4FF003025FEADC0C18BF03325FEACB
:1005E000DC0C18BF033202EBDC02C2F1200300FA7C
:1005F00003FC20FA02F001FA03FE40EA0E0021FAA1
:1006000002F11444BDE600BF70B54FF0FF0C4CF48E
:10061000E06C1CEA11541DBF1CEA135594EA0C0F40
:1006200095EA0C0F00F0DEF82C4481EA030621EA7B
:100630004C5123EA4C5350EA013518BF52EA0335B6
:1006400041F4801143F4801338D0A0FB02CE4FF068
:100650000005E1FB02E506F00042E0FB03E54FF098
:100660000006E1FB03569CF0000F18BF4EF0010E90
:10067000A4F1FF04B6F5007F64F5407404D25FEA8C
:100680004E0E6D4146EB060642EAC62141EA55513F
:100690004FEAC52040EA5E504FEACE2EB4F1FD0C81
:1006A00088BFBCF5E06F1ED8BEF1004F08BF5FEAFF
:1006B000500E50F1000041EB045170BD06F00046B1
:1006C00046EA010140EA020081EA0301B4EB5C045E
:1006D000C2BFD4EB0C0541EA045170BD41F4801156
:1006E0004FF0000E013C00F3AB8014F1360FDEBF7B
:1006F000002001F0004170BDC4F10004203C35DA57
:100700000C341BDC04F11404C4F1200500FA05F3D9
:1007100020FA04F001FA05F240EA020001F000427A
:1007200021F0004110EBD37021FA04F642EB0601F0
:100730005EEA430E08BF20EAD37070BDC4F10C041A
:10074000C4F1200500FA04F320FA05F001FA04F2DE
:1007500040EA020001F0004110EBD37041F10001CA
:100760005EEA430E08BF20EAD37070BDC4F12005D5
:1007700000FA05F24EEA020E20FA04F301FA05F23D
:1007800043EA020321FA04F001F0004121FA04F2E5
:1007900020EA020000EBD3705EEA430E08BF20EAB5
:1007A000D37070BD94F0000F0FD101F000464000EF
:1007B00041EB010111F4801F08BF013CF7D041EA71
:1007C000060195F0000F18BF704703F00046520075
:1007D00043EB030313F4801F08BF013DF7D043EA46
:1007E0000603704794EA0C0F0CEA135518BF95EAFC
:1007F0000C0F0CD050EA410618BF52EA4306D1D183
:1008000081EA030101F000414FF0000070BD50EAA1
:10081000410606BF1046194652EA430619D094EA2B
:100820000C0F02D150EA013613D195EA0C0F05D115
:1008300052EA03361CBF104619460AD181EA030169
:1008400001F0004141F0FE4141F470014FF0000021
:1008500070BD41F0FE4141F4780170BD70B54FF0BC
:10086000FF0C4CF4E06C1CEA11541DBF1CEA13553C
:1008700094EA0C0F95EA0C0F00F0A7F8A4EB05041E
:1008800081EA030E52EA03354FEA013100F0888015
:100890004FEA03334FF0805545EA131343EA1263DE
:1008A0004FEA022245EA111545EA10654FEA002693
:1008B0000EF000419D4208BF964244F1FD0404F54C
:1008C000407402D25B084FEA3202B61A65EB0305A8
:1008D0005B084FEA32024FF480104FF4002CB6EB65
:1008E000020E75EB030E22BFB61A754640EA0C00E5
:1008F0005B084FEA3202B6EB020E75EB030E22BF25
:10090000B61A754640EA5C005B084FEA3202B6EB65
:10091000020E75EB030E22BFB61A754640EA9C0024
:100920005B084FEA3202B6EB020E75EB030E22BFF4
:10093000B61A754640EADC0055EA060E18D04FEAB2
:10094000051545EA16754FEA06164FEAC30343EA52
:1009500052734FEAC2025FEA1C1CC0D111F4801F1F
:100960000BD141EA00014FF000004FF0004CB6E718
:1009700011F4801F04BF01430020B4F1FD0C88BFB7
:10098000BCF5E06F3FF6AFAEB5EB030C04BFB6EBC2
:10099000020C5FEA500C50F1000041EB045170BDB5
:1009A0000EF0004E4EEA113114EB5C04C2BFD4EBE2
:1009B0000C0541EA045170BD41F480114FF0000E66
:1009C000013C90E645EA060E8DE60CEA135594EAE2
:1009D0000C0F08BF95EA0C0F3FF43BAF94EA0C0FE5
:1009E0000AD150EA01347FF434AF95EA0C0F7FF45A
:1009F00025AF104619462CE795EA0C0F06D152EAAE
:100A000003353FF4FDAE1046194622E750EA410691
:100A100018BF52EA43067FF4C5AE50EA41047FF4A2
:100A20000DAF52EA43057FF4EBAE12E74FEA410205
:100A3000B2F1E04324BFB3F5001CDCF1FE5C0DD93C
:100A400001F0004C4FEAC0024CEA5070B2F1004F86
:100A500040EB830008BF20F00100704711F0804F89
:100A600021D113F13872BCBF01F00040704741F44E
:100A700080114FEA5252C2F11802C2F1200C10FA52
:100A80000CF320FA02F018BF40F001004FEAC12336
:100A90004FEAD32303FA0CFC40EA0C0023FA02F3DA
:100AA0004FEA4303CCE77FEA625307D150EA0133B0
:100AB0001EBF4FF0FE4040F44000704701F0004080
:100AC00040F0FE4040F40000704700BF7BB972B9AF
:100AD0000029BEBF00204FF0004106E008BF0028FB
:100AE0001CBF6FF000414FF0FF3000F0BFB9ADF117
:100AF000080C6DE904CE002909DB002B1ADB00F09D
:100B00004DF8DDF804E0DDE9022304B0704740420F
:100B100061EB4101002B1BDB00F040F8DDF804E045
:100B2000DDE9022304B0404261EB4101524263EB34
:100B300043037047524263EB430300F02FF8DDF8A4
:100B400004E0DDE9022304B0404261EB410170475B
:100B5000524263EB430300F021F8DDF804E0DDE9E5
:100B6000022304B0524263EB4303704753B94AB9BE
:100B7000002908BF00281CBF4FF0FF314FF0FF30A5
:100B800000F074B9ADF1080C6DE904CE00F006F880
:100B9000DDF804E0DDE9022304B070472DE9F047F9
:100BA000089D04468E46002B4DD18A42944669D951
:100BB000B2FA82F252B101FA02F3C2F1200120FA34
:100BC00001F10CFA02FC41EA030E94404FEA1C4882
:100BD000210CBEFBF8F61FFA8CF708FB16E341EA7E
:100BE000034306FB07F199420AD91CEB030306F104
:100BF000FF3080F01F81994240F21C81023E634425
:100C00005B1AA4B2B3FBF8F008FB103344EA0344C8
:100C100000FB07F7A7420AD91CEB040400F1FF33DD
:100C200080F00A81A74240F207816444023840EA1A
:100C30000640E41B00261DB1D4400023C5E9004353
:100C40003146BDE8F0878B4209D9002D00F0EF80D6
:100C50000026C5E9000130463146BDE8F087B3FA09
:100C600083F6002E4AD18B4202D3824200F2F980F1
:100C7000841A61EB030301209E46002DE0D0C5E9F4
:100C8000004EDDE702B9FFDEB2FA82F2002A40F040
:100C90009280A1EB0C014FEA1C471FFA8CFE012643
:100CA000200CB1FBF7F307FB131140EA01410EFBE7
:100CB00003F0884208D91CEB010103F1FF3802D28E
:100CC000884200F2CB804346091AA4B2B1FBF7F088
:100CD00007FB101144EA01440EFB00FEA64508D9AB
:100CE0001CEB040400F1FF3102D2A64500F2BB80E8
:100CF0000846A4EB0E0440EA03409CE7C6F1200737
:100D0000B34022FA07FC4CEA030C20FA07F401FA7C
:100D100006F31C43F9404FEA1C4900FA06F3B1FB05
:100D2000F9F8200C1FFA8CFE09FB181140EA01416A
:100D300008FB0EF0884202FA06F20BD91CEB010107
:100D400008F1FF3A80F08880884240F28580A8F15F
:100D500002086144091AA4B2B1FBF9F009FB1011B1
:100D600044EA014100FB0EFE8E4508D91CEB01014F
:100D700000F1FF346CD28E456AD90238614440EAF2
:100D80000840A0FB0294A1EB0E01A142C846A64672
:100D900056D353D05DB1B3EB080261EB0E0101FAFB
:100DA00007F722FA06F3F1401F43C5E90071002658
:100DB0003146BDE8F087C2F12003D8400CFA02FCAE
:100DC00021FA03F3914001434FEA1C471FFA8CFEBE
:100DD000B3FBF7F007FB10360B0C43EA064300FBAE
:100DE0000EF69E4204FA02F408D91CEB030300F14C
:100DF000FF382FD29E422DD9023863449B1B89B203
:100E0000B3FBF7F607FB163341EA034106FB0EF38B
:100E10008B4208D91CEB010106F1FF3816D28B4238
:100E200014D9023E6144C91A46EA004638E72E4604
:100E3000284605E70646E3E61846F8E64B45A9D2FC
:100E4000B9EB020864EB0C0E0138A3E74646EAE76B
:100E5000204694E74046D1E7D0467BE7023B614419
:100E600032E7304609E76444023842E7704700BF82
:100E7000DFF834D0002103E00C4B5B5843500431C1
:100E80000B480C4B42189A42F6D30B4A02E000235F
:100E900042F8043B094B9A42F9D303F0D9FA1BF00C
:100EA0001FFA00F087FE704700000320B0C204085C
:100EB0000000002064010020640100206C2C01204F
:100EC000FEE7704710B5042104461AF0EEFB2046F9
:100ED00010BD000038B50C4B0C4C18800C4B822018
:100EE00019806368984740F6110398420AD1094D6A
:100EF00023682C60822098472B688220DB68984703
:100F0000002038BD0120FCE7800100204C000020BB
:100F100082010020840100204FF4A071F020FFF72F
:100F2000D9BF0000F7B5344D2B6804461B698220F9
:100F3000984780B2208000284CD02B680DF1060223
:100F40005B6901A982209847BDF8063040F67462BB
:100F5000934241D9ADF80620BDF80620C2F567627C
:100F6000043292B20A2A3DD90B23B2FBF3F2234B8F
:100F70001B889A4201D9013B9AB2BDF8043040F671
:100F8000B8318B4230D8C3F571630E339BB20F2159
:100F9000B3FBF1F31A4909888B4201D94B1E9BB26E
:100FA000184E194D30682F68834281B28CBF591A90
:100FB000C91AB8B2BA428CBF101A801A89B280B26C
:100FC00001440529C8BF33603368C8BF2A60638005
:100FD0002B68A38003B0F0BDB32B9CBFB423ADF846
:100FE0000630B9E70022C8E7C3F56D6308339BB24A
:100FF0000E2BCCD80023D3E78401002082010020EF
:1010000080010020880100208C01002037B568464F
:101010000D461446FFF786FFBDF8000030B1BDF85D
:1010200002302B60BDF804302360012003B030BDD6
:10103000032821D8DFE800F0020B12190F4B1A68C1
:10104000B2FA82F2520904210D4803F093BC0B4B13
:101050005A68B2FA82F252090821F5E7074B9A68FA
:10106000B2FA82F252091021EEE7044BDA68B2FAC2
:1010700082F252092021E7E7704700BF900100206B
:1010800000100240032821D8DFE800F0020B1219FB
:101090000F4B1A68003A18BF012204210D4803F0D3
:1010A00069BC0B4B5A68003A18BF01220821F5E7CA
:1010B000074B9A68003A18BF01221021EEE7044B53
:1010C000DA68003A18BF01222021E7E7704700BF25
:1010D000900100200010024003280DD8DFE800F046
:1010E0000206080A0421054803F049BC0821FAE772
:1010F0001021F8E72021F6E7704700BF00100240FA
:10110000012380F8741080F8753070470020704714
:10111000034B4164003918BF01211970704700BFAB
:10112000C729012000207047836B0BB10846184780
:1011300070474FF6FF707047406803689B69184717
:10114000704770477047000070B5044600F054FCCB
:101150002368D3F88850044BD4E90F122046AC46DC
:10116000BDE87040604700BF000000D008B50368CC
:101170000446D3F880309847236820469B6F9847F1
:1011800000F0F0F8236820461B6F9847292000F0F4
:1011900047FF00F0E7F8236820461B6F9847F8E701
:1011A00010B5044608F0D6FC23682046D3F8AC30CE
:1011B000BDE81040184700F011BC00F015BC00F06D
:1011C00041BC00F0E7BB00F041BC00F049BC00F0BE
:1011D000EBBB07F027BF10B57C2104461AF065FA77
:1011E000204610BD90F877301BB1406803681B683B
:1011F000184718467047000010B590F8341090F862
:1012000074400C4B8C421A7809D03AB90A4A0B49FF
:101210001488088810800C8001221A7010BD002AE2
:10122000FCD0054A05491488088810800C800022EB
:10123000F3E700BFC0290120BC290120BE290120FD
:1012400070B50D46194635B9094B0A4A0A4840F2AD
:10125000D2211AF0FBFFC0E90F52084B003A18BF29
:1012600001221A700368BDE87040D3F88C3018472B
:101270001CD4010854D40108A2D40108C6290120B5
:1012800008B5094B1B888B4203D8084B1B88934237
:1012900005D9074B074A08489E211AF0D7FF074B8C
:1012A0001980074B1A8008BDBC290120BE290120E6
:1012B000E7D401084AD50108A2D40108C2290120B7
:1012C000C429012000F088BA00F0F6BA012108B55F
:1012D0000022084605F06BFB0A4B186028B90A4B40
:1012E0000A4A28210A481AF0B1FF002204210120ED
:1012F00005F0FAFB074B186018B9074B034A2C217D
:10130000F0E708BDA401002068D60108B1D60108A5
:10131000E0D60108A001002028D70108024B4FF0B9
:10132000FF31186805F08DBBA4010020014B18683F
:1013300005F0B2BBA4010020024B0021186805F0A3
:1013400080BB00BFA4010020FFF7F0BF03480449A1
:10135000006800231A4605F002BC00BFA00100206F
:101360000400002013B5084C00231A4601A9206888
:1013700005F025FC20684FF0FF33002201A905F09D
:101380001EFC02B010BD00BFA001002003685B6C12
:1013900018470120704703689B6A184782B00023F2
:1013A00001930D4B1A6B42F400021A631A6B02F49C
:1013B00000020192019A1A6942F400021A611A6944
:1013C00022F400021A61054B054A1A61054B4FF0E1
:1013D00080629A6002B0704700380240A81900206D
:1013E0002914000800E100E040F2EF3070470000EF
:1013F000054B0360054B4FF08062C3F88820BFF3B4
:101400004F8FBFF36F8F7047C0D8010800E100E035
:1014100010B504464FF45A61FFF7EAFF20461AF070
:1014200044F9204610BD0000024B1B685868036851
:101430005B691847C829012070B5044625460A4B48
:101440000C30002660602672667245F8203B6022F0
:10145000294608F0BDFC04F55A63EE602435AB4222
:10146000FBD1204670BD00BFC0D8010808B50B29CC
:101470000BD8DFE801F01206100A0A0A0A08080869
:101480000808012008BD0520FCE7054B054A064871
:1014900066211AF0DBFE0020F4E70220F2E700BF2D
:1014A0006AD7010885D70108CFD7010808B50A29EE
:1014B00009D8DFE801F010060E080808080606063D
:1014C0000600012008BD054B054A064887211AF091
:1014D000BDFE0020F6E70220F4E700BF6AD701084E
:1014E00015D80108CFD701082DE9F8434F7F0C46E6
:1014F00039468146FFF7BAFF94F81E8005464146FB
:101500004846FFF7B3FF414606464846FFF7CEFF81
:10151000A18A628B424B521A1A649A61228B521A28
:101520001A61E28A586342EA01425A642069626899
:10153000D863DA60216894F81CC080294FEA0C62F5
:1015400026D010D8202945EA020461D040295FD076
:1015500004295DD0324B2A4342F400324745DA6118
:101560005AD0304A40E0B1F5807F07D0B1F5007F16
:10157000F0D142F4003242F0090203E042F40032BA
:1015800042F00A02DA61E2681A625E6258612AE099
:10159000A4682A4342F40032211DD962DA6122781C
:1015A0005E62586142B1012A21D01F4B1F4A204878
:1015B00040F211111AF04AFEDA69618822F47F4282
:1015C000013922F0100242EA0122DA610120144BB3
:1015D000DA6942F02002DA61DA699206FCD410225C
:1015E0009A600028BDD0134A1A60BDE8F88362886B
:1015F000D969541E21F47F4222F0100242EA0422EB
:10160000BCF1FF0042F0100218BF0120DA61DEE7F2
:1016100044F40034DC61B8E740F20122E4E700BFA3
:1016200000B002400102010060D801087AD8010828
:10163000CFD701080102020070B50C46897FFFF781
:1016400035FFA68AE18A628B154B2569586341EA0A
:101650000641921B5964DD631A642668E168082E0E
:101660000DD19A611A615862207F0E4A42EA0062E7
:10167000DA610D4A19625D61DD601A6070BD002299
:10168000D8611A6148090A0A02F4784200F4FC6041
:101690000243C1F3C4010A439A63044AEDE700BF61
:1016A00000B0024009000100010202000102030033
:1016B000012070470C2070470C2303FB0100083009
:1016C00070470C2303FB010008307047012070476E
:1016D0004FF4F46070474FF4F46303FB01000830EB
:1016E00070474FF4F46303FB01000830704701209A
:1016F00070471020704700EB01100830704700EB76
:10170000011008307047084601F054B910B5034B7A
:101710000360044607F0D1F9204610BD78D90108CE
:1017200010B50446FFF7F2FF2046142119F0BDFF63
:10173000204610BD10B5034B0360044607F0BDF909
:10174000204610BD44D9010810B50446FFF7F2FF4A
:1017500020464FF4F56119F0A8FF204610BD0000A7
:1017600010B5034B0360044607F0A7F9204610BDEF
:1017700010D9010810B50446FFF7F2FF20461821E2
:1017800019F093FF204610BD10B5084B03600446C6
:1017900000F2D470FFF7BAFF04F12C00FFF7CAFF84
:1017A00004F11400FFF7DCFF204610BDACD901089E
:1017B00008B50248FFF7E8FF08BD00BFAC010020F4
:1017C00010B50446FFF7E0FF204640F6441119F03B
:1017D0006CFF204610BD00002DE9F34100F074FFBE
:1017E000054600F075FF00240146234628462246A0
:1017F00000940EF06DF9254B254A264D1A602046BF
:1018000002F0D4FA24480EF0CBF82B78BFF35B8FAC
:10181000DB0735D4284619F04AFF88B31F4C204B0C
:10182000236004F2EC7604F1140004F12C0804F2B5
:10183000D4776060C4F80880E760266107F03EF95D
:10184000184B6361404607F039F9174BE36238469D
:1018500007F034F9154BC4F8D43704F5FD6002F0F5
:1018600021FB224604F5FD61304602F011FB3046B3
:1018700001F0A0F80E481AF007FD284619F023FFE2
:101880000C4802B0BDE8F041FFF75EBC242A0120FD
:1018900010190020A801002008000020AC01002041
:1018A000ACD9010810D9010844D9010878D9010838
:1018B000B1170008941800200148FFF757BC00BF7B
:1018C0009418002070B5234C234E244B244D2360E4
:1018D0003046FFF7B1FD284611F004FA214B2248AB
:1018E000DC60224C03600022F0204FF480712080E5
:1018F000C3E912121E4C1F492080C3E919121E4C65
:101900001A864FF080714FF4A07059670121C3E926
:101910000422C3E90622C3E90822C3E90A22C3E973
:101920000E22C3E91022C3E91422C3E916221A6663
:1019300083F86C201A67C3E9016583F8781020806A
:101940000E4C83F8341020800D4802700D4A1A6046
:1019500070BD00BFF00A0020F40A00200CD401087A
:101960001419002094180020C8290120BC29012046
:10197000C229012001000001BE290120C429012043
:10198000C029012098D501080148FFF731BD00BFEB
:10199000F40A0020034B902283F85A2383F858233B
:1019A000704700BF00E100E0094A0A49D3680A48CD
:1019B000C3F30A03013B9BB20B801169C1F30A0117
:1019C000013901801364536B43F001035363704783
:1019D00000680140901900208E190020014BD3F8B7
:1019E000AC00704700680140024B0122C3F8AC1004
:1019F0005A6270470068014070B5044607F067FB03
:101A000023685D6E0AF022FF01462046A84723683E
:101A1000054AD3F888502046AC460023BDE8704004
:101A2000A2F51631604700BF00B004D007F036BB06
:101A300090F84B3013B1024B01221A7007F03ABBF9
:101A40008C19002007F0F4BA07F04DBC034B4FF09F
:101A500080629A604FF080729A60704700E100E007
:101A6000084B4FF08062C3F88820BFF34F8FBFF35D
:101A70006F8F4FF08072C3F88820BFF34F8FBFF392
:101A80006F8F704700E100E010B5144C236823B35A
:101A9000134B144A1B6C11888B4213D1124B1988BB
:101AA00003F04EFD226892F86630013382F866300A
:101AB000FFF74CFC206808F04DF8BDE8104000200E
:101AC000FFF7B6BA03F03CFD206803681B6A98472D
:101AD000BDE810400020FFF7D5BA10BDC82901208D
:101AE00000680140901900208E19002007B5064BB0
:101AF000ADF806001B68054801220DF1060104F04F
:101B00006BFA03B05DF804FB10000020181B0020E6
:101B100008B5642004F03FFFFBE7000030B595B046
:101B2000102200210AA81AF01DFC1422002103A88B
:101B30001AF018FC00241D4B01941A6C42F08052DC
:101B40001A641B6C03F080530193019B184B0294A1
:101B50001A6842F440421A601B6803F4404302933F
:101B60000122029B4FF48033CDE9082302254FF474
:101B70008003CDE90E5308214FF4A873CDE910136B
:101B800008A804231393129503F0F8FC0F23CDE962
:101B900003354FF4A0504FF48053CDE906030521DF
:101BA00003A8059403F0C8FE15B030BD003802400C
:101BB0000070004080B59AB002F058FCFFF7AEFF0D
:101BC000142200210DA800241AF0CCFBBF4B009476
:101BD0001A6BBF48BF4D42F010021A631A6B02F035
:101BE00010020092009A01941A6B42F020021A63CC
:101BF0001A6B02F020020192019A02941A6B42F0D1
:101C000080021A631A6B02F080020292029A039415
:101C10001A6B42F004021A631A6B02F00402039278
:101C2000039A04941A6B42F001021A631A6B02F0D1
:101C300001020492049A05941A6B42F002021A639C
:101C40001A6B02F002020592059A06941A6B42F092
:101C500040021A631A6B02F040020692069A079439
:101C60001A6B42F008021A631B6B03F00803079318
:101C700022463C21079B02F07DFE97482246042124
:101C800002F078FE224695484FF4405102F072FE71
:101C900001264FF003083C238D48CDF840800DA964
:101CA00002274FF00409CDE90D360F9402F07CFDB8
:101CB00089480F940DA9CDE90D96109702F074FD97
:101CC0000DA94FF440538548CDE90D36CDE90F47B6
:101CD00002F06AFD8248834B036002F059FC824A9D
:101CE000824B2C62C5E9002328464FF48043C5E9A6
:101CF0000434C5E90244C5E9064403F025F810217F
:101D0000284603F061FA2146284603F07CFA784819
:101D1000784984624FF48273C0E900134FF4007570
:101D20001823C0E906530A23734DC362C0E9024475
:101D3000C0E90444C0E9084404F0F2F86F4B0D9781
:101D40004FF0100CC5E900364023C5E904C34FF439
:101D5000C073C5E906344FF40063C5E908344FF495
:101D60000053AB620DA907232846CDE90E39CDE912
:101D700010384FF0080AC5E90249CDE9127703F09F
:101D8000CFFF4FF6FF7209A92846CDE90AA60894AD
:101D900009960C9403F0E4FF304602F093FB4FF6F3
:101DA000FF7209A92846CDE9097ACDE90B6403F051
:101DB000D7FF4FF6FF7209A92846CDE9098ACDE978
:101DC0000B9403F0CDFF4FF40C730893089B0C9316
:101DD0004FF6FF7209A92846CDE9099A0B9603F040
:101DE000BFFF40F26A51284603F0D8FF3422214653
:101DF0000DEB02001AF0B6FA414D424BAC86C5E934
:101E000000340923C5E905361D2340F20D1EC5E93E
:101E1000073840F24313C5E909E3284640F2471367
:101E200040F21718C5E90B83C5E902442C6185F817
:101E3000364003F08DFAFF21F022CDE912144FF461
:101E4000806905214FF4A073CDE90E24CDE91491EA
:101E5000CDE916420DA922462846CDE910372A4D74
:101E600018930D94ADF864408DF8664003F03BFB89
:101E7000264B2B601B6898472B68254DDB689847DD
:101E8000244BC5E90A47C5E90C442846C5E9003496
:101E9000C5E9027402F08CFB3146284602F040FC92
:101EA000FFF710FA04F002FD1B4A1C48214604F01B
:101EB00029FD1B4B1B4A186021461B4804F022FDDC
:101EC0001A4B186004F004FDFEE700BF0038024022
:101ED00000100240E819002000080240000C0240F7
:101EE000A019002000300240005C0040A0860100E4
:101EF000181B002000500140E41A0020400100A0FF
:101F00003C1A0020006801409819002014000020AD
:101F1000A819002000B00240F4D90108111B0008E4
:101F20009C190020D0D90108C9120008941900207A
:101F3000704770477FB5094B8DF817201B680293D7
:101F40000DF117020123009201930A46014604484D
:101F500002F0A2FF07B05DF804FB00BF0C000020F8
:101F6000E81900207FB500238DF81730084B1B6857
:101F700002930A4601230DF11701009101930146D6
:101F8000044803F019F89DF8170007B05DF804FB4A
:101F90000C000020E81900201FB5084C24680092AE
:101FA000CDE901340A4601230146054803F004F84F
:101FB000003818BF012004B010BD00BF0C00002085
:101FC000E819002002F07EBA08B506480022042174
:101FD00002F0D0FCBDE8084002480122042102F0D2
:101FE000C9BC00BF0008024038B50B4D04460122B1
:101FF0000A484FF4005102F0BDFC0022042128469B
:1020000002F0B8FC2046FFF771FD28460122BDE82A
:102010003840042102F0AEBC00080240000C02402F
:1020200038B50B4D044600220A484FF4005102F027
:10203000A1FC00220421284602F09CFC2046FFF768
:1020400055FD28460122BDE83840042102F092BC2B
:1020500000080240000C0240F7B5144E144F05462C
:102060000C4630460022042102F084FC00224FF48A
:102070000051384602F07EFC2846FFF737FD0D4B35
:102080000D481B68224601A904F048F93846012290
:102090004FF40051019C02F06DFC304601220421F6
:1020A00002F068FC204603B0F0BD00BF000802400B
:1020B000000C024010000020181B002002F002BAA1
:1020C0000268034B9A4201D102F0EAB9704700BF9F
:1020D000001000407047000082B00E4B00220092BA
:1020E000596C41F480415964596C01F4804100916C
:1020F00000990192196C41F0805119641B6C03F036
:1021000080530193019B0F216FF0010002B002F098
:10211000FFB900BF003802400268094B9A4282B002
:102120000BD100230193074B1A6B42F480521A63C0
:102130001B6B03F480530193019B02B0704700BFF7
:10214000003002400038024007B50F4B02689A4247
:1021500016D10022A3F5F0430192196B41F400015E
:1021600019631B6B03F40003019305215A20019BA3
:1021700002F0CEF95A2003B05DF804EB02F0FAB990
:1021800003B05DF804FB00BF00B002402DE9F0434E
:10219000044689B01422002103A81AF0E3F822684B
:1021A000244B9A4243D1244C244800250095236BAC
:1021B00043F004032363236B03F004030093009BA9
:1021C0000195236B43F001032363236B03F00103A9
:1021D0000193019B4FF012094FF400734FF0010877
:1021E0000327042603A9CDE90339CDE9058707961E
:1021F00002F0DAFA4FF480731148079603A9CDE98B
:102200000339CDE9058702F0CFFA0295236C43F438
:1022100000032364236C03F400030293029B236AEC
:1022200043F400032362236A23F40003236209B00A
:10223000BDE8F083005C0040003802400008024026
:1022400000000240F0B599B004461422002107A80E
:102250001AF088F830220DEB020000211AF082F803
:1022600022685E4B9A4240F0B78008230C93C0234B
:102270001093042312930CA84FF40033159303F02A
:1022800025FC08B1FFF726FF554B56480024009463
:102290005A6C42F080625A645A6C02F0806200927A
:1022A000009A01941A6B42F020021A631A6B02F032
:1022B00020020192019A02941A6B42F001021A6301
:1022C0001A6B02F001020292029A03941A6B42F016
:1022D00002021A631A6B02F002020392039A049438
:1022E0001A6B42F040021A631A6B02F04002049229
:1022F000049A05941A6B42F004021A631A6B02F0F6
:1023000004020592059A06941A6B42F008021A63B9
:102310001B6B03F00803069302250E26069B0B9603
:102320004FF4806307A9CDE90735CDE9094502F0EF
:102330003BFA41F658032C480B9607A9CDE907351F
:102340000927CDE9094502F02FFA032327480B9707
:1023500007A9CDE90735CDE9094502F025FA4FF483
:10236000706322480B9607A9CDE90735CDE90945E9
:1023700002F01AFA4FF40C631D480B9607A9CDE939
:102380000735CDE9094502F00FFAC02319480B962D
:1023900007A9CDE90735CDE9094502F005FA08237B
:1023A00015480B9607A9CDE90735CDE9094502F097
:1023B000FBF94FF4A0530E480B9707A9CDE9073559
:1023C000CDE9094502F0F0F958202246052102F036
:1023D0009FF8582002F0CEF819B0F0BD0068014017
:1023E0000038024000140240000002400004024095
:1023F0000018024000080240000C024010B50446DC
:1024000088B01422002103A819F0ACFF2268144BF5
:102410009A4223D103F56843002101915A6C114877
:1024200042F480125A645A6C02F480120192019AAA
:1024300002911A6B42F020021A631B6B03F0200317
:102440000293029B4FF4607202230321CDE9032320
:102450000523CDE9061303A902F0A6F908B010BDC3
:1024600000500140001402402DE9F04186B00023E5
:1024700003932B4B1C68002C4FD14FF00108C3F87D
:102480000080284B00949A6B274842EA08029A631E
:102490009B6B03EA08030093022703260C25009B8D
:1024A00001A94FF63F03CDE90137CDE9046502F0FC
:1024B0007BF91E48059501A9CDE90187CDE90346C1
:1024C00002F072F948F233131948059501A9CDE9D4
:1024D0000137CDE9034602F067F94FF683731548DB
:1024E000059501A9CDE90137CDE9034602F05CF974
:1024F0004CF203731048059501A9CDE90137CDE9E8
:10250000034602F051F960230C48059501A9CDE975
:102510000137CDE9034602F047F906B0BDE8F08186
:10252000701B0020003802400014024000080240E6
:102530000018024000100240000C0240000402405B
:1025400030B5014689B00022362001F0E1FF362087
:1025500002F010F80025154B02951A6C144C42F04D
:1025600010021A641B6C03F01003029301A903A864
:10257000029B03F08DFA03F07BFA0E4B236040F2CE
:10258000E733E36040000C4BB0FBF3F001386060D0
:1025900020462561A56004F0ADF820B9204603F07F
:1025A00063FF09B030BD0120FBE700BF00380240E7
:1025B000741B00200010004040420F007047FEE7EF
:1025C000FEE7FEE7FEE77047014803F08BBF00BF60
:1025D000741B0020014802F029BF00BF3C1A0020F4
:1025E000014802F013B800BFA8190020012070476D
:1025F00008B519F05DFE162303604FF0FF3008BDEB
:1026000008B519F055FE16230360FEE770B50D46B8
:1026100014460E46731B9C4201DC204670BDAFF38E
:10262000008006F8010BF5E770B50D4614460E461E
:10263000731B9C4201DC204670BD16F8010BAFF302
:102640000080F5E74FF0FF3070474FF400534B60C8
:102650000020704701207047002070470A4A116827
:1026600008B5034609B90949116010686946034471
:102670008B4206D919F01CFE0C2303604FF0FF308B
:1026800008BD1360FCE700BFBC1B0020702C0120BC
:10269000704710B50421044619F007F8204610BD14
:1026A000012908B506D0022908D059B901F0CAFBA2
:1026B000006808BD01F0C6FB4068FAE701F0C2FB04
:1026C0008068F6E70020F4E7004870472CDA01083C
:1026D0000320704713B5002451B1036801948DF8AD
:1026E000034001AA9C680DF10303A04702B010BD8E
:1026F0000846FBE7408970478089704780887047AB
:1027000083798088184480B27047C07900F07F00D8
:102710007047C079C0097047704710B5082104465A
:1027200018F0C3FF204610BD7047704700F5967340
:102730000868496803C37047704770474160704735
:1027400070470000064BC0F848310023C0F84C31F8
:1027500000F5A073C0F84401C0F83C31704700BFD9
:10276000052800080123037270477047704710B4B2
:10277000C26841685410034601EB6200D20748BFAB
:102780000A599B685DF8044B48BFD3581847436803
:102790002BB183682BB9C06800F001007047184660
:1027A00070470120704710B50C21044618F07DFFDA
:1027B000204610BD10B51021044618F076FF2046C3
:1027C00010BD10B54FF4AC71044618F06EFF2046F2
:1027D00010BD08B50AF03AF8BDE808400AF0DABBC7
:1027E00010B50446D0F83C0158B10368DB6898473F
:1027F00038B1D4F83C0103689B6898470023C4F8BB
:102800003C3110BD2DE9F14FD0E9545A0746A86874
:1028100003681B6A9847B0F5F46F05D2454B464AEA
:10282000A321464819F012FD686803681B6A98479F
:102830000F2803D8424B404AA421F2E7E868036816
:102840001B6A98470B2803D83E4B3B4AA521E8E773
:10285000DFF8F89009F0FAFF09F0FEFFD9F8000060
:1028600010B10368DB689847D9F8000010B103681D
:102870001B689847DFF8D880D8F8000010B10368CB
:102880005B699847D7F8380110B103685B689847CF
:10289000D8F8000010B103681B689847D7F83801D2
:1028A00010B103689B689847E868036800215B6A79
:1028B00098474FF0000B244B03600446C0F804B067
:1028C00080F808B0A868036859465B6A98470646CE
:1028D00001F014FB6868036859465B6A9847314603
:1028E000054601F0F1FAC9F80040C7F83851C8F8B8
:1028F0000060E5B12B1DCAF800303368C5F808A0A8
:102900003046DB68F56398472B6828461B68984774
:10291000214630460BF0A0FB236820461B699847F0
:1029200023685B69204601B0BDE8F04F18472B468D
:10293000E1E700BF78DA010806DB01080ADC0108DC
:1029400051DC0108F4DC010804DE0108082A01203A
:10295000042A0120F8B5044617460E4609F096FFF2
:10296000104B0025C4E954760F4E1C60C4E9525543
:102970000E4B306823600E4BC4E9503503680121CB
:102980009B68C4E94E559847284601F00FFA336812
:1029900093F876200AB1D86C00B9986811F089FFD5
:1029A0002046F8BD142A0120C8290120B8DD0108FD
:1029B000A0DD0108064BC0F848310023C0F84C31B7
:1029C00000F5A073C0F84401C0F83C31704700BF67
:1029D00005280008006A7047406A704770478B8876
:1029E00080690A68DB0A50F823001044704710B56C
:1029F000C2B1137BB3B1547BD27A240204F4E064F5
:102A00001443C26998B202EB840213888B4202D14C
:102A100092F9020010BD05D8013880B204320028B6
:102A2000F3D1F7E70020F5E710B52821044618F0A8
:102A30003CFE204610BD000030B589B00446BDF80C
:102A400050500695BDF84C5005959DF840500495A2
:102A50009DF83C5003959DF8385002959DF83450F0
:102A600001959DF8305000950AF034FF064B236025
:102A7000119BA361129BE361159B2362169B63620A
:102A8000204609B030BD00BF28DE01080020704795
:102A900081807047C18070470181704741817047D4
:102AA0007047704770477047704710B4C488036818
:102AB000121B84885B6D091B12B25DF8044B09B2CE
:102AC00018474FF6FF7383814FF0FF33036213689B
:102AD000C361106070477047704770477047704718
:102AE00090F825201AB190F8242002B118607047A0
:102AF00090F82C00704730B50368018185B06D46B1
:102B00000146D3F8843004462846984795E80700E4
:102B10003C3484E8070005B030BD30B5036841811E
:102B200085B06D460146D3F8843004462846984760
:102B300095E807003C3484E8070005B030BD00226A
:102B4000028042808280C280704780F836107047D1
:102B500070B5036804461B6B1546984723682946E1
:102B600020465B6EBDE87040184700207047002289
:102B70004FF0FF31C0E9002182607047806C7047E0
:102B80007047704770477047704730B4C2684468F8
:102B90005510034604EB6200D20748BF62599B6898
:102BA00030BC48BFD358184743682BB183682BB952
:102BB000C06800F001007047184670470120704758
:102BC00010B54C21044618F070FD204610BD10B51C
:102BD0004C21044618F069FD204610BD10B51021A7
:102BE000044618F062FD204610BD10B54FF4F461A4
:102BF000044618F05AFD204610BDD0F87C3770B559
:102C000004460D469BB10026C0F87467A0F8206703
:102C100000F5D1600AF0B1FD3023A4F84237A4F8E2
:102C2000446704F2D4600AF0A8FDC4F87C67D4F8C5
:102C30007437102B2EDC5A1C04EB43030026C4F817
:102C4000742704F5D160A3F82057A3F822670AF08F
:102C500094FDA5F13003092B1CD8D4F87837013343
:102C600008BFC4F87867D4F8780704EBC0040A21D9
:102C7000D4F88037D4F88467A3FB013201FB062225
:102C8000591942F10003303943F1FF33C4F880177A
:102C9000C4F8843770BD90F8252012B103685B69D1
:102CA0001847704708B590F832300BB1FFF7F3FFC3
:102CB00008BD10B50446806A50B10368DB689847C8
:102CC00030B1A06A036821469B68BDE810401847F0
:102CD00010BD70B504460D4607F08AF8A06C58B1D7
:102CE0000368DB68984738B1A06C03682A46214620
:102CF0009B68BDE87040184770BD0000036870B560
:102D00005E6B124B1B6804468DB22BB9104B114AF7
:102D10006C21114819F09AFA1049828D0988914264
:102D200003D80F4B0B4A6D21F3E713F812200D4B1C
:102D30001B6853F822000368DB6A9847281A01B21F
:102D400033462046BDE87040184700BF182A0120CE
:102D500078DE0108BADE0108F5DE01081C2A012030
:102D60003CDF0108202A012000F1980399422DE957
:102D7000F341044606D10368DB6A312102B0BDE8A5
:102D8000F041184700F1E403994203D1036832216E
:102D9000DB6AF3E700F59873994203D103683321A6
:102DA000DB6AEBE700F5BE73994203D10368342177
:102DB000DB6AE3E700F5E473994203D10368352148
:102DC000DB6ADBE700F50573994203D1036836211E
:102DD000DB6AD3E700F51873994203D10368372102
:102DE000DB6ACBE700F52B73994203D103683821E6
:102DF000DB6AC3E700F53E73994203D103683921CA
:102E0000DB6ABBE700F55173994203D103683021B7
:102E1000DB6AB3E700F57773994220D10025C0F84B
:102E20007457A0F8205700F5D1600AF0A6FC3023B3
:102E3000A4F84237A4F8445704F2D4600AF09DFC89
:102E400004F5F2610022002341E9022304F5F06158
:102E5000C1E9002384F89C5702B0BDE8F08100F579
:102E60008563994210D190F89C376BB9D0F87837C8
:102E700053B903682B21DB6A98472B2384F89C37CE
:102E80000123C4F87837E7E704F2744399420CD180
:102E900094F89C374BB9D4F8783733B923682D218F
:102EA000DB6A204698472D23E8E704F598639942AA
:102EB0000CD194F89C374BB9D4F8783733B92368E0
:102EC0007821DB6A204698477823D7E704F20C5331
:102ED00099420CD194F89C374BB9D4F8783733B970
:102EE00023682F21DB6A204698472F23C6E704F585
:102EF000AB63994220D194F89C57EDB9D4F8783758
:102F0000013319D123687321DB6A2046984723686F
:102F10006921DB6A2046984723686E21DB6A2046D8
:102F2000984723682821DB6A20469847732384F852
:102F30009C37C4F878578FE704F2A45399421CD108
:102F400094F89C57CDB9D4F87837013315D123685C
:102F50006321DB6A2046984723686F21DB6A20469D
:102F6000984723687321DB6A204698472368282105
:102F7000DB6A204698476323D9E704F5BE6399428C
:102F80000CD194F89C374BB9D4F8783733B923680F
:102F90005E21DB6A204698475E236FE704F23C63BC
:102FA00099420ED194F89C375BB9D4F8783743B97D
:102FB00023682121DB6A20469847212384F89C3727
:102FC0004AE704F5647399427FF446AFD4F8785722
:102FD000002D60D194F89C37632B3BD0732B17D016
:102FE000212B63D10123D4F88067D4F88477194664
:102FF0002A469E4277EB050047DB01FB05F003FB09
:103000000200A1FB03120133024445F10005F0E781
:1030100023682921DB6A2046984704F5F063D3E949
:103020000001FDF7C3FA6C4B0022FDF717FC68A303
:10303000D3E90023FDF7E8FAFDF7F8FC00EE100AEB
:1030400018F0A0FB04F5F36383ED000A0223C4F833
:103050007C3755E023682046DB6A2921984704F530
:10306000F063D3E90001FDF7A1FA5B4B0022FDF705
:10307000F5FB57A3D3E90023FDF7C6FAFDF7D6FC0D
:1030800000EE100A18F03AFBDCE7C4F89017C4F819
:1030900094270123DBE7012D08D194F89C372F2BCF
:1030A0005DD005D82B2B1AD02D2B4CD00023CEE78A
:1030B0005E2B61D0782BF9D1D4F88027D4F88C37E7
:1030C000D4F88817D4F88467534301FB0633A2FB76
:1030D00001210B44C4F89027C4F894370EE0D4F8CB
:1030E0008037D4F88807D4F88417D4F88C671B1875
:1030F00041EB0601C4F89037C4F89417C4F87C5724
:10310000D4F87C37002B3FF4A7AE012B52D1D4F872
:1031100090070A23112204F242710BF043FF04F2DC
:10312000D4600AF02AFB4FF0FF33C4F8783704F577
:10313000F2610023002241E9022304F5F061C1E9B4
:10314000002300233AE7D4F88037D4F88807D4F86E
:103150008417D4F88C671B1A61EB0601CAE704F5E3
:10316000F26604F5F061D1E9000156E90223FDF7AA
:10317000ADFCC6E90001C1E704F5F26050E902E8E0
:103180000021D4F88077D4F884C72A460B46AE4590
:1031900078EB01060ADB02FB0CF607FB0366013540
:1031A000A2FB0723334441F10001F0E7C4F8902764
:1031B00043606EE7022BB2D104F5F363074A1B6844
:1031C0000193112101AB04F242700CF0DFFBA6E782
:1031D0006E861BF0F9210940008066407ADF010805
:1031E00070B5036804461B6B15469847236829464B
:1031F00020465B6BBDE87040184770B504461D461D
:10320000BDF91060FFF7ECFF2368294620469B6B51
:103210009847236831462046DB6BBDE8704018476D
:103220001B4B73B51B88018F8B4206462BD9194B5C
:103230001B682BB9184B194A19486C2119F006F86C
:1032400013F81120174B1B6853F82250164B1868BF
:1032500000F0E8FD2B68019001469B6A28469847DC
:103260002B6801991B6C0446284698472B680199E6
:103270005B6A14FB00F428469847E4B2044486F8DD
:10328000454002B070BD002380F84530F9E700BF2B
:103290001C2A0120182A012078DE0108BADE010864
:1032A000F5DE0108202A0120242A01204FF4807134
:1032B00081840E4981624FF6FF7181854FF47F0151
:1032C00041630B49016000224FF0FF31C0E9012248
:1032D000C0E90322C0E90522C0E90722C0E91012B3
:1032E00002630287C2638264704700BF70DA01081C
:1032F000C4DF010810B5044607F06EFD044B2360DF
:103300000023A364012384F82430204610BD00BFAD
:1033100054E001082DE9F04F2DED108B04468DB0DF
:103320000AF0EEFC22460026EC4BE66342F8403BF6
:10333000EB4B2666C4E910364FF48073A4F8643072
:10334000FF2384F8663004F16C0308EE103A0AA9F2
:103350004FF6FF73C4E91266C4E91466C4E9166641
:1033600018EE100AA6660792ADF8283006F0A0FD08
:1033700004F19803184608EE903AFFF7BBFF04F1FA
:10338000E403184609EE103AFFF7B4FF04F598730A
:10339000184609EE903AFFF7ADFF04F5BE731846E4
:1033A0000AEE103AFFF7A6FF04F5E47318460AEE9A
:1033B000903AFFF79FFF04F5057318460BEE103A9D
:1033C000FFF798FF04F5187318460BEE903AFFF7D5
:1033D00091FF04F52B7318460CEE103AFFF78AFFA5
:1033E00004F53E7318460CEE903AFFF783FF04F5A0
:1033F000517318460DEE103AFFF77CFF04F5647325
:1034000018460DEE903AFFF775FF04F577731846EE
:103410000EEE103AFFF76EFF04F5856318460EEEC8
:10342000903AFFF767FF04F2744318460FEE103A24
:10343000FFF760FF04F5986318460FEE903AFFF728
:1034400059FF04F20C5318460293FFF753FF04F59B
:10345000AB6318460393FFF74DFF04F2A4531846DD
:1034600004F5BE67049304F23C6BFFF743FF384654
:10347000FFF740FF5846FFF73DFF04F5D1631846BC
:103480000593FFF713FF04F2D46318460693FFF782
:103490000DFF944BC4F864374FF0FF354FF4A0781C
:1034A000914B0798C4F86C373246CDF80080F02372
:1034B0003146C4F86847C4F87067C4F87467C4F844
:1034C0007857FFF79AFE4FF07F4318EE100AA36675
:1034D0000AA9ADF8286007F058FBF023324618EE31
:1034E000100ACDF800803146FFF787FE18EE100A6B
:1034F000314606F0A3FC18EE900A68220A214FF02C
:1035000002094FF0010AFFF76BFE0AAA09A918EE9B
:10351000900AADF82890ADF824A007F0AFF94FF06D
:103520001B0304F26478A4F8D03018EE900AFFF779
:1035300077FE19EE100AC4F8C08068223F21C4E962
:103540003555FFF74DFE0AAA09A919EE100AADF884
:103550002890ADF824A007F091F91A23A4F81C31A3
:1035600019EE100AFFF75CFE19EE900AC4F80C8100
:1035700068227421C4E94855FFF732FE0AAA09A956
:1035800019EE900AADF82890ADF824A007F076F96E
:103590001923A4F8683119EE900AFFF741FE1AEEDC
:1035A000100AC4F858819D220A21C4E95B55FFF72F
:1035B00017FE0AAA09A91AEE100AADF82890ADF86C
:1035C00024A007F05BF94FF01803A4F8B4311AEE09
:1035D000100AFFF725FE1AEE900AC4F8A4819D2276
:1035E0003F21C4E96E55FFF7FBFD0AAA09A91AEEAF
:1035F000900AADF82890ADF824A007F03FF9172302
:10360000A4F800321AEE900AFFF70AFE1BEE100A29
:10361000C4F8F0819D227421C4E98155FFF7E0FDD3
:103620000AAA09A91BEE100AADF82890ADF824A04B
:1036300007F024F91623A4F84C321BEE100AFFF70A
:10364000EFFD1BEE900AC4F83C82D2220A21C4E9A5
:103650009455FFF7C5FD0AAA09A91BEE900AADF81B
:103660002890ADF824A007F009F91523A4F89832A2
:103670001BEE900AFFF7D4FD1CEE100AC4F88882F6
:10368000D2223F21C4E9A755FFF7AAFD0AAA09A93A
:103690001CEE100AADF82890ADF824A007F0EEF863
:1036A0001423A4F8E4321CEE100AFFF7B9FD1CEE57
:1036B000900AC4F8D482D2227421C4E9BA55FFF723
:1036C0008FFD0AAA09A91CEE900AADF82890ADF862
:1036D00024A007F0D3F8132308E000BFE0E00108BE
:1036E00038E50108C8E00108692D0008A4F8303366
:1036F0001CEE900AFFF794FD1DEE100AC4F820831B
:1037000040F207123F21C4E9CD55FFF769FD0AAA2F
:1037100009A91DEE100AADF82890ADF824A007F015
:10372000ADF81223A4F87C331DEE100AFFF778FDE4
:103730001DEE900AC4F86C8340F207127421C4E9AC
:10374000E055FFF74DFD0AAA09A91DEE900AADF854
:103750002890ADF824A007F091F84FF01103A4F8D9
:10376000C8331DEE900AFFF75BFD1EEE100AC4F889
:10377000B88340F207120A21C4E9F355FFF730FD80
:103780000AAA09A91EEE100AADF82890ADF824A0E7
:1037900007F074F84FF01003A4F814341EEE100A6A
:1037A000FFF73EFD1EEE900AC4F804846822A921AA
:1037B000C4F81854C4F81C54FFF712FD0AAA09A94A
:1037C0001EEE900AADF82890ADF824A007F056F848
:1037D0000F23A4F860341EEE900AFFF721FD1FEEC0
:1037E000100AC4F850849D22A921C4F86454C4F876
:1037F0006854FFF7F5FC0AAA09A91FEE100AADF8F4
:103800002890ADF824A007F039F80E23A4F8AC34C2
:103810001FEE100AFFF704FD1FEE900AC4F89C8407
:10382000D222A921C4F8B054C4F8B454FFF7D8FC8C
:103830000AAA09A91FEE900AADF82890ADF824A0B5
:1038400007F01CF80D23A4F8F8341FEE900AFFF7D8
:10385000E7FC0298C4F8E88440F20712A921C4F8F2
:10386000FC54C4F80055FFF7BBFC0AAA09A902984A
:10387000ADF82890ADF824A007F000F80C23A4F8C8
:1038800044350298FFF7CCFC0398C4F83485332202
:103890000A21C4F84855C4F84C55FFF7A1FC0AAA00
:1038A00009A90398ADF82890ADF824A006F0E6FF2A
:1038B0000B23A4F890350398FFF7B2FC0498C4F8E2
:1038C000808533223F21C4F89455C4F89855FFF7FA
:1038D00087FC0AAA09A90498ADF82890ADF824A09D
:1038E00006F0CCFF0A23A4F8DC350498FFF798FC17
:1038F000C4F8CC85332274213846C4F8E055C4F8A6
:10390000E455FFF76DFC0AAA09A93846ADF82890DE
:10391000ADF824A006F0B2FF0923A4F828363846F3
:10392000FFF77EFCC4F818863322A9215846C4F854
:103930002C56C4F83056FFF753FC0AAA09A958467A
:10394000ADF82890ADF824A006F098FF0823A4F85D
:1039500074365846FFF764FC1823C4F86486009355
:103960000598DFF8F491C4F87856D523C4F87C564E
:1039700003221021FFF741FC4FF07F43C4F8B83613
:10398000D9F80030A4F8BC66C4F8C466C4F8C856B8
:10399000C4F8CC6604F5E4682BB9694B694A602128
:1039A000694818F053FCDFF8B4A1BAF80030052BD1
:1039B00003D8664B634A6121F2E7654B052118681D
:1039C00000F030FA634A0346112140460BF022FE14
:1039D00007230598C4F8D0860AA9DFF88481ADF8DA
:1039E0002C30CDF8288006F0EFFE18220092D52367
:1039F0001B2206981021FFF700FCD9F80030C4F80C
:103A000014574FF07F42C4F80427A4F80867C4F89D
:103A10001067C4F8186704F24275002BBDD0BAF8DD
:103A20000030042BC5D94A4B0421186800F0FAF97C
:103A3000484A0346112128460BF0ECFD0623069860
:103A4000C4F81C570AA9251DADF82C30CDF82880E4
:103A500006F0BAFE0799284605F044F818EE101A49
:103A6000284605F03FF818EE901A284605F03AF877
:103A700019EE101A284605F035F819EE901A284666
:103A800005F030F81AEE101A284605F02BF81AEE59
:103A9000901A284605F026F81BEE101A284605F065
:103AA00021F81BEE901A284605F01CF81CEE101A9F
:103AB000284605F017F81CEE901A284605F012F873
:103AC0001DEE101A284605F00DF81DEE901A284636
:103AD00005F008F81EEE101A284605F003F81EEE51
:103AE000901A284604F0FEFF1FEE101A284604F034
:103AF000F9FF1FEE901A284604F0F4FF02992846B9
:103B000004F0F0FF0399284604F0ECFF04992846DE
:103B100004F0E8FF3946284604F0E4FF59462846F9
:103B200004F0E0FF0599284604F0DCFF28460699DA
:103B300004F0D8FF20460DB0BDEC108BBDE8F08F2F
:103B400078DE010880DF0108F5DE01083CDF0108AE
:103B5000242A0120B8DF0108182A01201C2A01208C
:103B600070DA01087047000030B5154D2C78BFF3AE
:103B70005B8F14F001048DB01ED1284617F097FD1D
:103B8000D0B13F2307930F4B06930F4B0F491048BB
:103B900008940122CDE904430423CDE90132CDE9A3
:103BA00009440A2303940094FEF746FF094818F0DD
:103BB0006BFB284617F087FD05480DB030BD00BFF0
:103BC000C01B0020DCF80108E8F8010834F7010800
:103BD000C41B0020653B00087047000030B5154D40
:103BE0002C78BFF35B8F14F001048DB01FD12846F1
:103BF00017F05DFDD8B13F2307930F4B06930F4B92
:103C00000F4910480894CDE904430123CDE902335C
:103C10000423CDE900331C221423CDE90944FEF727
:103C20000BFF094818F030FB284617F04CFD0548FB
:103C30000DB030BDEC1B0020E0F80108ECF80108E5
:103C400044F70108F01B0020D93B00087047000032
:103C500030B5154D2C78BFF35B8F14F001048DB097
:103C60001ED1284617F023FDD0B13F2307930F4BF9
:103C700006930F4B0F49104808940122CDE90443E5
:103C80000423CDE90132CDE90944282303940094AB
:103C9000FEF7D2FE094818F0F7FA284617F013FD90
:103CA00005480DB030BD00BF181C0020E4F8010825
:103CB000F0F80108CCF801081C1C00204D3C00085D
:103CC00000207047002070470EB403B503AB0021FD
:103CD00053F8042B019309F02FFC02B05DF804EBBC
:103CE00003B070470CB407B504AB53F8042B019331
:103CF00009F022FC03B05DF804EB02B0704700004D
:103D0000436C10B5044673B3038F2BB9184B194A93
:103D1000C021194818F09AFAC38E00EB43035B8C5C
:103D20000BB30AF0C8FE238F012B03D8134B144AA0
:103D3000C521EEE7E28E531C9BB2092B194688BFC2
:103D4000A3F10A0104EB410140F63F10498C814286
:103D500009D10A2B04EB420228BF002304EB4303E2
:103D6000508C588451842046BDE810400AF0A6BD0E
:103D700010E1010819E10108C4E101080EE201089F
:103D80001CE201080AF061BD10B586B002AC84E8FF
:103D900006001A460AAB05930193099B009321463E
:103DA000089B08F06CF806B010BD000038B518BBD1
:103DB000124B13481B681349B3B11A689C681A4424
:103DC00002605A681A440A601C440F4B00221A8091
:103DD00000F038F8054600F033F80C4B1C600C4B33
:103DE0001D600C4B188007E00B4B03600B4B0B6006
:103DF0000B4B1C68002CE8D138BD00BF441C0020D0
:103E0000481C00204C1C0020501C0020182A0120B7
:103E1000202A01201C2A012064F90108F4F8010875
:103E200008FA0108044B1B6853F82100034B1B6878
:103E300003EB4000704700BF4C1C0020481C0020D2
:103E40001C20704700487047541C002010B5FFF735
:103E5000C5FE044C2060FFF7FBFE6060FFF784FEA8
:103E6000A06010BD541C0020704710B54FF4AC7119
:103E7000044617F01AFC204610BD10B50446D0F8D1
:103E8000540100F012F82046BDE8104008F08CBB49
:103E900010B50446FEF75EFD014B2360204610BDC1
:103EA000F8E201080022026070477047704704384A
:103EB0007047704710B51021044617F0F6FB2046F6
:103EC00010BDA0F10400F5E710B500228260044A9D
:103ED000C16002F1080420320460426010BD00BFDE
:103EE0003CE3010870477047FEF74BBE10B54FF436
:103EF000F461044617F0D9FB204610BD10B5044606
:103F0000FFF708FA014B2360204610BD6CE301085F
:103F1000F02070474FF4A07070472920FEF780B85A
:103F20002820FEF77DB808B5FEF74EF8CA20FEF748
:103F300077F8C320FEF758F80820FEF755F8502010
:103F4000FEF752F8CF20FEF76BF80020FEF74CF892
:103F5000C120FEF749F83020FEF746F8ED20FEF7C5
:103F60005FF86420FEF740F80320FEF73DF81220CA
:103F7000FEF73AF88120FEF737F8E820FEF750F810
:103F80008520FEF731F80020FEF72EF87820FEF7A6
:103F90002BF8CB20FEF744F83920FEF725F82C202B
:103FA000FEF722F80020FEF71FF83420FEF71CF879
:103FB0000220FEF719F8F720FEF732F82020FEF76E
:103FC00013F8EA20FEF72CF80020FEF70DF8002089
:103FD000FEF70AF8B120FEF723F80020FEF704F8F8
:103FE0001B20FEF701F8B620FEF71AF80A20FDF7AD
:103FF000FBFFA220FDF7F8FFC020FEF711F810200C
:10400000FDF7F2FFC120FEF70BF81020FDF7ECFFE3
:10401000C520FEF705F84520FDF7E6FF1520FDF762
:10402000E3FFC720FDF7FCFF9020FDF7DDFF362002
:10403000FDF7F6FFC820FDF7D7FFF220FDF7F0FFF0
:104040000020FDF7D1FFB020FDF7EAFFC220FDF709
:10405000CBFFB620FDF7E4FF0A20FDF7C5FFA72040
:10406000FDF7C2FF2720FDF7BFFF0420FDF7BCFFCF
:104070002A20FDF7D5FF0020FDF7B6FF0020FDF751
:10408000B3FF0020FDF7B0FFEF20FDF7ADFF2B20C1
:10409000FDF7C6FF0020FDF7A7FF0020FDF7A4FFF6
:1040A0000120FDF7A1FF3F20FDF79EFFF620FDF761
:1040B000B7FF0120FDF798FF0020FDF795FF0620D0
:1040C000FDF792FF2C20FDF7ABFFC820FDF7F6FFB0
:1040D0002620FDF7A5FF0120FDF786FFE020FDF774
:1040E0009FFF0F20FDF780FF2920FDF77DFF242093
:1040F000FDF77AFF0C20FDF777FF0E20FDF774FF28
:104100000920FDF771FF4E20FDF76EFF7820FDF7C7
:104110006BFF3C20FDF768FF0920FDF765FF1320CA
:10412000FDF762FF0520FDF75FFF1720FDF75CFF3D
:104130001120FDF759FF0020FDF756FFE120FDF7A4
:104140006FFF0020FDF750FF1620FDF74DFF1B20ED
:10415000FDF74AFF0420FDF747FF1120FDF744FF5C
:104160000720FDF741FF3120FDF73EFF3320FDF72B
:104170003BFF4220FDF738FF0520FDF735FF0C20FF
:10418000FDF732FF0A20FDF72FFF2820FDF72CFF57
:104190002F20FDF729FF0F20FDF726FF1120FDF747
:1041A0003FFFC820FDF78AFF2920FDF739FFBDE852
:1041B00008402C20FDF734BF08B5FDF705FF0321AB
:1041C000D320FDF749FF80B208BD10B5C4B202226A
:1041D00003212046FDF7AEFE0A20FDF7F3FE204640
:1041E00000220321FDF7A6FEBDE810400220FDF7E6
:1041F000E9BE38B50446E4B2FDF79AFE0021204638
:10420000FDF7B0FE012105462046FDF7ABFE40EA72
:10421000052080B238BD10B5C4B240212046FDF75C
:10422000A1FE030607D54C212046FDF79BFE003872
:1042300018BF012010BD01224B212046FDF77AFE58
:10424000204600224B21FDF775FE0020F2E773B5F2
:104250000423C4B20E461546D7210DEB03022046B7
:10426000FDF79AFE019B1BBA1A0DC3F30B23328094
:1042700020462B8001224B21FDF75CFE00224B21C2
:104280002046FDF757FE02B070BD000010B50A4B86
:104290001A78904204460DD0597888420AD00AB163
:1042A00041B901229C54FDF743FE2046BDE8104071
:1042B000FFF78BBF10BD00BF601C002010B5C4B25B
:1042C00009212046FDF74EFE40F00100C2B209214F
:1042D0002046BDE81040FDF72DBE10B5C4B209213F
:1042E0002046FDF73FFE092100F0FE022046BDE812
:1042F0001040FDF71FBE38B5C4B20D4620460A2156
:10430000FDF730FE2843C2B20A212046BDE83840FE
:10431000FDF710BE07B50190FDF70BFE01981F21B8
:10432000FFF7E9FF019803B05DF804EBFFF7C6BFA4
:1043300038B5C4B20D4620460A21FDF713FE20EA27
:104340000500C2B20A212046BDE83840FDF7F2BDA3
:1043500010B50446FFF7C1FF20461F21BDE81040FD
:10436000FFF7E6BF10B5C0B20C460B21FDF7FAFD12
:10437000204010BD1F21FFF7F5BF0A46C0B20B2138
:10438000FDF7D8BD1F21FFF7F8BF38B5C4B20D4601
:1043900020461721FDF7E6FD20EA0500C2B21721ED
:1043A0002046BDE83840FDF7C5BD70B5C4B206462D
:1043B00004212046FDF7D6FD042100F0FB0205464E
:1043C0002046FDF7B7FD3046F021FFF7DEFF05F090
:1043D000F80220460421FDF7ADFD492220212046A8
:1043E000FDF7A8FD0220FDF7EDFD20460122212169
:1043F000FDF7A0FD20469A224121FDF79BFD2046B6
:1044000001224A21FDF796FD204601224B21FDF7AE
:1044100091FD204600224B21FDF78CFD2046012214
:104420005621FDF787FD204601225821FDF782FD28
:10443000204601224021FDF77DFD2046FF220B2171
:10444000FDF778FDBDE870400220FDF7BBBD000020
:10445000054BD3F8882042F47002C3F888204FF04F
:1044600000629A60704700BF00ED00E008B50B4B9A
:104470001A6842F400721A601A6842F480621A6084
:104480001A6842F480721A60032000F02FF80020AE
:10449000FEF756F8FDF720FE002008BD003C024064
:1044A000034A044B11681B780B441360704700BF2C
:1044B000641C002078000020014B1868704700BF82
:1044C000641C002038B50446FFF7F6FF631C1CBFD0
:1044D000054B1B78054618BFE418FFF7EDFF431B9B
:1044E000A342FAD338BD00BF780000200749CA684C
:1044F00022F4E0620302120403F4E063120C13439B
:1045000043F0BF6343F40033CB60704700ED00E03D
:10451000164B30B5DC68C4F30224C4F10705231D33
:10452000042D28BF0425062B4FF0FF338CBF033C1E
:10453000002403FA05F521EA0501A34022EA03025B
:10454000A140002841EA0203ACBF00F16040084AE4
:104550004FEA0313B8BF00F00F00DBB2AABF00F5AB
:104560006140135480F8003330BD00BF00ED00E01F
:1045700014ED00E0002808DB4209012300F01F00D1
:1045800003FA00F0014B43F82200704700E100E01D
:1045900010B5044650B1437903F0FF0213B902711C
:1045A000FDF7BAFD01236371002010BD0120FCE777
:1045B00010B5044630B390F8393003F0FF021BB950
:1045C00080F83820FDF7C0FD22686168022384F876
:1045D0003930136823F440330B431360536BA168E5
:1045E00023F007030B435363136CE16823F47F53F9
:1045F00023F03F030B43136400200123E06384F89E
:10460000393010BD0120FCE770477047036870B572
:104610005E681D68F207044614D5E90512D51A68CC
:1046200022F480721A60C26B42F00102C26301225E
:104630009A60042380F83930002380F838304369C9
:1046400003B19847B20616D5AB0414D523681A688F
:1046500022F400521A6020229A60E36B43F00203B6
:10466000E363042384F83930002384F83830636925
:104670000BB120469847300716D5290514D5236875
:104680001A6822F400621A6008229A60E36B43F011
:104690000403E363042384F83930002384F83830BA
:1046A00063690BB12046984772070BD56B0509D596
:1046B00023681A6822F480621A6004229A602046F5
:1046C000FFF7A2FFB00714D5A90512D523681A6811
:1046D00022F400721A6002229A60E36BE363012302
:1046E00084F83930002384F8383023690BB1204630
:1046F0009847F20613D5EB0411D523681A6822F403
:1047000080521A6010229A60E36BE363012384F8FD
:104710003930002384F838302046FFF776FF70BD2B
:10472000F0B590F83830012B4FF002032BD0012266
:1047300080F8393080F8382000EB0113D3E90742C4
:104740005D6A184F44EA0242093C012C9CBF05F007
:104750007F431A434FEA0116036888BF42EA0562A5
:1047600099B9596A39400A435A62012C82699A619F
:1047700003D8426A22F07F429A62012380F83930DE
:10478000002380F838301846F0BDD96939400A4313
:10479000DA618219012C92691A619CBF25F07F456C
:1047A0001D62EAE7F0FFFC002DE9F74FDFF8C0914A
:1047B0006D4A00230D6801249C4004EA050CAC43BB
:1047C00040F0B9804D6805F003044FEA4308032622
:1047D000671E06FA08F6012F6FEA060634D88768C6
:1047E00007EA060ECF6807FA08F747EA0E07876060
:1047F000476827EA0C0EC5F300179F4047EA0E07EB
:104800004760C76807EA060E8F6807FA08F747EAA5
:104810000E07022CC76019D14FEAD30A00EB8A0AAF
:1048200003F0070BDAF820704FEA8B0B4FF00F0EF6
:104830000EFA0BFE27EA0E0E0F6907FA0BF747EA8E
:104840000E07CAF8207001E0032CDAD1076804FAD9
:1048500008F43E40264315F4403F06606BD04FF00D
:10486000000ACDF804A0D9F84460404C46F48046D4
:10487000C9F84460D9F8446006F480460196019E68
:1048800023F0030606F1804606F59C3603F0030E7E
:10489000D6F808804FEA8E0E0F2707FA0EF7A042CF
:1048A00028EA07074ED004F58064A0424CD004F5F6
:1048B0008064A0424AD004F58064A04248D004F548
:1048C0008064A04246D004F58064A04244D004F540
:1048D0008064A04242D004F58064A04240D004F538
:1048E0008064A0423ED004F58064A0420CBF09243D
:1048F0000A2404FA0EF43C43B46094686FEA0C0690
:10490000EF0254BF34404CEA04049460D468AF0210
:1049100054BF34404CEA0404D4605468AF0354BF1D
:1049200034404CEA040454601468ED0354BF34402E
:104930004CEA040414600133102B7FF43BAF03B046
:10494000BDE8F08F5446D4E70124D2E70224D0E733
:104950000324CEE70424CCE70524CAE70624C8E7ED
:104960000724C6E70824C4E7003C014000000240D9
:10497000003802400AB1816170470904FBE74369CE
:1049800001EA030221EA030141EA02418161704721
:1049900001684B6913F480634FF0000210D06FF48C
:1049A00080634B612023026380F83D3080F83E2015
:1049B000036C80F83C2043F004030364012070473B
:1049C000184670472DE9F84606460F4691461D46A3
:1049D0004FEA114A3368BAF1010F0CBF5C699C6958
:1049E00027EA0404A4B2B4FA84F46409A14501D00E
:1049F000002017E06A1CEED0FFF75EFD089BC01A8E
:104A0000A84201D8002DE5D100232022336386F887
:104A10003D2086F83E30326C86F83C3042F0200271
:104A200032640120BDE8F8862DE9F04104460F46C6
:104A3000164698462568686927EA000080B2B8B132
:104A40006B695A0516D52B6843F400732B606FF41D
:104A500080636B6120220023236384F83D2084F867
:104A60003E30226C42F00402226484F83C30012083
:104A7000BDE8F081731CDED0FFF71EFDA0EB08003F
:104A8000B04201D8002ED5D100232022236384F820
:104A90003D2084F83E30226C42F02002E4E770B5FD
:104AA00004460D46164621684B6913F0400301D0B9
:104AB000002010E04A69D2060ED56FF010024A615C
:104AC0002022236384F83D2084F83E30226C226447
:104AD00084F83C30012070BDFFF7EEFC801BA8423B
:104AE00001D8002DDFD100232022236384F83D204C
:104AF00084F83E30226C42F02002E8E770B50446AC
:104B00000D46164623685B695B0701D5002070BD22
:104B10002046FFF73DFFA8B96A1CF3D0FFF7CCFC95
:104B2000801BA84201D8002DECD100232022236352
:104B300084F83D2084F83E30226C84F83C3042F00A
:104B4000200222640120E2E770B504460D461646B5
:104B500023685B691B0601D5002070BD2046FFF766
:104B600017FFA8B96A1CF3D0FFF7A6FC801BA84268
:104B700001D8002DECD100232022236384F83D20AE
:104B800084F83E30226C84F83C3042F020022264EB
:104B90000120E2E72DE9F0431546026885B0DDE922
:104BA0000C789946136843F4807313600E463B46B5
:104BB000CDF8008000224FF001110446FFF702FFFC
:104BC000236838B11B68DB0502D54FF400732364FA
:104BD00003200AE006F0FE061E61194943463A46E4
:104BE0002046FFF721FF18B1012005B0BDE8F08392
:104BF000236803905A6903929B690393424639469E
:104C00002046039BFFF7A0FF40B1236C042B01BF9C
:104C10002268136843F400731360E5E7B9F1010FEC
:104C2000236802D1EDB21D61DFE72A0A1A61394615
:104C300042462046FFF788FF0028E6D12368F1E7C7
:104C4000020001002DE9FF479A46036815461A68DD
:104C500042F480621A601A68DDE90C7842F48072CE
:104C60001A600E463B46CDF8008000224FF001113D
:104C70000446FFF7A7FE236848B11B68DB0502D591
:104C80004FF400732364032004B0BDE8F0875FFA9B
:104C900086F906F0FE061E612A4943463A4620463A
:104CA000FFF7C2FE08B10120EEE7236803905A69BE
:104CB00003929B690393424639462046039BFFF7C4
:104CC00043FF40B1236C042B01BF2268136843F4F7
:104CD00000731360E7E7BAF1010F23681AD1EDB250
:104CE0001D61424639462046FFF72EFF0028E9D1D4
:104CF0002268136843F4807313604FF00111024679
:104D0000CDF800803B462046FFF75CFE226860B18C
:104D10001368B3E72A0A1A61394642462046FFF76C
:104D200013FF0028CED12368D9E749F001031361AE
:104D3000044943463A462046FFF776FE003818BF3E
:104D40000120A1E70200010070B5044608B9012066
:104D500070BD90F83D3003F0FF021BB980F83C2095
:104D6000FDF714FA242384F83D3023681A6822F0F2
:104D700001021A601A6842F400421A601A6822F4AA
:104D800000421A6000F074FE3F4B65689D4294BF7C
:104D90003E4B3F4B98428CBF00230123002BD6D1C2
:104DA0002268394E53683B49B0FBF1F123F03F03D1
:104DB0000B43B542536088BF4FF49676136A88BFA1
:104DC000714323F03F0384BF4FF47A76B1FBF6F1D1
:104DD000013119431162D169431E2B4821F44F411F
:104DE000854221F0FF0132D86D0040F6FC70B3FB24
:104DF000F5F30133034242D0C3F30B030B43D361FA
:104E0000D4E907301168034321F0C0010B4313605C
:104E10009168D4E9030321F40341034321F0FF0126
:104E20000B439360D4E90530D168034321F0FF01BF
:104E30000B43D360136843F0010313600020202369
:104E4000206484F83D30206384F83E0080E7A06849
:104E500050B905EB4505B3FBF5F30133C3F30B0381
:104E60007BB143F40043C9E719204543B3FBF5F395
:104E70000133C3F30B0323B143F44043BEE70423E0
:104E8000BCE70123BAE700BFA08601007F841E00B3
:104E9000FF083D0040420F002DE9F74304469946C4
:104EA0000C9E0F469046FFF707FB94F83D30202BF1
:104EB000054603D0022003B0BDE8F08300903C49D2
:104EC000192301222046FFF77DFD0028F2D194F836
:104ED0003C30012BEED02068012384F83C3003687D
:104EE000D9075EBF036843F001030360036823F43E
:104EF00000630360212384F83D30402384F83E3072
:104F0000002323640A9B6362BDF82C306385638DA4
:104F10002385284BE362CDE900654B46424639467E
:104F20002046FFF737FE00282AD00120C3E7FFF70D
:104F30000BFE40B1236C042B01BF2268136843F4BD
:104F400000731360F1E7636A27681A4612F8011BC1
:104F500039616262628D218D013A92B262857A690D
:104F6000481E80B2520720850AD548B15A783A6166
:104F700002336362638D013B02399BB221856385F5
:104F8000238D2A4631462046002BD0D1FFF7B6FDAF
:104F90000028CFD12268136843F4007313602023E4
:104FA00084F83D3084F83C0084F83E0083E700BF7D
:104FB000020010000000FFFF2DE9F043044687B017
:104FC0009946109F0D469046FFF776FA94F83D30CB
:104FD000202B064604D00225284607B0BDE8F08302
:104FE00000907649192301222046FFF7EBFC0028A8
:104FF000F1D194F83C30012BEDD02068012384F8E6
:105000003C300368DB075EBF036843F001030360C5
:10501000036823F400630360222384F83D304023B7
:1050200084F83E30002323640E9B6362BDF83C305D
:105030006385638D2385624BE3622946CDE9007663
:105040004B4642462046FFF7FDFD054608B10125C7
:10505000C2E7228D2368B2B902905A6902929A6916
:105060000292029A1A6842F400721A60DFF85481C0
:10507000238D002B2CD1202284F83D2084F83C3055
:1050800084F83E30A8E7012A0AD11A6822F4806227
:105090001A6003905A6903929A690392039AE1E7AE
:1050A000022A0ED11A6822F480621A601A6842F449
:1050B00000621A6004905A6904929B690493049BED
:1050C000D4E705905A6905929B690593059BCDE746
:1050D000032B56D8012B15D1324639462046FFF70F
:1050E000DEFC0028B3D123681A69636A1A70636A08
:1050F00001336362238D013B2385638D013B9BB2AA
:105100006385B5E7022B00963B464FF0000241460F
:10511000204619D1FFF756FC002898D123681A6859
:1051200042F400721A601A69636A1A70626A531C48
:105130006362238D013B2385638D013B9BB26385B5
:1051400023681B695370D2E7FFF73CFC00287FF40B
:105150007EAF23681A6822F480621A601A69636A53
:105160001A70636A009601336362238D013B2385C5
:10517000638D013B9BB2638502463B464146204618
:10518000C8E7324639462046FFF789FC00287FF4FD
:105190005EAF23681A69636A1A70626A531C63629D
:1051A000238D013B2385638D013B9BB2638523687F
:1051B000596949077FF55CAFC3E700BF02001000E3
:1051C0000000FFFF0400010010B590F83D30202BD7
:1051D000DCB216D1242380F83D3003681A6822F02F
:1051E00001021A605A6A22F010025A625A6A114386
:1051F00059621A6842F001021A6080F83D400020AE
:1052000010BD0220FCE730B590F83D30202BDCB219
:1052100016D10268242380F83D30136823F001037F
:105220001360556A4FF6F0732B400B439BB25362E9
:10523000136843F00103136080F83D40002030BD47
:105240000220FCE70068D1F800C0D2018432831844
:105250002DE9F043C6685D684C68D1F8189005F4F4
:1052600070455D60C5680CF10107C5F30B45C6F3D9
:105270000B463D44264445EA06455D60C568CE6858
:10528000C5F30A052E449D6805F470459D60C76806
:105290008D68C7F30A0701353D4445EA06459D6020
:1052A0001D690E6925F007051D614FF0000E1E6196
:1052B0009D6991F8327091F83180C3F818E091F847
:1052C000305045EA096545EA082545EA07459D61EC
:1052D0005D6925F0FF055D614D695D61DD6925F45E
:1052E000E06525F00705DD61D1E907573D43DD6144
:1052F0009D6A4D6AC3F828E09D621EB3012E23D03B
:10530000B51E022D22D9072E0CBF02250125DE6A0B
:1053100006F0E026DE62A4EB0C048E6AC96A6C43D8
:105320006E43033444EA0644DC621C6B24F4FF64DD
:1053300024F007041C631963835843F0010383506E
:10534000BDE8F0830425E2E70325E0E70225DEE778
:1053500038B50446002863D090F8A13003F0FF026E
:105360001BB980F8A020FCF76DFF022384F8A13060
:1053700023689A6922F070429A61D4E901200243BD
:10538000E06899690243206902430A439A619A6876
:10539000244960690A409A609A6842EA0042A0691A
:1053A00002439A60DA68E0690A40DA60DA6842EA41
:1053B0000042206A0243DA601A69606A0A401A6190
:1053C0001A6942EA0042A06A02431A615A6911400E
:1053D00059615A69E16A42EA0142216B0A435A6102
:1053E000D96A94F8360094F8355001F07F41D962BB
:1053F000D96A94F834200A4342EA052242EA00427C
:10540000DA625A6B42F006025A639A6942F001026C
:105410009A6100200123C4F8A40084F8A13038BDAB
:105420000120FCE700F800F070477047036870B592
:105430009E6B5D6B7207044614D5690712D55A6BD3
:1054400022F004025A630422DA63D0F8A43043F055
:105450000103C0F8A430002380F8A12080F8A03018
:10546000FFF7E2FFB20716D5AB0714D523685A6BD6
:1054700022F002025A630222DA63D4F8A430134302
:10548000C4F8A430042384F8A130002384F8A030A9
:105490002046FFF7C9FFF00710D5E9070ED52368AE
:1054A0005A6B22F001025A630122DA63002384F866
:1054B000A12084F8A0302046FCF7E6FA320711D587
:1054C0002B070FD523685A6B22F008025A63082273
:1054D000DA63012384F8A130002384F8A030204649
:1054E000FFF7A3FF70BD2DE9F04190F8A030012B2C
:1054F00006460F4694464FF002001FD04FF00108B9
:1055000086F8A08086F8A10034240D4604FB0264CE
:105510000FCD38340FC40FCD0FC40FCD0FC42B687F
:105520002360304662463946FFF78CFE3368002020
:10553000C3F8248086F8A18086F8A000BDE8F08139
:1055400090F8A030012B4FF0020312D080F8A13068
:1055500003685A6B22F001025A63074A11645A6BBE
:1055600042F001025A63012380F8A130002380F841
:10557000A0301846704700BF006801402DE9F34194
:10558000044640B30368DD0710D4236898075ED44F
:1055900023681A0700F1A08023685B0700F1C08030
:1055A000A069002840F0288100202BE08F4B9A68EA
:1055B00002F00C02042A07D09A6802F00C02082AB2
:1055C0000BD15A68510208D5884B1B689A03DCD569
:1055D0006368002BD9D1012014E06268B2F5803FE6
:1055E00013D11A6842F480321A60FEF765FF7F4ECD
:1055F000054633689B03C8D4FEF75EFF401B642852
:10560000F7D9032002B0BDE8F081784DB2F5A02FA4
:105610002B6807D143F480232B602B6843F480333D
:105620002B60E2E723F480332B602B6823F4802384
:105630002B60002AD9D1FEF73FFF06462B689F0357
:10564000A3D5FEF739FF801B6428F7D9D9E7674B4C
:105650009A6812F00C0F07D09A6802F00C02082A20
:1056600011D15B685E020ED4604A13689D0702D5B3
:10567000E368012BAFD11368216923F0F80343EAF3
:10568000C103136084E7E268594BB2B101221A608A
:10569000FEF712FF554D06462B68980707D52B6875
:1056A000226923F0F80343EAC2032B6070E7FEF798
:1056B00003FF801B0228EFD9A3E71A60FEF7FCFE68
:1056C0004A4E0546336899077FF562AFFEF7F4FE50
:1056D000401B0228F6D994E76269454B82B101224A
:1056E000C3F8802EFEF7E8FE404E0546736F9F0715
:1056F0003FF552AFFEF7E0FE401B0228F6D980E7E7
:10570000C3F8802EFEF7D8FE384E0546736F980713
:105710007FF542AFFEF7D0FE401B0228F6D970E7B6
:10572000324B1A6C12F0805228D101921A6C42F05E
:1057300080521A641B6C03F080530193019B012774
:105740002C4D2B68D9051BD5A368284D012B27D1DB
:105750002B6F43F001032B67FEF7AEFE234E054689
:1057600041F28838336F9B0739D5002F3FF418AFCB
:105770001E4A136C23F08053136411E70027DFE700
:105780002B6843F480732B60FEF796FE06462B6869
:10579000DA05D9D4FEF790FE801B0228F7D930E74E
:1057A000052B04D12B6F43F004032B67D0E72A6F3E
:1057B00022F001022A672A6F22F004022A67002BD6
:1057C000CAD1FEF779FE41F2883806462B6F98075A
:1057D000CBD5FEF771FE801B4045F7D911E7FEF7E8
:1057E0006BFE401B4045BDD90BE700BF00380240AF
:1057F0000000474200700040364DAB6803F00C03D8
:10580000082B3DD0344B002202281A662BD1FEF71C
:1058100053FE06462B6899011FD4D4E9073213437F
:10582000626A43EA8213E26A43EA0263A26A5208A6
:10583000013A43EA02436B60274B264D01221A6668
:10584000FEF73AFE04462B689A013FF5ADAEFEF72F
:1058500033FE001B0228F6D9D3E6FEF72DFE801B8F
:105860000228D7D9CDE6FEF727FE04462B689B0118
:105870007FF59AAEFEF720FE001B0228F6D9C0E69F
:1058800001283FF4BFAE6B68E26903F480019142E6
:105890007FF4A1AE216A03F03F028A427FF49BAEFF
:1058A000616A47F6C0721A40B2EB811F7FF493AE73
:1058B000A26A520803F44031013AB1EB024F7FF47F
:1058C0008AAEE26A03F07063B3EB026F3FF46CAE32
:1058D00081E600BF0038024000004742134908B586
:1058E0008B6803F00C03042B1CD0082B1CD14A68D6
:1058F0004B68496813F4800314BF0D480D48C1F389
:10590000881118BF002302F03F02A1FB0001FBF742
:105910002DF9064B5B68C3F3014301335B00B0FB19
:10592000F3F008BD0248FCE70248FAE700380240FD
:1059300000127A000024F4002DE9F0410D460446DF
:1059400010B90120BDE8F081444B1A6802F00F0243
:105950008A4228D3226897072DD4D00741D43F4BE1
:105960001A6802F00F02AA4266D8226851076CD466
:10597000130707D53A4A2169936823F4604343EA41
:10598000C1039360FFF7AAFF354B364A9B68C3F308
:105990000313D35CD840344B1860344B1868FCF7C1
:1059A000CFFD0020CEE7CAB21A701B6803F00F03C8
:1059B0008B42C6D1CEE72A4B12F0040F1EBF996866
:1059C00041F4E0519960160742BF996841F4604183
:1059D00099602349A0688B6823F0F00303438B6030
:1059E000BBE762681E4B012A1CD11B6813F4003F01
:1059F000A7D01B4EB36823F003031343B360FEF735
:105A00005BFD41F288380746B368626803F00C0317
:105A1000B3EB820FA3D0FEF74FFDC01B4045F3D977
:105A200003208FE7911E01291B6802D813F0007F25
:105A3000DEE713F0020FDBE7EAB21A701B6803F02F
:105A40000F03AB427FF47DAF8FE70549E0688B68B9
:105A500023F4E05303438B608AE700BF003C02401D
:105A6000003802409CE30108740000207C00002004
:105A7000044B054A9B68C3F38223D35C034A106836
:105A8000D840704700380240ACE3010874000020A1
:105A90000F2303600B4B9A6802F0030242609A687E
:105AA00002F0F00282609A6802F4E052C2609B68E1
:105AB000DB0803F4E0530361034B1B6803F00F039F
:105AC0000B60704700380240003C0240036813F04E
:105AD000430FF7B5044640F08C80236813F00C0F99
