:020000040800F2
:100000000000032095050008E11C0008E31C00081F
:10001000E51C0008E71C0008E91C000800000000BF
:10002000000000000000000000000000315F000838
:10003000EB1C000800000000C15F000853580008D6
:10004000E5050008E5050008E5050008E5050008E8
:10005000E5050008E5050008E5050008E5050008D8
:10006000E5050008E5050008E5050008E5050008C8
:10007000E5050008E5050008E5050008E5050008B8
:10008000E5050008E5050008E5050008E5050008A8
:10009000E5050008E5050008E5050008E505000898
:1000A000E5050008E5050008E5050008E505000888
:1000B000E5050008E5050008E5050008E505000878
:1000C000E5050008E5050008E5050008E505000868
:1000D000E5050008E5050008E5050008E505000858
:1000E000E5050008E5050008E5050008E505000848
:1000F000E5050008E5050008E5050008E505000838
:10010000E5050008E5050008E5050008E505000827
:10011000E5050008E5050008ED1C0008E5050008F8
:10012000E5050008E5050008E5050008E505000807
:10013000E5050008E5050008E5050008E5050008F7
:10014000E5050008E5050008E5050008E5050008E7
:10015000E5050008E5050008E5050008E5050008D7
:10016000E5050008E5050008E5050008E5050008C7
:10017000E5050008E5050008E505000800000000A9
:10018000E5050008E5050008E5050008E5050008A7
:10019000E5050008E5050008E5050008E505000897
:0C01A000F91C0008E5050008051D00081A
:1001B00010B5054C237833B9044B13B10448AFF3A1
:1001C00000800123237010BD6401002000000000A6
:1001D00060AE010808B5034B1BB103490348AFF3F8
:1001E000008008BD000000006801002060AE01082A
:1001F00001F0FF01102A2BDB10F0070F08D010F8D8
:10020000013B013A8B422DD010F0070F42B3F6D1DB
:10021000F0B441EA012141EA014122F007047FF0F4
:1002200000070023F0E80256083C85EA010586EA4B
:10023000010685FA47F5A3FA87F586FA47F6A5FA87
:1002400087F68EB9EED1F0BC01F0FF0102F0070293
:1002500032B110F8013B013A83EA010313B1F8D13E
:100260000020704701387047002D06BF354603381F
:10027000073815F0010F07D1013015F4807F02BF58
:10028000013015F4C03F0130F0BC0138704700BFA9
:1002900053B94AB9002908BF00281CBF4FF0FF31ED
:1002A0004FF0FF3000F074B9ADF1080C6DE904CEE9
:1002B00000F006F8DDF804E0DDE9022304B0704741
:1002C0002DE9F047089D04468E46002B4DD18A4209
:1002D000944669D9B2FA82F252B101FA02F3C2F13C
:1002E000200120FA01F10CFA02FC41EA030E9440CD
:1002F0004FEA1C48210CBEFBF8F61FFA8CF708FBEE
:1003000016E341EA034306FB07F199420AD91CEBC5
:10031000030306F1FF3080F01F81994240F21C81F7
:10032000023E63445B1AA4B2B3FBF8F008FB10333F
:1003300044EA034400FB07F7A7420AD91CEB040474
:1003400000F1FF3380F00A81A74240F20781644444
:10035000023840EA0640E41B00261DB1D4400023C9
:10036000C5E900433146BDE8F0878B4209D9002D2D
:1003700000F0EF800026C5E9000130463146BDE8B7
:10038000F087B3FA83F6002E4AD18B4202D3824221
:1003900000F2F980841A61EB030301209E46002DD0
:1003A000E0D0C5E9004EDDE702B9FFDEB2FA82F225
:1003B000002A40F09280A1EB0C014FEA1C471FFA83
:1003C0008CFE0126200CB1FBF7F307FB131140EA6A
:1003D00001410EFB03F0884208D91CEB010103F137
:1003E000FF3802D2884200F2CB804346091AA4B2F9
:1003F000B1FBF7F007FB101144EA01440EFB00FECD
:10040000A64508D91CEB040400F1FF3102D2A64531
:1004100000F2BB800846A4EB0E0440EA03409CE7D0
:10042000C6F12007B34022FA07FC4CEA030C20FA7D
:1004300007F401FA06F31C43F9404FEA1C4900FA9D
:1004400006F3B1FBF9F8200C1FFA8CFE09FB18111A
:1004500040EA014108FB0EF0884202FA06F20BD98D
:100460001CEB010108F1FF3A80F08880884240F2DD
:100470008580A8F102086144091AA4B2B1FBF9F021
:1004800009FB101144EA014100FB0EFE8E4508D91C
:100490001CEB010100F1FF346CD28E456AD90238A1
:1004A000614440EA0840A0FB0294A1EB0E01A14286
:1004B000C846A64656D353D05DB1B3EB080261EBF4
:1004C0000E0101FA07F722FA06F3F1401F43C5E9CE
:1004D000007100263146BDE8F087C2F12003D84004
:1004E0000CFA02FC21FA03F3914001434FEA1C4746
:1004F0001FFA8CFEB3FBF7F007FB10360B0C43EA38
:10050000064300FB0EF69E4204FA02F408D91CEBE7
:10051000030300F1FF382FD29E422DD902386344E5
:100520009B1B89B2B3FBF7F607FB163341EA034185
:1005300006FB0EF38B4208D91CEB010106F1FF38D4
:1005400016D28B4214D9023E6144C91A46EA0046CB
:1005500038E72E46284605E70646E3E61846F8E65D
:100560004B45A9D2B9EB020864EB0C0E0138A3E7A6
:100570004646EAE7204694E74046D1E7D0467BE787
:10058000023B614432E7304609E76444023842E7FF
:10059000704700BFDFF834D0002103E00C4B5B58FC
:1005A000435004310B480C4B42189A42F6D30B4A85
:1005B00002E0002342F8043B094B9A42F9D302F0CF
:1005C00027FF19F0E7FB00F087FE704700000320CB
:1005D0001498040800000020640100206401002039
:1005E000E42B0120FEE7704710B50421044619F002
:1005F00058FB204610BD000038B50C4B0C4C188041
:100600000C4B822019806368984740F6110398428A
:100610000AD1094D23682C60822098472B688220DC
:10062000DB689847002038BD0120FCE780010020EE
:100630004C00002082010020840100204FF4A071B2
:10064000F020FFF7D9BF0000F7B5344D2B68044602
:100650001B698220984780B2208000284CD02B68EC
:100660000DF106025B6901A982209847BDF80630AA
:1006700040F67462934241D9ADF80620BDF80620D9
:10068000C2F56762043292B20A2A3DD90B23B2FB4B
:10069000F3F2234B1B889A4201D9013B9AB2BDF871
:1006A000043040F6B8318B4230D8C3F571630E3355
:1006B0009BB20F21B3FBF1F31A4909888B4201D990
:1006C0004B1E9BB2184E194D30682F68834281B281
:1006D0008CBF591AC91AB8B2BA428CBF101A801A04
:1006E00089B280B201440529C8BF33603368C8BFEE
:1006F0002A6063802B68A38003B0F0BDB32B9CBF3E
:10070000B423ADF80630B9E70022C8E7C3F56D633E
:1007100008339BB20E2BCCD80023D3E784010020F2
:100720008201002080010020880100208C0100202F
:1007300037B568460D461446FFF786FFBDF8000042
:1007400030B1BDF802302B60BDF8043023600120C9
:1007500003B030BD032821D8DFE800F0020B1219E6
:100760000F4B1A68B2FA82F2520904210D4803F0C5
:10077000E1B80B4B5A68B2FA82F252090821F5E748
:10078000074B9A68B2FA82F252091021EEE7044B45
:10079000DA68B2FA82F252092021E7E7704700BF17
:1007A0009001002000100240032821D8DFE800F06B
:1007B000020B12190F4B1A68003A18BF01220421CC
:1007C0000D4803F0B7B80B4B5A68003A18BF012226
:1007D0000821F5E7074B9A68003A18BF012210215B
:1007E000EEE7044BDA68003A18BF01222021E7E760
:1007F000704700BF900100200010024003280DD870
:10080000DFE800F00206080A0421054803F097B863
:100810000821FAE71021F8E72021F6E7704700BF2A
:1008200000100240012380F8741080F87530704782
:1008300000207047034B4164003918BF0121197033
:10084000704700BF3F29012000207047836B0BB128
:100850000846184770474FF6FF70704740680368B6
:100860009B691847704770477047000070B5044691
:1008700000F054FC2368D3F88850044BD4E90F12DD
:100880002046AC46BDE87040604700BF000000D085
:1008900008B503680446D3F880309847236820469B
:1008A0009B6F984700F0F0F8236820461B6F98472D
:1008B000292000F047FF00F0E7F8236820461B6F6F
:1008C0009847F8E710B5044608F024F92368204655
:1008D000D3F8AC30BDE81040184700F011BC00F070
:1008E00015BC00F041BC00F0E7BB00F041BC00F0DB
:1008F00049BC00F0EBBB07F075BB10B57C2104468A
:1009000019F0CFF9204610BD90F877301BB1406840
:1009100003681B68184718467047000010B590F828
:10092000341090F874400C4B8C421A7809D03AB9C4
:100930000A4A0B491488088810800C8001221A701A
:1009400010BD002AFCD0054A05491488088810808B
:100950000C800022F3E700BF382901203429012050
:100960003629012070B50D46194635B9094B0A4A9A
:100970000A4840F2D22119F0C3F9C0E90F52084BDE
:10098000003A18BF01221A700368BDE87040D3F81E
:100990008C301847D0AE010808AF010856AF0108E7
:1009A0003E29012008B5094B1B888B4203D8084B10
:1009B0001B88934205D9074B074A08489E2119F026
:1009C0009FF9074B1980074B1A8008BD3429012075
:1009D000362901209BAF0108FEAF010856AF010880
:1009E0003A2901203C29012000F088BA00F0F6BA2B
:1009F000012108B50022084604F0B9FF0A4B18602F
:100A000028B90A4B0A4A28210A4819F079F9002224
:100A10000421012005F048F8074B186018B9074B6E
:100A2000034A2C21F0E708BDA40100201CB10108F5
:100A300065B1010894B10108A0010020DCB10108F2
:100A4000024B4FF0FF31186804F0DBBFA401002017
:100A5000014B186805F000B8A4010020024B0021EA
:100A6000186804F0CEBF00BFA4010020FFF7F0BF5C
:100A700003480449006800231A4605F050B800BF37
:100A8000A00100200400002013B5084C00231A46E2
:100A900001A9206805F073F820684FF0FF330022A9
:100AA00001A905F06CF802B010BD00BFA001002044
:100AB00003685B6C18470120704703689B6A1847FE
:100AC00082B0002301930D4B1A6B42F400021A63AB
:100AD0001A6B02F400020192019A1A6942F40002B0
:100AE0001A611A6922F400021A61054B054A1A615B
:100AF000054B4FF080629A6002B0704700380240A8
:100B0000201900204D0B000800E100E040F2EF301A
:100B100070470000054B0360054B4FF08062C3F83F
:100B20008820BFF34F8FBFF36F8F704774B30108F6
:100B300000E100E010B504464FF45A61FFF7EAFF08
:100B4000204619F0AEF8204610BD0000024B1B688D
:100B5000586803685B6918474029012070B504464E
:100B600025460A4B0C30002660602672667245F8F6
:100B7000203B6022294608F00BF904F55A63EE6029
:100B80002435AB42FBD1204670BD00BF74B30108D1
:100B900008B50B290BD8DFE801F01206100A0A0A83
:100BA0000A0808080808012008BD0520FCE7054BD5
:100BB000054A0648662119F0A3F80020F4E7022050
:100BC000F2E700BF1EB2010839B2010883B2010882
:100BD00008B50A2909D8DFE801F010060E08080850
:100BE000080606060600012008BD054B054A064812
:100BF000872119F085F80020F6E70220F4E700BF0E
:100C00001EB20108C9B2010883B201082DE9F843F8
:100C10004F7F0C4639468146FFF7BAFF94F81E8095
:100C2000054641464846FFF7B3FF4146064648465B
:100C3000FFF7CEFFA18A628B424B521A1A649A6167
:100C4000228B521A1A61E28A586342EA01425A64BC
:100C500020696268D863DA60216894F81CC0802932
:100C60004FEA0C6226D010D8202945EA020461D050
:100C700040295FD004295DD0324B2A4342F4003230
:100C80004745DA615AD0304A40E0B1F5807F07D05D
:100C9000B1F5007FF0D142F4003242F0090203E0E6
:100CA00042F4003242F00A02DA61E2681A625E62DD
:100CB00058612AE0A4682A4342F40032211DD96217
:100CC000DA6122785E62586142B1012A21D01F4B5D
:100CD0001F4A204840F2111119F012F8DA696188B0
:100CE00022F47F42013922F0100242EA0122DA6145
:100CF0000120144BDA6942F02002DA61DA699206C7
:100D0000FCD410229A600028BDD0134A1A60BDE8B6
:100D1000F8836288D969541E21F47F4222F01002C0
:100D200042EA0422BCF1FF0042F0100218BF012089
:100D3000DA61DEE744F40034DC61B8E740F2012216
:100D4000E4E700BF00B002400102010014B3010853
:100D50002EB3010883B201080102020070B50C46EF
:100D6000897FFFF735FFA68AE18A628B154B2569DB
:100D7000586341EA0641921B5964DD631A64266890
:100D8000E168082E0DD19A611A615862207F0E4ADF
:100D900042EA0062DA610D4A19625D61DD601A6043
:100DA00070BD0022D8611A6148090A0A02F478422B
:100DB00000F4FC600243C1F3C4010A439A63044A8D
:100DC000EDE700BF00B0024009000100010202008F
:100DD00001020300012070470C2070470C2303FB25
:100DE0000100083070470C2303FB010008307047F6
:100DF000012070474FF4E36070474FF4E36303FB57
:100E00000100083070474FF4E36303FB0100083032
:100E10007047012070471020704700EB0110083028
:100E2000704700EB011008307047084601F054B9D4
:100E300010B5034B0360044606F01FFE204610BDAC
:100E40002CB4010810B50446FFF7F2FF2046142128
:100E500018F027FF204610BD10B5034B0360044671
:100E600006F00BFE204610BDF8B3010810B504468D
:100E7000FFF7F2FF20464FF4E46118F012FF20461E
:100E800010BD000010B5034B0360044606F0F5FDED
:100E9000204610BDC4B3010810B50446FFF7F2FFA9
:100EA0002046182118F0FDFE204610BD10B5084B55
:100EB0000360044600F24C70FFF7BAFF04F12C0007
:100EC000FFF7CAFF04F11400FFF7DCFF204610BD56
:100ED00060B4010808B50248FFF7E8FF08BD00BF8D
:100EE000AC01002010B50446FFF7E0FF204640F6B5
:100EF000BC0118F0D6FE204610BD00002DE9F341DC
:100F000000F074FF054600F075FF002401462346FB
:100F10002846224600940DF0D7F8254B254A264D49
:100F20001A60204601F022FF24480DF035F82B7896
:100F3000BFF35B8FDB0735D4284618F0B4FE88B3C7
:100F40001F4C204B236004F2647604F1140004F17A
:100F50002C0804F24C776060C4F80880E7602661D2
:100F600006F08CFD184B6361404606F087FD174B79
:100F7000E362384606F082FD154BC4F84C3704F5A1
:100F8000EC6001F06FFF224604F5EC61304601F0A1
:100F90005FFF304601F0A0F80E4818F0CFFE28465B
:100FA00018F08DFE0C4802B0BDE8F041FFF75EBCC2
:100FB0009C29012088180020A8010020080000209A
:100FC000AC01002060B40108C4B30108F8B3010803
:100FD0002CB40108D50E00080C1800200148FFF7BA
:100FE00057BC00BF0C18002070B5234C234E244B77
:100FF000244D23603046FFF7B1FD284610F06EF90E
:10100000214B2248DC60224C03600022F0204FF488
:1010100080712080C3E912121E4C1F492080C3E951
:1010200019121E4C1A864FF080714FF4A070596748
:101030000121C3E90422C3E90622C3E90822C3E966
:101040000A22C3E90E22C3E91022C3E91422C3E92C
:1010500016221A6683F86C201A67C3E9016583F8C3
:10106000781020800E4C83F8341020800D480270D8
:101070000D4A1A6070BD00BF680A00206C0A00208B
:10108000C0AE01088C1800200C1800204029012057
:10109000342901203A2901200100000136290120CC
:1010A0003C290120382901204CB001080148FFF7F4
:1010B00031BD00BF6C0A0020034B902283F85A23F5
:1010C00083F85823704700BF00E100E0094A0A494D
:1010D000D3680A48C3F30A03013B9BB20B80116932
:1010E000C1F30A01013901801364536B43F001031A
:1010F000536370470068014008190020061900205A
:10110000014BD3F8AC00704700680140024B01224C
:10111000C3F8AC105A6270470068014070B50446CD
:1011200006F0B5FF23685D6E0AF0C6FB0146204657
:10113000A8472368054AD3F888502046AC460023C8
:10114000BDE87040A2F51631604700BF00B004D082
:1011500006F084BF90F84B3013B1024B01221A7095
:1011600006F088BF0419002006F042BF07F09BB8C4
:10117000034B4FF080629A604FF080729A60704724
:1011800000E100E0084B4FF08062C3F88820BFF315
:101190004F8FBFF36F8F4FF08072C3F88820BFF37B
:1011A0004F8FBFF36F8F704700E100E010B5144C14
:1011B000236823B3134B144A1B6C11888B4213D141
:1011C000124B198803F09CF9226892F866300133BB
:1011D00082F86630FFF74CFC206807F09BFCBDE806
:1011E00010400020FFF7B6BA03F08AF920680368C0
:1011F0001B6A9847BDE810400020FFF7D5BA10BD24
:10120000402901200068014008190020061900202B
:1012100007B5064BADF806001B68054801220DF125
:10122000060103F0B9FE03B05DF804FB10000020D6
:10123000901A002008B5642004F08DFBFBE7000045
:1012400030B595B0102200210AA818F0E5FD14224F
:10125000002103A818F0E0FD00241D4B01941A6C36
:1012600042F080521A641B6C03F080530193019B7F
:10127000184B02941A6842F440421A601B6803F447
:10128000404302930122029B4FF48033CDE90823AF
:1012900002254FF48003CDE90E5308214FF4A873C3
:1012A000CDE9101308A804231393129503F046F90F
:1012B0000F23CDE903354FF4A0504FF48053CDE90F
:1012C0000603052103A8059403F016FB15B030BDF5
:1012D000003802400070004080B59AB002F0A6F8D5
:1012E000FFF7AEFF142200210DA8002418F094FD92
:1012F000BF4B00941A6BBF48BF4D42F010021A63F7
:101300001A6B02F010020092009A01941A6B42F0DC
:1013100020021A631A6B02F020020192019A0294D1
:101320001A6B42F080021A631A6B02F0800202927A
:10133000029A03941A6B42F004021A631A6B02F0C9
:1013400004020392039A04941A6B42F001021A6396
:101350001A6B02F001020492049A05941A6B42F08F
:1013600002021A631A6B02F002020592059A0694B1
:101370001A6B42F040021A631A6B02F040020692A6
:10138000069A07941A6B42F008021A631B6B03F06B
:101390000803079322463C21079B02F0CBFA9748AB
:1013A0002246042102F0C6FA224695484FF44051E5
:1013B00002F0C0FA01264FF003083C238D48CDF817
:1013C00040800DA902274FF00409CDE90D360F9496
:1013D00002F0CAF989480F940DA9CDE90D9610972E
:1013E00002F0C2F90DA94FF440538548CDE90D36FE
:1013F000CDE90F4702F0B8F98248834B036002F051
:10140000A7F8824A824B2C62C5E9002328464FF494
:101410008043C5E90434C5E90244C5E9064402F045
:1014200073FC1021284602F0AFFE2146284602F048
:10143000CAFE7848784984624FF48273C0E9001389
:101440004FF400751823C0E906530A23734DC36295
:10145000C0E90244C0E90444C0E9084403F040FD87
:101460006F4B0D974FF0100CC5E900364023C5E9CE
:1014700004C34FF4C073C5E906344FF40063C5E9F3
:1014800008344FF40053AB620DA907232846CDE979
:101490000E39CDE910384FF0080AC5E90249CDE907
:1014A000127703F01DFC4FF6FF7209A92846CDE91B
:1014B0000AA6089409960C9403F032FC304601F019
:1014C000E1FF4FF6FF7209A92846CDE9097ACDE977
:1014D0000B6403F025FC4FF6FF7209A92846CDE9FD
:1014E000098ACDE90B9403F01BFC4FF40C730893AD
:1014F000089B0C934FF6FF7209A92846CDE9099A7B
:101500000B9603F00DFC40F26A51284603F026FCCE
:10151000342221460DEB020018F07EFC414D424B77
:10152000AC86C5E900340923C5E905361D2340F220
:101530000D1EC5E9073840F24313C5E909E3284603
:1015400040F2471340F21718C5E90B83C5E902447E
:101550002C6185F8364002F0DBFEFF21F022CDE958
:1015600012144FF4806905214FF4A073CDE90E24C5
:10157000CDE91491CDE916420DA922462846CDE9C0
:1015800010372A4D18930D94ADF864408DF86640DD
:1015900002F089FF264B2B601B6898472B68254D6E
:1015A000DB689847244BC5E90A47C5E90C4428463F
:1015B000C5E90034C5E9027401F0DAFF3146284676
:1015C00002F08EF8FFF710FA04F050F91B4A1C489D
:1015D000214604F077F91B4B1B4A186021461B4833
:1015E00004F070F91A4B186004F052F9FEE700BFDE
:1015F000003802400010024060190020000802403C
:10160000000C02401819002000300240005C00402D
:10161000A0860100901A0020005001405C1A0020B2
:10162000400100A0B41900200068014010190020FA
:10163000140000202019002000B00240A8B40108C6
:10164000351200081419002084B40108ED090008BF
:101650000C190020704770477FB5094B8DF8172093
:101660001B6802930DF117020123009201930A46B1
:101670000146044802F0F0FB07B05DF804FB00BF30
:101680000C000020601900207FB500238DF8173072
:10169000084B1B6802930A4601230DF117010091C4
:1016A00001930146044802F067FC9DF8170007B05B
:1016B0005DF804FB0C000020601900201FB5084CE9
:1016C00024680092CDE901340A4601230146054809
:1016D00002F052FC003818BF012004B010BD00BF5A
:1016E0000C0000206019002001F0CCBE08B50648AF
:1016F0000022042102F01EF9BDE808400248012240
:10170000042102F017B900BF0008024038B50B4DA4
:10171000044601220A484FF4005102F00BF900225E
:101720000421284602F006F92046FFF771FD2846FD
:101730000122BDE83840042102F0FCB80008024054
:10174000000C024038B50B4D044600220A484FF405
:10175000005102F0EFF800220421284602F0EAF8D6
:101760002046FFF755FD28460122BDE838400421F8
:1017700002F0E0B800080240000C0240F7B5144E39
:10178000144F05460C4630460022042102F0D2F8E0
:1017900000224FF40051384602F0CCF82846FFF7FB
:1017A00037FD0D4B0D481B68224601A903F096FD3D
:1017B000384601224FF40051019C02F0BBF830463C
:1017C0000122042102F0B6F8204603B0F0BD00BFAC
:1017D00000080240000C024010000020901A002077
:1017E00001F050BE0268034B9A4201D101F038BEAD
:1017F000704700BF001000407047000082B00E4BE1
:1018000000220092596C41F480415964596C01F4F2
:101810008041009100990192196C41F08051196446
:101820001B6C03F080530193019B0F216FF00100AB
:1018300002B001F04DBE00BF003802400268094B03
:101840009A4282B00BD100230193074B1A6B42F4EA
:1018500080521A631B6B03F480530193019B02B007
:10186000704700BF003002400038024007B50F4B00
:1018700002689A4216D10022A3F5F0430192196B37
:1018800041F4000119631B6B03F40003019305216C
:101890005A20019B01F01CFE5A2003B05DF804EBB6
:1018A00001F048BE03B05DF804FB00BF00B0024089
:1018B0002DE9F043044689B01422002103A818F052
:1018C000ABFA2268244B9A4243D1244C2448002589
:1018D0000095236B43F004032363236B03F004039D
:1018E0000093009B0195236B43F001032363236B5B
:1018F00003F001030193019B4FF012094FF40073B1
:101900004FF001080327042603A9CDE90339CDE9E7
:101910000587079601F028FF4FF48073114807965A
:1019200003A9CDE90339CDE9058701F01DFF029533
:10193000236C43F400032364236C03F40003029339
:10194000029B236A43F400032362236A23F4000307
:10195000236209B0BDE8F083005C0040003802401B
:101960000008024000000240F0B599B0044614227D
:10197000002107A818F050FA30220DEB02000021D8
:1019800018F04AFA22685E4B9A4240F0B78008236A
:101990000C93C0231093042312930CA84FF400332C
:1019A000159303F073F808B1FFF726FF554B56481F
:1019B000002400945A6C42F080625A645A6C02F01F
:1019C00080620092009A01941A6B42F020021A631E
:1019D0001A6B02F020020192019A02941A6B42F0F3
:1019E00001021A631A6B02F001020292029A039436
:1019F0001A6B42F002021A631A6B02F0020203929F
:101A0000039A04941A6B42F040021A631A6B02F0B4
:101A100040020492049A05941A6B42F004021A637D
:101A20001A6B02F004020592059A06941A6B42F0B2
:101A300008021A631B6B03F00803069302250E26A7
:101A4000069B0B964FF4806307A9CDE90735CDE9D6
:101A5000094501F089FE41F658032C480B9607A969
:101A6000CDE907350927CDE9094501F07DFE0323BE
:101A700027480B9707A9CDE90735CDE9094501F0BE
:101A800073FE4FF4706322480B9607A9CDE9073522
:101A9000CDE9094501F068FE4FF40C631D480B9633
:101AA00007A9CDE90735CDE9094501F05DFEC02361
:101AB00019480B9607A9CDE90735CDE9094501F08D
:101AC00053FE082315480B9607A9CDE90735CDE944
:101AD000094501F049FE4FF4A0530E480B9707A9A2
:101AE000CDE90735CDE9094501F03EFE58202246F3
:101AF000052101F0EDFC582001F01CFD19B0F0BDEE
:101B0000006801400038024000140240000002401A
:101B1000000402400018024000080240000C02408D
:101B200010B5044688B01422002103A818F074F9F7
:101B30002268144B9A4223D103F568430021019196
:101B40005A6C114842F480125A645A6C02F48012A2
:101B50000192019A02911A6B42F020021A631B6BE8
:101B600003F020030293029B4FF4607202230321CF
:101B7000CDE903230523CDE9061303A901F0F4FD04
:101B800008B010BD00500140001402402DE9F041A2
:101B900086B0002303932B4B1C68002C4FD14FF0D1
:101BA0000108C3F80080284B00949A6B274842EA4A
:101BB00008029A639B6B03EA08030093022703263B
:101BC0000C25009B01A94FF63F03CDE90137CDE974
:101BD000046501F0C9FD1E48059501A9CDE90187FD
:101BE000CDE9034601F0C0FD48F2331319480595CD
:101BF00001A9CDE90137CDE9034601F0B5FD4FF666
:101C000083731548059501A9CDE90137CDE9034650
:101C100001F0AAFD4CF203731048059501A9CDE926
:101C20000137CDE9034601F09FFD60230C4805957F
:101C300001A9CDE90137CDE9034601F095FD06B0D4
:101C4000BDE8F081E81A002000380240001402408C
:101C5000000802400018024000100240000C024040
:101C60000004024030B5014689B00022362001F060
:101C70002FFC362001F05EFC0025154B02951A6CF6
:101C8000144C42F010021A641B6C03F01003029310
:101C900001A903A8029B02F0DBFE02F0C9FE0E4B75
:101CA000236040F2E733E36040000C4BB0FBF3F0FD
:101CB0000138606020462561A56003F0FBFC20B977
:101CC000204603F0B1FB09B030BD0120FBE700BFA7
:101CD00000380240EC1A00200010004040420F0083
:101CE0007047FEE7FEE7FEE7FEE77047014803F0B6
:101CF000D9BB00BFEC1A0020014802F077BB00BF3F
:101D0000B4190020014801F061BC00BF2019002077
:101D10000120704708B518F025F8162303604FF02E
:101D2000FF3008BD08B518F01DF816230360FEE764
:101D300070B50D4614460E46731B9C4201DC2046CE
:101D400070BDAFF3008006F8010BF5E770B50D46E6
:101D500014460E46731B9C4201DC204670BD16F8EB
:101D6000010BAFF30080F5E74FF0FF3070474FF401
:101D700000534B60002070470120704700207047DF
:101D80000A4A116808B5034609B909491160106883
:101D9000694603448B4206D917F0E4FF0C23036025
:101DA0004FF0FF3008BD1360FCE700BF341B00207C
:101DB000E82B0120704710B50421044617F071FF8D
:101DC000204610BD012908B506D0022908D059B90E
:101DD00001F018F8006808BD01F014F84068FAE74F
:101DE00001F010F88068F6E70020F4E7004870473B
:101DF000E0B401080320704713B5002451B1036813
:101E000001948DF8034001AA9C680DF10303A047DB
:101E100002B010BD0846FBE74089704780897047D3
:101E20008088704783798088184480B27047C07971
:101E300000F07F007047C079C0097047704710B547
:101E40000821044617F02DFF204610BD704770474B
:101E500000F596730868496803C370477047704778
:101E60004160704770470000064BC0F848310023BE
:101E7000C0F84C3100F5A073C0F84401C0F83C3103
:101E8000704700BF291F0008012303727047704785
:101E9000704710B4C26841685410034601EB6200F9
:101EA000D20748BF0A599B685DF8044B48BFD35816
:101EB000184743682BB183682BB9C06800F0010054
:101EC0007047184670470120704710B50C21044632
:101ED00017F0E7FE204610BD10B51021044617F09C
:101EE000E0FE204610BD10B54FF4AC71044617F06B
:101EF000D8FE204610BD08B509F0DEFCBDE808405C
:101F00000AF07EB810B50446D0F83C0158B1036819
:101F1000DB68984738B1D4F83C0103689B68984760
:101F20000023C4F83C3110BD2DE9F14FD0E9545ADB
:101F30000746A86803681B6A9847B0F5E36F05D2A7
:101F4000454B464AA321464817F0DAFE6868036805
:101F50001B6A98470F2803D8424B404AA421F2E756
:101F6000E86803681B6A98470B2803D83E4B3B4A36
:101F7000A521E8E7DFF8F89009F09EFC09F0A2FC43
:101F8000D9F8000010B10368DB689847D9F8000061
:101F900010B103681B689847DFF8D880D8F80000B4
:101FA00010B103685B699847D7F8380110B103682E
:101FB0005B689847D8F8000010B103681B68984721
:101FC000D7F8380110B103689B689847E868036840
:101FD00000215B6A98474FF0000B244B03600446D6
:101FE000C0F804B080F808B0A868036859465B6A76
:101FF0009847064600F062FF6868036859465B6AC6
:1020000098473146054600F03FFFC9F80040C7F841
:102010003851C8F80060E5B12B1DCAF800303368AC
:10202000C5F808A03046DB68F56398472B6828465A
:102030001B689847214630460BF044F82368204639
:102040001B69984723685B69204601B0BDE8F04FE3
:1020500018472B46E1E700BF2CB50108BAB50108C7
:10206000BEB6010805B70108A8B70108B8B801084D
:10207000802901207C290120F8B5044617460E4628
:1020800009F03AFC104B0025C4E954760F4E1C6051
:10209000C4E952550E4B306823600E4BC4E95035ED
:1020A000036801219B68C4E94E559847284600F013
:1020B0005DFE336893F876200AB1D86C00B9986851
:1020C00010F0F3FE2046F8BD8C29012040290120A4
:1020D0006CB8010854B80108064BC0F84831002319
:1020E000C0F84C3100F5A073C0F84401C0F83C3191
:1020F000704700BF291F0008006A7047406A704798
:1021000070478B8880690A68DB0A50F82300104406
:10211000704710B5C2B1137BB3B1547BD27A24029D
:1021200004F4E0641443C26998B202EB8402138899
:102130008B4202D192F9020010BD05D8013880B25D
:1021400004320028F3D1F7E70020F5E710B5282185
:10215000044617F0A6FD204610BD000030B589B03A
:102160000446BDF850500695BDF84C5005959DF8B5
:10217000405004959DF83C5003959DF838500295C9
:102180009DF8345001959DF8305000950AF0D8FB29
:10219000064B2360119BA361129BE361159B236295
:1021A000169B6362204609B030BD00BFDCB8010851
:1021B0000020704781807047C1807047018170475F
:1021C000418170477047704770477047704710B43F
:1021D000C4880368121B84885B6D091B12B25DF80A
:1021E000044B09B218474FF6FF7383814FF0FF335A
:1021F00003621368C361106070477047704770478F
:102200007047704790F825201AB190F8242002B149
:102210001860704790F82C007047704770477047FF
:1022200010B54C21044617F03CFD204610BD10B5FA
:102230004FF4E361044617F034FD204610BD90F8DA
:10224000252012B103685B691847704708B590F8FC
:1022500032300BB1FFF7F3FF08BD10B50446806ABA
:1022600050B10368DB68984730B1A06A0368214623
:102270009B68BDE81040184710BD70B504460D4678
:1022800006F096FDA06C58B10368DB68984738B13A
:10229000A06C03682A4621469B68BDE87040184739
:1022A00070BD70B5036804461B6B154698472368DC
:1022B000294620465B6BBDE87040184770B5044660
:1022C0001D46BDF91060FFF7ECFF23682946204644
:1022D0009B6B9847236831462046DB6BBDE8704016
:1022E000184700001B4B73B51B88018F8B420646B5
:1022F0002BD9194B1B682BB9184B194A19486C215B
:1023000017F0FEFC13F81120174B1B6853F82250EE
:10231000164B186800F066FD2B68019001469B6A19
:10232000284698472B6801991B6C04462846984715
:102330002B6801995B6A14FB00F428469847E4B2C5
:10234000044486F8454002B070BD002380F8453053
:10235000F9E700BF94290120902901202CB9010838
:102360006EB90108A9B90108982901209C2901200A
:102370004FF4807181840D4901600D4981624FF6EF
:10238000FF7181854FF47F01002241634FF0FF31DF
:10239000C0E90122C0E90322C0E90522C0E9072201
:1023A000C0E9101202630287C2637047BCBE010815
:1023B00024B5010810B5044607F044FD044B236022
:1023C0000023A364012384F82430204610BD00BFFD
:1023D000F8B901082DE9F04F2DED108B044691B0AE
:1023E0000AF0C4FC22460026EB4BE66342F8403B71
:1023F000EA4B2666C4E910364FF48073A4F86430C3
:10240000FF2384F8663004F16C0308EE103A0EA93D
:102410004FF6FF73C4E91266C4E91466C4E9166690
:1024200018EE100AA6660792ADF8383006F020FDC7
:1024300004F19803184608EE903AFFF7BBFF04F149
:10244000E403184609EE103AFFF7B4FF04F5987359
:10245000184609EE903AFFF7ADFF04F5BE73184633
:102460000AEE103AFFF7A6FF04F5E47318460AEEE9
:10247000903AFFF79FFF04F5057318460BEE103AEC
:10248000FFF798FF04F5187318460BEE903AFFF724
:1024900091FF04F52B7318460CEE103AFFF78AFFF4
:1024A00004F53E7318460CEE903AFFF783FF04F5EF
:1024B000517318460DEE103AFFF77CFF04F5647374
:1024C00018460DEE903AFFF775FF04F5777318463E
:1024D0000EEE103AFFF76EFF04F5856318460EEE18
:1024E000903AFFF767FF04F2744318460FEE103A74
:1024F000FFF760FF04F5986318460FEE903AFFF778
:1025000059FF04F20C5318460293FFF753FF04F5EA
:10251000AB6318460393FFF74DFF04F2A45318462C
:102520000493FFF747FF04F5BE6318460593FFF7D2
:1025300041FF04F23C6304F5D169184604F5DA68FA
:102540000693FFF737FF4846FFF712FF4FF4A075D9
:102550004046FFF70DFF3246079800953146F023BD
:10256000FFF7ACFE4FF07F4318EE100AA3660EA9EA
:10257000ADF8386007F03FFBF023324618EE100A42
:1025800000953146FFF79AFE18EE100A314606F024
:1025900035FC18EE900A68223F2101254FF0020A0F
:1025A000FFF77FFE0EAA0DA918EE900AADF8345081
:1025B000ADF838A007F074FA14234FF0FF37A4F8F1
:1025C000D03018EE900AFFF78DFEC4E9357719EE8A
:1025D000100A68220A21FFF764FE0EAA0DA919EE5F
:1025E000100AADF83450ADF838A007F059FA1523A9
:1025F000A4F81C3119EE100AFFF774FEC4E94877FD
:1026000019EE900A68227421FFF74BFE0EAA0DA95D
:1026100019EE900AADF83450ADF838A007F040FA42
:102620001323A4F8683119EE900AFFF75BFEC4E9A2
:102630005B771AEE100A9D220A21FFF732FE0EAADE
:102640000DA91AEE100AADF83450ADF838A007F015
:1026500027FA1223A4F8B4311AEE100AFFF742FE4B
:10266000C4E96E771AEE900A9D223F21FFF719FE0A
:102670000EAA0DA91AEE900AADF83450ADF838A0A4
:1026800007F00EFA1123A4F800321AEE900AFFF7B1
:1026900029FEC4E981771BEE100A9D227421FFF701
:1026A00000FE0EAA0DA91BEE100AADF83450ADF8CD
:1026B00038A007F0F5F94FF01003A4F84C321BEEE8
:1026C000100AFFF70FFEC4E994771BEE900AD2229E
:1026D0000A21FFF7E6FD0EAA0DA91BEE900AADF840
:1026E0003450ADF838A007F0DBF90F23A4F8983286
:1026F0001BEE900AFFF7F6FDC4E9A7771CEE100A5F
:10270000D2223F21FFF7CDFD0EAA0DA91CEE100A23
:10271000ADF83450ADF838A007F0C2F90E23A4F894
:10272000E4321CEE100AFFF7DDFDC4E9BA771CEEB7
:10273000900AD2227421FFF7B4FD0EAA0DA91CEE57
:10274000900AADF83450ADF838A007F0A9F90D2380
:10275000A4F830331CEE900AFFF7C4FDC4E9CD772E
:102760001DEE100A40F207123F21FFF79AFD0EAA54
:102770000DA91DEE100AADF83450ADF838A007F0E1
:102780008FF90C23A4F87C331DEE100AFFF7AAFD85
:10279000C4E9E07704E000BF6CBA01084CBF01084F
:1027A0001DEE900A40F207127421FFF77AFD0EAA7F
:1027B0000DA91DEE900AADF83450ADF838A007F021
:1027C0006FF90B23A4F8C8331DEE900AFFF78AFDBA
:1027D000C4E9F3771EEE100A40F207120A21FFF750
:1027E00060FD4FF00A0B0EAA0DA91EEE100AADF8FF
:1027F0003450ADF838A007F053F91EEE100AA4F8D3
:1028000014B4FFF76FFD1EEE900AC4F81874C4F8F4
:102810001C746822A921FFF744FD0EAA0DA91EEE23
:10282000900AADF83450ADF838A007F039F9092313
:10283000A4F860341EEE900AFFF754FD1FEE100A54
:10284000C4F86474C4F868749D22A921FFF729FDB7
:102850000EAA0DA91FEE100AADF83450ADF838A03D
:1028600007F01EF90823A4F8AC341FEE100AFFF796
:1028700039FD1FEE900AC4F8B074C4F8B474D222C3
:10288000A921FFF70EFD0EAA0DA91FEE900AADF8C3
:102890003450ADF838A007F003F90723A4F8F83452
:1028A0001FEE900AFFF71EFD0298C4F8FC74C4F8EE
:1028B000007540F20712A921FFF7F3FC0EAA0DA93B
:1028C0000298ADF83450ADF838A007F0E9F80623C7
:1028D000A4F844350298FFF705FD0398C4F848753D
:1028E000C4F84C7559463322FFF7DBFC0EAA0DA93C
:1028F0000398ADF83450ADF838A007F0D1F80523AF
:10290000A4F890350398FFF7EDFC0498C4F894758B
:10291000C4F8987533223F21FFF7C3FC0EAA0DA916
:102920000498ADF83450ADF838A007F0B9F8042396
:10293000A4F8DC350498FFF7D5FC0598C4F8E075D9
:10294000C4F8E47533227421FFF7ABFC0EAA0DA97D
:102950000598ADF83450ADF838A007F0A1F84FF065
:102960000303A4F828360598FFF7BCFC0698C4F8C2
:102970002C76C4F830763322A921FFF792FC0EAAF8
:102980000DA90698ADF83450ADF838A04FF0180BEB
:1029900007F086F80698A4F874A6FFF7A3FCC4F81D
:1029A0007876C4F87C7603224846CDF800B0D5236B
:1029B0001021FFF783FC08AF4FF07F43C4F8B8360F
:1029C00049463846A4F8BC6606F080FD97E8070043
:1029D00004F2C46383E80700DFF840A1ADF83C507F
:1029E0000EA94846CDF838A007F000F81B22404653
:1029F000CDF800B0D5231021FFF760FC4FF07F43E6
:102A0000C4F8003741463846A4F8046706F05EFD76
:102A100097E8070004F20C7383E80700251D0EA950
:102A20004046CDF838A0ADF83C6006F0DFFF0799CE
:102A3000284605F037F818EE101A284605F032F847
:102A400018EE901A284605F02DF819EE101A2846AF
:102A500005F028F819EE901A284605F023F81AEE2A
:102A6000101A284605F01EF81AEE901A284605F0AE
:102A700019F81BEE101A284605F014F81BEE901AF0
:102A8000284605F00FF81CEE101A284605F00AF843
:102A90001CEE901A284605F005F81DEE101A28467F
:102AA00005F000F81DEE901A284604F0FBFF1EEE1C
:102AB000101A284604F0F6FF1EEE901A284604F07D
:102AC000F1FF1FEE101A284604F0ECFF1FEE901ADB
:102AD000284604F0E7FF0299284604F0E3FF039933
:102AE000284604F0DFFF0499284604F0DBFF05992F
:102AF000284604F0D7FF0699284604F0D3FF49463C
:102B0000284604F0CFFF2846414604F0CBFF20467C
:102B100011B0BDEC108BBDE8F08F00BF24B50108EB
:102B20007047000030B5154D2C78BFF35B8F14F063
:102B300001048DB01ED1284617F0B5F8D0B13F235F
:102B400007930F4B06930F4B0F491048089401222F
:102B5000CDE904430423CDE90132CDE909440A2338
:102B600003940094FFF7FAFA094817F0E7F82846AB
:102B700017F0A5F805480DB030BD00BF381B002088
:102B80005CCE010868CE0108DCCC01083C1B0020AB
:102B9000212B00087047000030B5164D2C78BFF38C
:102BA0005B8F14F001048DB020D1284617F07BF81C
:102BB000E0B13F230793104B0693104B1049114887
:102BC0000894CDE904430123CDE902330422032311
:102BD000CDE90032CDE9094414231922FFF7BEFAEA
:102BE000094817F0ABF8284617F069F805480DB00A
:102BF00030BD00BF641B002060CE01086CCE010810
:102C0000ECCC0108681B0020952B000870470000E1
:102C100030B5154D2C78BFF35B8F14F001048DB0E7
:102C20001ED1284617F03FF8D0B13F2307930F4B32
:102C300006930F4B0F49104808940122CDE9044335
:102C40000423CDE90132CDE90944282303940094FB
:102C5000FFF784FA094817F071F8284617F02FF8A3
:102C600005480DB030BD00BF901B002064CE0108A8
:102C700070CE01084CCE0108941B00200D2C0008DA
:102C800000207047002070470EB403B503AB00214D
:102C900053F8042B019309F085FC02B05DF804EBB6
:102CA00003B070470CB407B504AB53F8042B019381
:102CB00009F078FC03B05DF804EB02B07047000047
:102CC000436C10B5044673B3038F2BB9184B194AE4
:102CD000C021194817F014F8C38E00EB43035B8C36
:102CE0000BB30AF01EFF238F012B03D8134B144A9A
:102CF000C521EEE7E28E531C9BB2092B194688BF13
:102D0000A3F10A0104EB410140F63F10498C8142D6
:102D100009D10A2B04EB420228BF002304EB430332
:102D2000508C588451842046BDE810400AF0FCBD08
:102D300098BA0108A1BA01084CBB010896BB01086A
:102D4000A4BB01080AF0B7BD10B586B002AC84E898
:102D500006001A460AAB05930193099B009321468E
:102D6000089B08F0C2F806B010BD000038B518BBCB
:102D7000124B13481B681349B3B11A689C681A4474
:102D800002605A681A440A601C440F4B00221A80E1
:102D900000F038F8054600F033F80C4B1C600C4B83
:102DA0001D600C4B188007E00B4B03600B4B0B6056
:102DB0000B4B1C68002CE8D138BD00BFBC1B0020A9
:102DC000C01B0020C41B0020C81B0020902901202C
:102DD0009829012094290120D4CE010874CE01083D
:102DE0006CCF0108044B1B6853F82100034B1B6890
:102DF00003EB4000704700BFC41B0020C01B002035
:102E00001820704700487047CC1B002010B5FFF712
:102E1000C3FE044C2060FFF7FBFE6060FFF782FEFC
:102E2000A06010BDCC1B0020704710B54FF4AC71F2
:102E3000044616F036FF204610BD10B50446D0F803
:102E4000540100F012F82046BDE8104008F0E2BB43
:102E500010B50446FFF710F9014B2360204610BD62
:102E600080BC010800220260704770477047043838
:102E70007047704710B51021044616F012FF204627
:102E800010BDA0F10400F5E710B500228260044AED
:102E9000C16002F1080420320460426010BD00BF2E
:102EA000C4BC010870477047FFF7B8B910B54FF4BC
:102EB000E361044616F0F5FE204610BD10B5044649
:102EC000FFF788FA014B2360204610BDF4BC0108CF
:102ED000F02070474FF4A07070472920FEF732BCF5
:102EE0002820FEF72FBC08B5FEF700FCCA20FEF72D
:102EF00029FCC320FEF70AFC0820FEF707FC50203F
:102F0000FEF704FCCF20FEF71DFC0020FEF7FEFBC1
:102F1000C120FEF7FBFB3020FEF7F8FBED20FEF7AB
:102F200011FC6420FEF7F2FB0320FEF7EFFB1220FA
:102F3000FEF7ECFB8120FEF7E9FBE820FEF702FC40
:102F40008520FEF7E3FB0020FEF7E0FB7820FEF78C
:102F5000DDFBCB20FEF7F6FB3920FEF7D7FB2C205C
:102F6000FEF7D4FB0020FEF7D1FB3420FEF7CEFBAA
:102F70000220FEF7CBFBF720FEF7E4FB2020FEF754
:102F8000C5FBEA20FEF7DEFB0020FEF7BFFB0020BA
:102F9000FEF7BCFBB120FEF7D5FB0020FEF7B6FB29
:102FA0001B20FEF7B3FBB620FEF7CCFB0A20FEF792
:102FB000ADFBA220FEF7AAFBC020FEF7C3FB10204A
:102FC000FEF7A4FBC120FEF7BDFB1020FEF79EFB21
:102FD000C520FEF7B7FB4520FEF798FB1520FEF74E
:102FE00095FBC720FEF7AEFB9020FEF78FFB362047
:102FF000FEF7A8FBC820FEF789FBF220FEF7A2FB34
:103000000020FEF783FBB020FEF79CFBC220FEF7FA
:103010007DFBB620FEF796FB0A20FEF777FBA72084
:10302000FEF774FB2720FEF771FB0420FEF76EFB12
:103030002A20FEF787FB0020FEF768FB0020FEF742
:1030400065FB0020FEF762FBEF20FEF75FFB2B2005
:10305000FEF778FB0020FEF759FB0020FEF756FB39
:103060000120FEF753FB3F20FEF750FBF620FEF752
:1030700069FB0120FEF74AFB0020FEF747FB062014
:10308000FEF744FB2C20FEF75DFBC820FEF7A8FBF3
:103090002620FEF757FB0120FEF738FBE020FEF765
:1030A00051FB0F20FEF732FB2920FEF72FFB2420D7
:1030B000FEF72CFB0C20FEF729FB0E20FEF726FB6B
:1030C0000920FEF723FB4E20FEF720FB7820FEF7B9
:1030D0001DFB3C20FEF71AFB0920FEF717FB13200F
:1030E000FEF714FB0520FEF711FB1720FEF70EFB81
:1030F0001120FEF70BFB0020FEF708FBE120FEF796
:1031000021FB0020FEF702FB1620FEF7FFFA1B2032
:10311000FEF7FCFA0420FEF7F9FA1120FEF7F6FAA2
:103120000720FEF7F3FA3120FEF7F0FA3320FEF71E
:10313000EDFA4220FEF7EAFA0520FEF7E7FA0C2046
:10314000FEF7E4FA0A20FEF7E1FA2820FEF7DEFA9D
:103150002F20FEF7DBFA0F20FEF7D8FA1120FEF73A
:10316000F1FAC820FEF73CFB2920FEF7EBFABDE898
:1031700008402C20FEF7E6BA08B5FEF7B7FA03219F
:10318000D320FEF7FBFA80B208BD10B5C4B202220C
:1031900003212046FEF760FA0A20FEF7A5FA204632
:1031A00000220321FEF758FABDE810400220FEF786
:1031B0009BBA38B50446E4B2FEF74CFA002120462B
:1031C000FEF762FA012105462046FEF75DFA40EA65
:1031D000052080B238BD10B5C4B240212046FEF7AC
:1031E00053FA030607D54C212046FEF74DFA003866
:1031F00018BF012010BD01224B212046FEF72CFAFA
:10320000204600224B21FEF727FA0020F2E773B593
:103210000423C4B20E461546D7210DEB0302204607
:10322000FEF74CFA019B1BBA1A0DC3F30B23328035
:1032300020462B8001224B21FEF70EFA00224B2163
:103240002046FEF709FA02B070BD000010B50A4B27
:103250001A78904204460DD0597888420AD00AB1B3
:1032600041B901229C54FEF7F5F92046BDE8104013
:10327000FFF78BBF10BD00BFD81B002010B5C4B234
:1032800009212046FEF700FA40F00100C2B20921F0
:103290002046BDE81040FEF7DFB910B5C4B20921E1
:1032A0002046FEF7F1F9092100F0FE022046BDE8B4
:1032B0001040FEF7D1B938B5C4B20D4620460A21F8
:1032C000FEF7E2F92843C2B20A212046BDE83840A1
:1032D000FEF7C2B907B50190FEF7BDF901981F21AD
:1032E000FFF7E9FF019803B05DF804EBFFF7C6BFF5
:1032F00038B5C4B20D4620460A21FEF7C5F920EACA
:103300000500C2B20A212046BDE83840FEF7A4B944
:1033100010B50446FFF7C1FF20461F21BDE810404D
:10332000FFF7E6BF10B5C0B20C460B21FEF7ACF9B3
:10333000204010BD1F21FFF7F5BF0A46C0B20B2188
:10334000FEF78AB91F21FFF7F8BF38B5C4B20D46A2
:1033500020461721FEF798F920EA0500C2B217218E
:103360002046BDE83840FEF777B970B5C4B20646CE
:1033700004212046FEF788F9042100F0FB020546EF
:103380002046FEF769F93046F021FFF7DEFF05F031
:10339000F80220460421FEF75FF949222021204649
:1033A000FEF75AF90220FEF79FF92046012221215B
:1033B000FEF752F920469A224121FEF74DF92046A8
:1033C00001224A21FEF748F9204601224B21FEF74F
:1033D00043F9204600224B21FEF73EF92046012208
:1033E0005621FEF739F9204601225821FEF734F91B
:1033F000204601224021FEF72FF92046FF220B2113
:10340000FEF72AF9BDE870400220FEF76DB9000012
:10341000054BD3F8882042F47002C3F888204FF09F
:1034200000629A60704700BF00ED00E008B50B4BEA
:103430001A6842F400721A601A6842F480621A60D4
:103440001A6842F480721A60032000F02FF80020FE
:10345000FEF708FCFEF7D2F9002008BD003C024050
:10346000034A044B11681B780B441360704700BF7C
:10347000DC1B002078000020014B1868704700BF5B
:10348000DC1B002038B50446FFF7F6FF631C1CBFA9
:10349000054B1B78054618BFE418FFF7EDFF431BEB
:1034A000A342FAD338BD00BF780000200749CA689C
:1034B00022F4E0620302120403F4E063120C1343EB
:1034C00043F0BF6343F40033CB60704700ED00E08E
:1034D000164B30B5DC68C4F30224C4F10705231D84
:1034E000042D28BF0425062B4FF0FF338CBF033C6F
:1034F000002403FA05F521EA0501A34022EA0302AC
:10350000A140002841EA0203ACBF00F16040084A34
:103510004FEA0313B8BF00F00F00DBB2AABF00F5FB
:103520006140135480F8003330BD00BF00ED00E06F
:1035300014ED00E0002808DB4209012300F01F0021
:1035400003FA00F0014B43F82200704700E100E06D
:1035500010B5044650B1437903F0FF0213B902716C
:10356000FEF76CF901236371002010BD0120FCE718
:1035700010B5044630B390F8393003F0FF021BB9A0
:1035800080F83820FEF772F922686168022384F817
:103590003930136823F440330B431360536BA16835
:1035A00023F007030B435363136CE16823F47F5349
:1035B00023F03F030B43136400200123E06384F8EE
:1035C000393010BD0120FCE770477047036870B5C3
:1035D0005E681D68F207044614D5E90512D51A681D
:1035E00022F480721A60C26B42F00102C2630122AF
:1035F0009A60042380F83930002380F8383043691A
:1036000003B19847B20616D5AB0414D523681A68DF
:1036100022F400521A6020229A60E36B43F0020306
:10362000E363042384F83930002384F83830636975
:103630000BB120469847300716D5290514D52368C5
:103640001A6822F400621A6008229A60E36B43F061
:103650000403E363042384F83930002384F838300A
:1036600063690BB12046984772070BD56B0509D5E6
:1036700023681A6822F480621A6004229A60204645
:10368000FFF7A2FFB00714D5A90512D523681A6861
:1036900022F400721A6002229A60E36BE363012352
:1036A00084F83930002384F8383023690BB1204680
:1036B0009847F20613D5EB0411D523681A6822F453
:1036C00080521A6010229A60E36BE363012384F84E
:1036D0003930002384F838302046FFF776FF70BD7C
:1036E000F0B590F83830012B4FF002032BD00122B7
:1036F00080F8393080F8382000EB0113D3E9074215
:103700005D6A184F44EA0242093C012C9CBF05F057
:103710007F431A434FEA0116036888BF42EA0562F5
:1037200099B9596A39400A435A62012C82699A61EF
:1037300003D8426A22F07F429A62012380F839302E
:10374000002380F838301846F0BDD96939400A4363
:10375000DA618219012C92691A619CBF25F07F45BC
:103760001D62EAE7F0FFFC002DE9F74FDFF8C0919A
:103770006D4A00230D6801249C4004EA050CAC430B
:1037800040F0B9804D6805F003044FEA4308032672
:10379000671E06FA08F6012F6FEA060634D8876816
:1037A00007EA060ECF6807FA08F747EA0E078760B0
:1037B000476827EA0C0EC5F300179F4047EA0E073B
:1037C0004760C76807EA060E8F6807FA08F747EAF6
:1037D0000E07022CC76019D14FEAD30A00EB8A0A00
:1037E00003F0070BDAF820704FEA8B0B4FF00F0E47
:1037F0000EFA0BFE27EA0E0E0F6907FA0BF747EADF
:103800000E07CAF8207001E0032CDAD1076804FA29
:1038100008F43E40264315F4403F06606BD04FF05D
:10382000000ACDF804A0D9F84460404C46F4804624
:10383000C9F84460D9F8446006F480460196019EB8
:1038400023F0030606F1804606F59C3603F0030ECE
:10385000D6F808804FEA8E0E0F2707FA0EF7A0421F
:1038600028EA07074ED004F58064A0424CD004F546
:103870008064A0424AD004F58064A04248D004F598
:103880008064A04246D004F58064A04244D004F590
:103890008064A04242D004F58064A04240D004F588
:1038A0008064A0423ED004F58064A0420CBF09248D
:1038B0000A2404FA0EF43C43B46094686FEA0C06E0
:1038C000EF0254BF34404CEA04049460D468AF0261
:1038D00054BF34404CEA0404D4605468AF0354BF6E
:1038E00034404CEA040454601468ED0354BF34407F
:1038F0004CEA040414600133102B7FF43BAF03B097
:10390000BDE8F08F5446D4E70124D2E70224D0E783
:103910000324CEE70424CCE70524CAE70624C8E73D
:103920000724C6E70824C4E7003C01400000024029
:10393000003802400AB1816170470904FBE743691E
:1039400001EA030221EA030141EA02418161704771
:1039500001684B6913F480634FF0000210D06FF4DC
:1039600080634B612023026380F83D3080F83E2065
:10397000036C80F83C2043F004030364012070478B
:10398000184670472DE9F84606460F4691461D46F3
:103990004FEA114A3368BAF1010F0CBF5C699C69A8
:1039A00027EA0404A4B2B4FA84F46409A14501D05E
:1039B000002017E06A1CEED0FFF75EFD089BC01ADE
:1039C000A84201D8002DE5D100232022336386F8D8
:1039D0003D2086F83E30326C86F83C3042F02002C2
:1039E00032640120BDE8F8862DE9F04104460F4617
:1039F000164698462568686927EA000080B2B8B183
:103A00006B695A0516D52B6843F400732B606FF46D
:103A100080636B6120220023236384F83D2084F8B7
:103A20003E30226C42F00402226484F83C300120D3
:103A3000BDE8F081731CDED0FFF71EFDA0EB08008F
:103A4000B04201D8002ED5D100232022236384F870
:103A50003D2084F83E30226C42F02002E4E770B54D
:103A600004460D46164621684B6913F0400301D009
:103A7000002010E04A69D2060ED56FF010024A61AC
:103A80002022236384F83D2084F83E30226C226497
:103A900084F83C30012070BDFFF7EEFC801BA8428B
:103AA00001D8002DDFD100232022236384F83D209C
:103AB00084F83E30226C42F02002E8E770B50446FC
:103AC0000D46164623685B695B0701D5002070BD73
:103AD0002046FFF73DFFA8B96A1CF3D0FFF7CCFCE6
:103AE000801BA84201D8002DECD1002320222363A3
:103AF00084F83D2084F83E30226C84F83C3042F05B
:103B0000200222640120E2E770B504460D46164605
:103B100023685B691B0601D5002070BD2046FFF7B6
:103B200017FFA8B96A1CF3D0FFF7A6FC801BA842B8
:103B300001D8002DECD100232022236384F83D20FE
:103B400084F83E30226C84F83C3042F0200222643B
:103B50000120E2E72DE9F0431546026885B0DDE972
:103B60000C789946136843F4807313600E463B4605
:103B7000CDF8008000224FF001110446FFF702FF4C
:103B8000236838B11B68DB0502D54FF4007323644A
:103B900003200AE006F0FE061E61194943463A4634
:103BA0002046FFF721FF18B1012005B0BDE8F083E2
:103BB000236803905A6903929B69039342463946EE
:103BC0002046039BFFF7A0FF40B1236C042B01BFED
:103BD0002268136843F400731360E5E7B9F1010F3D
:103BE000236802D1EDB21D61DFE72A0A1A61394666
:103BF00042462046FFF788FF0028E6D12368F1E718
:103C0000020001002DE9FF479A46036815461A682D
:103C100042F480621A601A68DDE90C7842F480721E
:103C20001A600E463B46CDF8008000224FF001118D
:103C30000446FFF7A7FE236848B11B68DB0502D5E1
:103C40004FF400732364032004B0BDE8F0875FFAEB
:103C500086F906F0FE061E612A4943463A4620468A
:103C6000FFF7C2FE08B10120EEE7236803905A690E
:103C700003929B690393424639462046039BFFF714
:103C800043FF40B1236C042B01BF2268136843F447
:103C900000731360E7E7BAF1010F23681AD1EDB2A0
:103CA0001D61424639462046FFF72EFF0028E9D124
:103CB0002268136843F4807313604FF001110246C9
:103CC000CDF800803B462046FFF75CFE226860B1DD
:103CD0001368B3E72A0A1A61394642462046FFF7BD
:103CE00013FF0028CED12368D9E749F001031361FF
:103CF000044943463A462046FFF776FE003818BF8F
:103D00000120A1E70200010070B5044608B90120B6
:103D100070BD90F83D3003F0FF021BB980F83C20E5
:103D2000FDF7C6FD242384F83D3023681A6822F08D
:103D300001021A601A6842F400421A601A6822F4FA
:103D400000421A6000F074FE3F4B65689D4294BFCC
:103D50003E4B3F4B98428CBF00230123002BD6D112
:103D60002268394E53683B49B0FBF1F123F03F0321
:103D70000B43B542536088BF4FF49676136A88BFF1
:103D8000714323F03F0384BF4FF47A76B1FBF6F121
:103D9000013119431162D169431E2B4821F44F416F
:103DA000854221F0FF0132D86D0040F6FC70B3FB74
:103DB000F5F30133034242D0C3F30B030B43D3614A
:103DC000D4E907301168034321F0C0010B431360AD
:103DD0009168D4E9030321F40341034321F0FF0177
:103DE0000B439360D4E90530D168034321F0FF0110
:103DF0000B43D360136843F00103136000202023BA
:103E0000206484F83D30206384F83E0080E7A06899
:103E100050B905EB4505B3FBF5F30133C3F30B03D1
:103E20007BB143F40043C9E719204543B3FBF5F3E5
:103E30000133C3F30B0323B143F44043BEE7042330
:103E4000BCE70123BAE700BFA08601007F841E0003
:103E5000FF083D0040420F002DE9F7430446994614
:103E60000C9E0F469046FFF707FB94F83D30202B41
:103E7000054603D0022003B0BDE8F08300903C4922
:103E8000192301222046FFF77DFD0028F2D194F886
:103E90003C30012BEED02068012384F83C300368CD
:103EA000D9075EBF036843F001030360036823F48E
:103EB00000630360212384F83D30402384F83E30C2
:103EC000002323640A9B6362BDF82C306385638DF5
:103ED0002385284BE362CDE900654B4642463946CF
:103EE0002046FFF737FE00282AD00120C3E7FFF75E
:103EF0000BFE40B1236C042B01BF2268136843F40E
:103F000000731360F1E7636A27681A4612F8011B11
:103F100039616262628D218D013A92B262857A695D
:103F2000481E80B2520720850AD548B15A783A61B6
:103F300002336362638D013B02399BB22185638545
:103F4000238D2A4631462046002BD0D1FFF7B6FDFF
:103F50000028CFD12268136843F400731360202334
:103F600084F83D3084F83C0084F83E0083E700BFCD
:103F7000020010000000FFFF2DE9F043044687B067
:103F80009946109F0D469046FFF776FA94F83D301B
:103F9000202B064604D00225284607B0BDE8F08352
:103FA00000907649192301222046FFF7EBFC0028F8
:103FB000F1D194F83C30012BEDD02068012384F836
:103FC0003C300368DB075EBF036843F00103036016
:103FD000036823F400630360222384F83D30402308
:103FE00084F83E30002323640E9B6362BDF83C30AE
:103FF0006385638D2385624BE3622946CDE90076B4
:104000004B4642462046FFF7FDFD054608B1012517
:10401000C2E7228D2368B2B902905A6902929A6966
:104020000292029A1A6842F400721A60DFF8548110
:10403000238D002B2CD1202284F83D2084F83C30A5
:1040400084F83E30A8E7012A0AD11A6822F4806277
:104050001A6003905A6903929A690392039AE1E7FE
:10406000022A0ED11A6822F480621A601A6842F499
:1040700000621A6004905A6904929B690493049B3D
:10408000D4E705905A6905929B690593059BCDE796
:10409000032B56D8012B15D1324639462046FFF75F
:1040A000DEFC0028B3D123681A69636A1A70636A58
:1040B00001336362238D013B2385638D013B9BB2FA
:1040C0006385B5E7022B00963B464FF00002414660
:1040D000204619D1FFF756FC002898D123681A68AA
:1040E00042F400721A601A69636A1A70626A531C99
:1040F0006362238D013B2385638D013B9BB2638506
:1041000023681B695370D2E7FFF73CFC00287FF45B
:104110007EAF23681A6822F480621A601A69636AA3
:104120001A70636A009601336362238D013B238515
:10413000638D013B9BB2638502463B464146204668
:10414000C8E7324639462046FFF789FC00287FF44D
:104150005EAF23681A69636A1A70626A531C6362ED
:10416000238D013B2385638D013B9BB263852368CF
:10417000596949077FF55CAFC3E700BF0200100033
:104180000000FFFF0400010010B590F83D30202B27
:10419000DCB216D1242380F83D3003681A6822F07F
:1041A00001021A605A6A22F010025A625A6A1143D6
:1041B00059621A6842F001021A6080F83D400020FE
:1041C00010BD0220FCE730B590F83D30202BDCB26A
:1041D00016D10268242380F83D30136823F00103D0
:1041E0001360556A4FF6F0732B400B439BB253623A
:1041F000136843F00103136080F83D40002030BD98
:104200000220FCE70068D1F800C0D2018432831894
:104210002DE9F043C6685D684C68D1F8189005F444
:1042200070455D60C5680CF10107C5F30B45C6F329
:104230000B463D44264445EA06455D60C568CE68A8
:10424000C5F30A052E449D6805F470459D60C76856
:104250008D68C7F30A0701353D4445EA06459D6070
:104260001D690E6925F007051D614FF0000E1E61E6
:104270009D6991F8327091F83180C3F818E091F897
:10428000305045EA096545EA082545EA07459D613C
:104290005D6925F0FF055D614D695D61DD6925F4AE
:1042A000E06525F00705DD61D1E907573D43DD6194
:1042B0009D6A4D6AC3F828E09D621EB3012E23D08B
:1042C000B51E022D22D9072E0CBF02250125DE6A5C
:1042D00006F0E026DE62A4EB0C048E6AC96A6C4329
:1042E0006E43033444EA0644DC621C6B24F4FF642E
:1042F00024F007041C631963835843F001038350BF
:10430000BDE8F0830425E2E70325E0E70225DEE7C8
:1043100038B50446002863D090F8A13003F0FF02BE
:104320001BB980F8A020FDF71FFB022384F8A13001
:1043300023689A6922F070429A61D4E9012002430D
:10434000E06899690243206902430A439A619A68C6
:10435000244960690A409A609A6842EA0042A0696A
:1043600002439A60DA68E0690A40DA60DA6842EA91
:104370000042206A0243DA601A69606A0A401A61E0
:104380001A6942EA0042A06A02431A615A6911405E
:1043900059615A69E16A42EA0142216B0A435A6152
:1043A000D96A94F8360094F8355001F07F41D9620B
:1043B000D96A94F834200A4342EA052242EA0042CC
:1043C000DA625A6B42F006025A639A6942F00102BD
:1043D0009A6100200123C4F8A40084F8A13038BDFC
:1043E0000120FCE700F800F070477047036870B5E3
:1043F0009E6B5D6B7207044614D5690712D55A6B24
:1044000022F004025A630422DA63D0F8A43043F0A5
:104410000103C0F8A430002380F8A12080F8A03068
:10442000FFF7E2FFB20716D5AB0714D523685A6B26
:1044300022F002025A630222DA63D4F8A430134352
:10444000C4F8A430042384F8A130002384F8A030F9
:104450002046FFF7C9FFF00710D5E9070ED52368FE
:104460005A6B22F001025A630122DA63002384F8B6
:10447000A12084F8A0302046FCF798FE320711D521
:104480002B070FD523685A6B22F008025A630822C3
:10449000DA63012384F8A130002384F8A030204699
:1044A000FFF7A3FF70BD2DE9F04190F8A030012B7C
:1044B00006460F4694464FF002001FD04FF0010809
:1044C00086F8A08086F8A10034240D4604FB02641F
:1044D0000FCD38340FC40FCD0FC40FCD0FC42B68D0
:1044E0002360304662463946FFF78CFE3368002071
:1044F000C3F8248086F8A18086F8A000BDE8F0818A
:1045000090F8A030012B4FF0020312D080F8A130B8
:1045100003685A6B22F001025A63074A11645A6B0E
:1045200042F001025A63012380F8A130002380F891
:10453000A0301846704700BF006801402DE9F341E4
:10454000044640B30368DD0710D4236898075ED49F
:1045500023681A0700F1A08023685B0700F1C08080
:10456000A069002840F0288100202BE08F4B9A683A
:1045700002F00C02042A07D09A6802F00C02082A02
:104580000BD15A68510208D5884B1B689A03DCD5B9
:104590006368002BD9D1012014E06268B2F5803F36
:1045A00013D11A6842F480321A60FEF765FF7F4E1D
:1045B000054633689B03C8D4FEF75EFF401B6428A2
:1045C000F7D9032002B0BDE8F081784DB2F5A02FF5
:1045D0002B6807D143F480232B602B6843F480338E
:1045E0002B60E2E723F480332B602B6823F48023D5
:1045F0002B60002AD9D1FEF73FFF06462B689F03A8
:10460000A3D5FEF739FF801B6428F7D9D9E7674B9C
:104610009A6812F00C0F07D09A6802F00C02082A70
:1046200011D15B685E020ED4604A13689D0702D503
:10463000E368012BAFD11368216923F0F80343EA43
:10464000C103136084E7E268594BB2B101221A60DA
:10465000FEF712FF554D06462B68980707D52B68C5
:10466000226923F0F80343EAC2032B6070E7FEF7E8
:1046700003FF801B0228EFD9A3E71A60FEF7FCFEB8
:104680004A4E0546336899077FF562AFFEF7F4FEA0
:10469000401B0228F6D994E76269454B82B101229A
:1046A000C3F8802EFEF7E8FE404E0546736F9F0765
:1046B0003FF552AFFEF7E0FE401B0228F6D980E737
:1046C000C3F8802EFEF7D8FE384E0546736F980764
:1046D0007FF542AFFEF7D0FE401B0228F6D970E707
:1046E000324B1A6C12F0805228D101921A6C42F0AF
:1046F00080521A641B6C03F080530193019B0127C5
:104700002C4D2B68D9051BD5A368284D012B27D12B
:104710002B6F43F001032B67FEF7AEFE234E0546D9
:1047200041F28838336F9B0739D5002F3FF418AF1B
:104730001E4A136C23F08053136411E70027DFE750
:104740002B6843F480732B60FEF796FE06462B68B9
:10475000DA05D9D4FEF790FE801B0228F7D930E79E
:10476000052B04D12B6F43F004032B67D0E72A6F8E
:1047700022F001022A672A6F22F004022A67002B26
:10478000CAD1FEF779FE41F2883806462B6F9807AA
:10479000CBD5FEF771FE801B4045F7D911E7FEF738
:1047A0006BFE401B4045BDD90BE700BF00380240FF
:1047B0000000474200700040364DAB6803F00C0328
:1047C000082B3DD0344B002202281A662BD1FEF76D
:1047D00053FE06462B6899011FD4D4E907321343D0
:1047E000626A43EA8213E26A43EA0263A26A5208F7
:1047F000013A43EA02436B60274B264D01221A66B9
:10480000FEF73AFE04462B689A013FF5ADAEFEF77F
:1048100033FE001B0228F6D9D3E6FEF72DFE801BDF
:104820000228D7D9CDE6FEF727FE04462B689B0168
:104830007FF59AAEFEF720FE001B0228F6D9C0E6EF
:1048400001283FF4BFAE6B68E26903F48001914236
:104850007FF4A1AE216A03F03F028A427FF49BAE4F
:10486000616A47F6C0721A40B2EB811F7FF493AEC3
:10487000A26A520803F44031013AB1EB024F7FF4CF
:104880008AAEE26A03F07063B3EB026F3FF46CAE82
:1048900081E600BF0038024000004742134908B5D6
:1048A0008B6803F00C03042B1CD0082B1CD14A6826
:1048B0004B68496813F4800314BF0D480D48C1F3D9
:1048C000881118BF002302F03F02A1FB0001FBF793
:1048D000DFFC064B5B68C3F3014301335B00B0FBB5
:1048E000F3F008BD0248FCE70248FAE7003802404E
:1048F00000127A000024F4002DE9F0410D46044630
:1049000010B90120BDE8F081444B1A6802F00F0293
:104910008A4228D3226897072DD4D00741D43F4B31
:104920001A6802F00F02AA4266D8226851076CD4B6
:10493000130707D53A4A2169936823F4604343EA91
:10494000C1039360FFF7AAFF354B364A9B68C3F358
:104950000313D35CD840344B1860344B1868FDF710
:1049600081F90020CEE7CAB21A701B6803F00F036A
:104970008B42C6D1CEE72A4B12F0040F1EBF9968B6
:1049800041F4E0519960160742BF996841F46041D3
:1049900099602349A0688B6823F0F00303438B6080
:1049A000BBE762681E4B012A1CD11B6813F4003F51
:1049B000A7D01B4EB36823F003031343B360FEF785
:1049C0005BFD41F288380746B368626803F00C0368
:1049D000B3EB820FA3D0FEF74FFDC01B4045F3D9C8
:1049E00003208FE7911E01291B6802D813F0007F76
:1049F000DEE713F0020FDBE7EAB21A701B6803F080
:104A00000F03AB427FF47DAF8FE70549E0688B6809
:104A100023F4E05303438B608AE700BF003C02406D
:104A20000038024020BD0108740000207C000020F6
:104A3000044B054A9B68C3F38223D35C034A106886
:104A4000D84070470038024030BD01087400002093
:104A50000F2303600B4B9A6802F0030242609A68CE
:104A600002F0F00282609A6802F4E052C2609B6831
:104A7000DB0803F4E0530361034B1B6803F00F03EF
:104A80000B60704700380240003C0240036813F09E
:104A9000430FF7B5044640F08C80236813F00C0FE9
:104AA00045D08B4B8B4D00221A67FEF7E5FC06467E
:104AB0002B689F0000F1CF8021684E0715D5D4E9FF
:104AC0000403D5F888201B0602F0E04243EA801375
:104AD0001343C5F88830D5F88C30226A23F4F85394
:104AE000013A43EA0223C5F88C300D0714D5794A00
:104AF000A369D2F8881020691B0701F0706143EAAE
:104B000080130B43C2F88830D2F88C30616A23F4EA
:104B100040330B43C2F88C306D4B6E4E01221A6746
:104B2000FEF7AAFC05463368980040F19B80236895
:104B30009B0633D500230193664B674D1A6C42F0F8
:104B400080521A641B6C03F080530193019B2B6805
:104B500043F480732B60FEF78FFC06462B68D90563
:104B600040F187805B4D2B6F13F4407340F08880D9
:104B7000A36A03F44072B2F5407F564A40F0A48025
:104B8000916823F0704021F4F81120F44070014343
:104B90009160116FC3F30B030B431367206810F090
:104BA00010001FBF4D4B94F82C20C3F8E0210020CB
:104BB0004FE0474B474E00229A66FEF75DFC0546E4
:104BC00033681F013FD42168CD0741BFD4E90123D9
:104BD0001B0743EA8213C6F88430880715D53D4A7F
:104BE000E368D2F8840065681B0600F0E04043EA01
:104BF00085130343C2F88430D2F88C00E36920F0B7
:104C00001F00013B0343C2F88C3049060AD5E36814
:104C100062681B0643EA8213A26843EA02732D4AC4
:104C2000C2F884302A4B2B4E01229A66FEF724FCF0
:104C3000054633681A013FF530AFFEF71DFC401BF7
:104C40000228F6D904E0FEF717FC401B0228B7D96A
:104C5000032003B0F0BDFEF70FFC801B02287FF697
:104C600027AFF5E7FEF708FC401B02287FF65BAF95
:104C7000EEE7FEF701FC801B02287FF66FAFE7E747
:104C8000A26A02F4407293423FF472AF2B6F104A53
:104C90000121C2F8401E23F440730021C2F8401ED7
:104CA0002B672B6FDA077FF563AFFEF7E5FB41F269
:104CB000883706462B6F9B073FF55AAFFEF7DCFBA4
:104CC000801BB842F6D9C3E7916821F4F8115FE779
:104CD0000000474200380240007000400010474288
:104CE00038B50D460446C8B190F82C3003F0FF02E9
:104CF0001BB980F82D20FCF749FF022384F82C30E3
:104D0000211D206800F004FD62682068294600F03B
:104D10003AFD012384F82C30002038BD0120FCE747
:104D200070B590F82C30022B05460E46D8B212D042
:104D300000F0FB04012C0FD1022385F82C302868E9
:104D400000F057FD3368022B06BF052385F82C3091
:104D500085F82C40002070BD0120FCE738B590F8A4
:104D60002C30022B0446D8B20DD094F82C30012BF5
:104D7000DDB209D10223206884F82C3000F05FFDF9
:104D800084F82C50002038BD0120FCE72DE9F341C8
:104D90001D46174688460646FEF76EFB3D442C1A14
:104DA000FEF76AFB224B1B68C3F3CB330546634314
:104DB00032680193936838EA030301D000202DE0A4
:104DC0007B1CF7D0FEF758FB401BA04229D3336869
:104DD0005A6822F0E0025A607268B2F5827F0AD106
:104DE000B268B2F5004F02D0B2F5806F03D11A68F5
:104DF00022F040021A60B26AB2F5005F07D11A6869
:104E000022F400521A601A6842F400521A60012318
:104E100086F85130002386F85030032002B0BDE8F8
:104E2000F081019B002B019B08BF0024013BBFE7E1
:104E30007400002038B513464268B2F5827F0446FC
:104E40001FD18268B2F5004F02D0B2F5806F07D152
:104E500025682868B2F5806F20F04000286007D0F0
:104E60000A4680212046FFF791FF20B9002038BD77
:104E70000A460121F6E7636D43F0200363650320D2
:104E8000F5E70A460121EEE737B51346124A1568E1
:104E9000124AB5FBF2F54FF47A7255434268019518
:104EA000B2F5827F04460BD10A468021FFF76EFFE0
:104EB00078B1636D43F020036365032003B030BD18
:104EC000019B33B1019B013B019323689B681B0647
:104ED000F6D40020F2E700BF7400002000366E0117
:104EE00010B50446002855D0436A002B4ED14268C5
:104EF000B2F5827F00D0C3610023A36294F85130E1
:104F000003F0FF0223B984F850202046FCF708FE86
:104F10002168A068A269022384F851300B6823F04D
:104F200040030B60636800F4044003F4827303439E
:104F3000E06800F400600343206900F002000343CE
:104F4000606900F00100034302F400700343E0696C
:104F500000F038000343206A00F080000343A06A99
:104F600000F4005003430B60636A120C03F010035B
:104F700002F004021A434A60CB6923F40063CB6158
:104F800000200123606584F8513010BD0023C0E982
:104F90000433B1E70120F8E72DE9F3411E4690F80C
:104FA0005030012B04460D46174600F0A180012326
:104FB00080F85030FEF760FA94F85130012B8046AB
:104FC000D8B240F09380002D5ED0002F5CD0A26854
:104FD0002563032384F85130B2F5004F4FF00003EE
:104FE0006365C4E91033E786A363A387E387A786D5
:104FF000236807D11A6822F040021A601A6842F446
:1050000080421A601A68E16852065EBF1A6842F070
:1050100040021A60B1F5006F626841D10AB1012FF8
:1050200007D135F8022BDA602563E38E013B9BB292
:10503000E386E38E9BB2A3B9424631462046FFF792
:1050400023FF00284FD1A36833B901932368DA689E
:1050500001929B680193019B606D003818BF01208D
:1050600012E022689368980705D5236B33F8021B7A
:10507000D1602363D9E7FEF7FFF9A0EB0800B04247
:105080000BD3711CD5D00320012384F851300023A9
:1050900084F8503002B0BDE8F081002EC9D1F2E7AB
:1050A0000AB1012F08D12A781A73236B01332363C5
:1050B000E38E013B9BB2E386E38E9BB2002BBBD019
:1050C00023689A68920702D5226B1278ECE7FEF704
:1050D000D3F9A0EB0800B04202D3731CECD0D2E7A6
:1050E000002EE9D1CFE720236365ACE70220CBE7B0
:1050F0000220CFE72DE9F7431E4690F850300A9F73
:10510000012B04460D46914600F0E680012380F80D
:105110005030FEF7B1F994F851306268012B8046A7
:10512000D9B20AD0B2F5827F40F0D480A368002BB8
:1051300040F0D080042940F0CD80002D40D0B9F15E
:10514000000F3DD0002E3BD094F85130C4F8389079
:10515000042B1CBF052384F8513000236365C4E988
:1051600010332368E687E6861968A687490658BF84
:105170001968256358BF41F04001A68658BF1960E1
:10518000E168B1F5006F52D10AB1012E07D135F8AF
:10519000022BDA60E38E2563013B9BB2E386012597
:1051A000E38E9BB273B9E38F9BB25BB9424639463B
:1051B0002046FFF769FE002800F081802023636508
:1051C00001202BE021688B689E070DD5E38E9BB2F2
:1051D00053B14DB1236B33F8022BCA602363E38EC6
:1051E000013B9BB2E38600258A6812F001020CD0D5
:1051F000E38F9BB24BB1A36BC96823F8021BA36377
:10520000E38F013B9BB2E3871546FEF735F9A0EB30
:105210000800B842C4D3781CC2D00320012384F80C
:105220005130002384F8503003B0BDE8F0830AB158
:10523000012E08D12A781A73236B01332363E38E7E
:10524000013B9BB2E38601252DE022689368990714
:105250000ED5E38E9BB25BB155B1236B1B781373F4
:10526000236B01332363E38E013B9BB2E38600256E
:105270002268916811F001010DD0E38F9BB253B108
:10528000A36BD2681A70A36B0133A363E38F013B56
:105290009BB2E3870D46FEF7EFF8A0EB0800B8429B
:1052A0000AD37B1CB9D1E38E9BB2002BCDD1E38F07
:1052B0009BB2002BC9D179E7002FF4D1ADE7A368E9
:1052C000002BABD123680190DA6801929B680193AF
:1052D000019BA3E70220A1E70220A5E72DE9F74300
:1052E0001D464368B3F5827F0446894617460CD1B4
:1052F000836853B9042380F85130134600950A4659
:10530000FFF7F8FE03B0BDE8F08394F85030012BAE
:1053100000F08680012384F85030FEF7ADF894F851
:105320005130012B8046D8B278D1B9F1000F5CD052
:10533000002F5AD0A268C4F8389000260423B2F592
:10534000004F84F85130C4E9106666652368E7872A
:10535000A7872663A686E68607D11A6822F0400250
:105360001A601A6822F480421A601A6856065EBFF4
:105370001A6842F040021A60E368F3B1E38F9BB20F
:10538000FBB123689A68D20739D5DA68A36B23F892
:10539000022BA363E38F013B9BB2E387EEE7236815
:1053A0009A68D00718D5A26B1B7B1370A36B0133CF
:1053B000A363E38F013B9BB2E387E38F9BB2002B98
:1053C000EDD1424629462046FFF734FD18BB606DFB
:1053D000003818BF012008E0FEF74EF8A0EB0800E7
:1053E000A84209D3691CE8D00320012384F8513076
:1053F000002384F8503085E7002DDED1F4E7FEF776
:105400003BF8A0EB0800A84202D36B1CB6D0EBE738
:10541000002DB3D1E8E720236365D8E70220E4E755
:1054200002206FE77047000090F83D30012B30D12B
:10543000022380F83D300368DA6842F00102DA6046
:10544000154A93421AD0B3F1804F17D0A2F57C428F
:10545000934213D002F5806293420FD002F580622E
:1054600093420BD002F57842934207D002F5705276
:10547000934203D0A2F59432934204D19A6802F089
:105480000702062A03D01A6842F001021A600020BF
:1054900070470120704700BF00000140704770470F
:1054A0007047704703681A69910710B504460ED516
:1054B000DA6892070BD56FF002021A6101220277B7
:1054C0009B699B0777D0FFF7EAFF002323772368C8
:1054D0001A69500710D5DA6851070DD56FF004022C
:1054E0001A61022222779B6913F4407F204668D01C
:1054F000FFF7D5FF0023237723681A6912070FD51A
:10550000DA6810070CD56FF008021A6104222277BE
:10551000DB69990720465AD0FFF7C1FF00232377A4
:1055200023681A69D20610D5DA68D0060DD56FF057
:1055300010021A6108222277DB6913F4407F2046AB
:105540004BD0FFF7ACFF0023237723681A69D107FC
:1055500008D5DA68D20705D56FF001021A61204636
:10556000FCF740F923681A69100608D5DA681106B5
:1055700005D56FF080021A61204600F0C8F8236854
:105580001A69520608D5DA68500605D56FF0400250
:105590001A612046FFF785FF23681A69910622D514
:1055A000DA6892061FD56FF0200220461A61BDE826
:1055B000104000F0ABB8FFF771FF2046FFF770FF17
:1055C00083E7FFF76BFF2046FFF76AFF92E7FFF7DD
:1055D00065FF2046FFF764FFA0E7FFF75FFF204667
:1055E000FFF75EFFAFE710BD304A0368904212D06C
:1055F000B0F1804F0FD0A2F57C4290420BD002F563
:105600008062904207D002F58062904203D002F59A
:105610007842904219D14A6823F070031343234A19
:10562000904229D0B0F1804F26D0A2F57C42904222
:1056300022D002F5806290421ED002F58062904234
:105640001AD002F57842904216D0194A904213D0EF
:1056500002F5806290420FD002F5806290420BD03A
:10566000A2F59832904207D002F58062904203D0B2
:1056700002F58062904203D1CA6823F44073134359
:105680004A6923F08003134303608B68C3620B688D
:105690008362064B984203D003F58063984201D1A0
:1056A0000B69036301234361704700BF00000140A1
:1056B0000040014010B5044630B390F83D3003F08F
:1056C000FF021BB980F83C20FFF7ACFE02232068E4
:1056D00084F83D30211DFFF787FF012384F8463011
:1056E000002084F83E3084F83F3084F8403084F85D
:1056F000413084F8423084F8433084F8443084F8F0
:10570000453084F83D3010BD0120FCE770477047FC
:105710002DE9F043D1E907430A68D1F82490D1E993
:105720000158D1E903ECD1E905762343A2B943EA54
:1057300009022A4342EA0803016843EA0E0343EAE6
:105740000C033B4321F4FF41334321F07F010B4322
:1057500003600020BDE8F083026843EA090322F4F5
:10576000F8421343036045EA0803426843EA0E0324
:1057700043EA0C033B4322F4FF42334322F07F020F
:1057800013434360E5E7CB6803F1FF3C4B69F0B599
:105790000F684C688E680D698969013B1B05013CE7
:1057A000013E013D0139013F240136022D04090665
:1057B00043EA0C335AB93B432343826833432B43B8
:1057C0000B4302F07042134383600020F0BD8268F7
:1057D00022F4700222F470421A43826044EA060303
:1057E000C2683B432B430B4302F070421343C36038
:1057F000EBE770B5044615460269D1E90030034372
:10580000C868920D43EA4023920513438A68013A1F
:1058100043EA42132361FDF72FFE0646A36913F006
:10582000200301D1184603E06B1CF7D00DB903200B
:1058300070BDFDF721FE801BA842EFD9F7E7436951
:1058400023F47F5323F03E0343EA410141610020EA
:10585000704708B54FF0E0231B6901F00BFE0128EB
:1058600003D0BDE8084000F0DDBB08BDEFF30583C1
:105870002BB9064B186828B901221A6070476FF0DF
:10588000050070474FF0FF30704700BF401E0020FA
:1058900010B5EFF305845CB9084B1A68012A0AD1E8
:1058A000074AD47702221A6001F05EFB204610BD41
:1058B0006FF00500FBE74FF0FF30F8E7401E0020D7
:1058C00000ED00E0F0B587B0144600220B460592CB
:1058D000EFF30582D2B9C8B1002C2FD0A569002DF5
:1058E00008BF1825691E3729AC462BD86168C9073F
:1058F00028D466696EB1B208D4E9027E216857B136
:10590000BEF15F0F02D9246904B1EEB9059807B062
:10591000F0BD8022F0E7BEF1000FF7D12469002C22
:10592000F4D10C4605A9CDE900C192B2214601F09F
:10593000EEFA01281CBF00230593E7E74FF0180C8F
:105940008022EFE71046E2E7CDE90147009501F03C
:10595000A6FA0590DAE710B5EFF3058424B910B183
:1059600001F060FC204610BD6FF00500FBE7F7B5C5
:1059700004460E461546EFF305821AB10024204670
:1059800003B0F0BD0028F9D08842F7D3E5B1D5E9DE
:105990000237BBB14F2FF1D901282AD10321009141
:1059A000114600F0E8FC04460028E7D0DEB10023F1
:1059B0001A46194600F094FD012814D0204601F043
:1059C000CFF8DBE7002FD9D1012C05D1032200212C
:1059D000204600F01EFDE6E72046314600F062FD5D
:1059E00004460028CAD055B92946204601F092F84D
:1059F000C5E71A4600F034FD04460028BED02D68E5
:105A0000F2E713B50C4608B3EFF30583B3B1E9B978
:105A100001AA019101F02FF8012814D1019B13B9BB
:105A2000002002B010BD4FF0E0234FF08052C3F8C9
:105A3000042DBFF34F8FBFF36F8FF1E700F058FFD6
:105A40000128EDD02CB96FF00200EAE76FF00300F7
:105A5000E7E76FF00100E4E713B510B3EFF3058358
:105A6000B3B1002401A9019400F04FFE012815D123
:105A7000019B13B9002002B010BD4FF0E0234FF09E
:105A80008052C3F8042DBFF34F8FBFF36F8FF1E740
:105A90001A46194600F024FD0128EBD06FF00200F1
:105AA000E9E76FF00300E6E7F7B505460E46144652
:105AB000EFF305871FB10025284603B0F0BD00288D
:105AC000F9D00029F7D0DAB1D2E9023283B14F2AF6
:105AD000F1D92269002AEED066694D43AE42EAD37D
