:020000040800F2
:1000000000000320710E0008BD250008BF25000870
:10001000C1250008C3250008C52500080000000010
:10002000000000000000000000000000016F000858
:10003000C725000800000000916F00081B68000839
:10004000C10E0008C10E0008C10E0008C10E000854
:10005000C10E0008C10E0008C10E0008C10E000844
:10006000C10E0008C10E0008C10E0008C10E000834
:10007000C10E0008C10E0008C10E0008C10E000824
:10008000C10E0008C10E0008C10E0008C10E000814
:10009000C10E0008C10E0008C10E0008C10E000804
:1000A000C10E0008C10E0008C10E0008C10E0008F4
:1000B000C10E0008C10E0008C10E0008C10E0008E4
:1000C000C10E0008C10E0008C10E0008C10E0008D4
:1000D000C10E0008C10E0008C10E0008C10E0008C4
:1000E000C10E0008C10E0008C10E0008C10E0008B4
:1000F000C10E0008C10E0008C10E0008C10E0008A4
:10010000C10E0008C10E0008C10E0008C10E000893
:10011000C10E0008C10E0008C9250008C10E000864
:10012000C10E0008C10E0008C10E0008C10E000873
:10013000C10E0008C10E0008C10E0008C10E000863
:10014000C10E0008C10E0008C10E0008C10E000853
:10015000C10E0008C10E0008C10E0008C10E000843
:10016000C10E0008C10E0008C10E0008C10E000833
:10017000C10E0008C10E0008C10E000800000000FA
:10018000C10E0008C10E0008C10E0008C10E000813
:10019000C10E0008C10E0008C10E0008C10E000803
:0C01A000D5250008C10E0008E12500086C
:1001B00010B5054C237833B9044B13B10448AFF3A1
:1001C00000800123237010BD6401002000000000A6
:1001D0003CD3010808B5034B1BB103490348AFF3F7
:1001E000008008BD00000000680100203CD3010829
:1001F00001F0FF01102A2BDB10F0070F08D010F8D8
:10020000013B013A8B422DD010F0070F42B3F6D1DB
:10021000F0B441EA012141EA014122F007047FF0F4
:1002200000070023F0E80256083C85EA010586EA4B
:10023000010685FA47F5A3FA87F586FA47F6A5FA87
:1002400087F68EB9EED1F0BC01F0FF0102F0070293
:1002500032B110F8013B013A83EA010313B1F8D13E
:100260000020704701387047002D06BF354603381F
:10027000073815F0010F07D1013015F4807F02BF58
:10028000013015F4C03F0130F0BC0138704700BFA9
:1002900081F0004102E000BF83F0004330B54FEA37
:1002A00041044FEA430594EA050F08BF90EA020FA4
:1002B0001FBF54EA000C55EA020C7FEA645C7FEA37
:1002C000655C00F0E2804FEA5454D4EB5555B8BF5A
:1002D0006D420CDD2C4480EA020281EA030382EACB
:1002E000000083EA010180EA020281EA0303362D5D
:1002F00088BF30BD11F0004F4FEA01314FF4801C30
:100300004CEA113102D0404261EB410113F0004F41
:100310004FEA03334CEA133302D0524263EB4303F8
:1003200094EA050F00F0A780A4F10104D5F1200E96
:100330000DDB02FA0EFC22FA05F2801841F10001F1
:1003400003FA0EF2801843FA05F359410EE0A5F1C5
:1003500020050EF1200E012A03FA0EFC28BF4CF0F6
:10036000020C43FA05F3C01851EBE37101F00045AC
:1003700007D54FF0000EDCF1000C7EEB00006EEBB9
:100380000101B1F5801F1BD3B1F5001F0CD3490843
:100390005FEA30004FEA3C0C04F101044FEA44529A
:1003A00012F5800F80F09A80BCF1004F08BF5FEA21
:1003B000500C50F1000041EB045141EA050130BD01
:1003C0005FEA4C0C404141EB0101013C28BFB1F513
:1003D000801FE9D291F0000F04BF01460020B1FA5E
:1003E00081F308BF2033A3F10B03B3F120020CDA31
:1003F0000C3208DD02F1140CC2F10C0201FA0CF00F
:1004000021FA02F10CE002F11402D8BFC2F1200C73
:1004100001FA02F120FA0CFCDCBF41EA0C01904029
:10042000E41AA2BF01EB0451294330BD6FEA040472
:100430001F3C1CDA0C340EDC04F11404C4F120025D
:1004400020FA04F001FA02F340EA030021FA04F36F
:1004500045EA030130BDC4F10C04C4F1200220FAC6
:1004600002F001FA04F340EA0300294630BD21FA04
:1004700004F0294630BD94F0000F83F4801306BFCA
:1004800081F480110134013D4EE77FEA645C18BFBE
:100490007FEA655C29D094EA050F08BF90EA020F55
:1004A00005D054EA000C04BF1946104630BD91EA4D
:1004B000030F1EBF0021002030BD5FEA545C05D150
:1004C0004000494128BF41F0004130BD14F580048F
:1004D0003CBF01F5801130BD01F0004545F0FE4103
:1004E00041F470014FF0000030BD7FEA645C1ABF38
:1004F000194610467FEA655C1CBF0B46024650EA6F
:10050000013406BF52EA033591EA030F41F400219A
:1005100030BD00BF90F0000F04BF0021704730B520
:100520004FF4806404F132044FF000054FF00001F5
:1005300050E700BF90F0000F04BF0021704730B5B6
:100540004FF4806404F1320410F0004548BF40428B
:100550004FF000013EE700BF42004FEAE2014FEAE0
:1005600031014FEA02701FBF12F07F4393F07F4FBB
:1005700081F06051704732F07F4208BF704793F0BE
:100580007F4F04BF41F40021704730B54FF46074D1
:1005900001F0004521F000411CE700BF50EA0102D4
:1005A00008BF704730B54FF000050AE050EA01027D
:1005B00008BF704730B511F0004502D5404261EBED
:1005C00041014FF4806404F132045FEA915C3FF42E
:1005D000D8AE4FF003025FEADC0C18BF03325FEACB
:1005E000DC0C18BF033202EBDC02C2F1200300FA7C
:1005F00003FC20FA02F001FA03FE40EA0E0021FAA1
:1006000002F11444BDE600BF70B54FF0FF0C4CF48E
:10061000E06C1CEA11541DBF1CEA135594EA0C0F40
:1006200095EA0C0F00F0DEF82C4481EA030621EA7B
:100630004C5123EA4C5350EA013518BF52EA0335B6
:1006400041F4801143F4801338D0A0FB02CE4FF068
:100650000005E1FB02E506F00042E0FB03E54FF098
:100660000006E1FB03569CF0000F18BF4EF0010E90
:10067000A4F1FF04B6F5007F64F5407404D25FEA8C
:100680004E0E6D4146EB060642EAC62141EA55513F
:100690004FEAC52040EA5E504FEACE2EB4F1FD0C81
:1006A00088BFBCF5E06F1ED8BEF1004F08BF5FEAFF
:1006B000500E50F1000041EB045170BD06F00046B1
:1006C00046EA010140EA020081EA0301B4EB5C045E
:1006D000C2BFD4EB0C0541EA045170BD41F4801156
:1006E0004FF0000E013C00F3AB8014F1360FDEBF7B
:1006F000002001F0004170BDC4F10004203C35DA57
:100700000C341BDC04F11404C4F1200500FA05F3D9
:1007100020FA04F001FA05F240EA020001F000427A
:1007200021F0004110EBD37021FA04F642EB0601F0
:100730005EEA430E08BF20EAD37070BDC4F10C041A
:10074000C4F1200500FA04F320FA05F001FA04F2DE
:1007500040EA020001F0004110EBD37041F10001CA
:100760005EEA430E08BF20EAD37070BDC4F12005D5
:1007700000FA05F24EEA020E20FA04F301FA05F23D
:1007800043EA020321FA04F001F0004121FA04F2E5
:1007900020EA020000EBD3705EEA430E08BF20EAB5
:1007A000D37070BD94F0000F0FD101F000464000EF
:1007B00041EB010111F4801F08BF013CF7D041EA71
:1007C000060195F0000F18BF704703F00046520075
:1007D00043EB030313F4801F08BF013DF7D043EA46
:1007E0000603704794EA0C0F0CEA135518BF95EAFC
:1007F0000C0F0CD050EA410618BF52EA4306D1D183
:1008000081EA030101F000414FF0000070BD50EAA1
:10081000410606BF1046194652EA430619D094EA2B
:100820000C0F02D150EA013613D195EA0C0F05D115
:1008300052EA03361CBF104619460AD181EA030169
:1008400001F0004141F0FE4141F470014FF0000021
:1008500070BD41F0FE4141F4780170BD70B54FF0BC
:10086000FF0C4CF4E06C1CEA11541DBF1CEA13553C
:1008700094EA0C0F95EA0C0F00F0A7F8A4EB05041E
:1008800081EA030E52EA03354FEA013100F0888015
:100890004FEA03334FF0805545EA131343EA1263DE
:1008A0004FEA022245EA111545EA10654FEA002693
:1008B0000EF000419D4208BF964244F1FD0404F54C
:1008C000407402D25B084FEA3202B61A65EB0305A8
:1008D0005B084FEA32024FF480104FF4002CB6EB65
:1008E000020E75EB030E22BFB61A754640EA0C00E5
:1008F0005B084FEA3202B6EB020E75EB030E22BF25
:10090000B61A754640EA5C005B084FEA3202B6EB65
:10091000020E75EB030E22BFB61A754640EA9C0024
:100920005B084FEA3202B6EB020E75EB030E22BFF4
:10093000B61A754640EADC0055EA060E18D04FEAB2
:10094000051545EA16754FEA06164FEAC30343EA52
:1009500052734FEAC2025FEA1C1CC0D111F4801F1F
:100960000BD141EA00014FF000004FF0004CB6E718
:1009700011F4801F04BF01430020B4F1FD0C88BFB7
:10098000BCF5E06F3FF6AFAEB5EB030C04BFB6EBC2
:10099000020C5FEA500C50F1000041EB045170BDB5
:1009A0000EF0004E4EEA113114EB5C04C2BFD4EBE2
:1009B0000C0541EA045170BD41F480114FF0000E66
:1009C000013C90E645EA060E8DE60CEA135594EAE2
:1009D0000C0F08BF95EA0C0F3FF43BAF94EA0C0FE5
:1009E0000AD150EA01347FF434AF95EA0C0F7FF45A
:1009F00025AF104619462CE795EA0C0F06D152EAAE
:100A000003353FF4FDAE1046194622E750EA410691
:100A100018BF52EA43067FF4C5AE50EA41047FF4A2
:100A20000DAF52EA43057FF4EBAE12E74FEA410205
:100A3000B2F1E04324BFB3F5001CDCF1FE5C0DD93C
:100A400001F0004C4FEAC0024CEA5070B2F1004F86
:100A500040EB830008BF20F00100704711F0804F89
:100A600021D113F13872BCBF01F00040704741F44E
:100A700080114FEA5252C2F11802C2F1200C10FA52
:100A80000CF320FA02F018BF40F001004FEAC12336
:100A90004FEAD32303FA0CFC40EA0C0023FA02F3DA
:100AA0004FEA4303CCE77FEA625307D150EA0133B0
:100AB0001EBF4FF0FE4040F44000704701F0004080
:100AC00040F0FE4040F40000704700BF7BB972B9AF
:100AD0000029BEBF00204FF0004106E008BF0028FB
:100AE0001CBF6FF000414FF0FF3000F0BFB9ADF117
:100AF000080C6DE904CE002909DB002B1ADB00F09D
:100B00004DF8DDF804E0DDE9022304B0704740420F
:100B100061EB4101002B1BDB00F040F8DDF804E045
:100B2000DDE9022304B0404261EB4101524263EB34
:100B300043037047524263EB430300F02FF8DDF8A4
:100B400004E0DDE9022304B0404261EB410170475B
:100B5000524263EB430300F021F8DDF804E0DDE9E5
:100B6000022304B0524263EB4303704753B94AB9BE
:100B7000002908BF00281CBF4FF0FF314FF0FF30A5
:100B800000F074B9ADF1080C6DE904CE00F006F880
:100B9000DDF804E0DDE9022304B070472DE9F047F9
:100BA000089D04468E46002B4DD18A42944669D951
:100BB000B2FA82F252B101FA02F3C2F1200120FA34
:100BC00001F10CFA02FC41EA030E94404FEA1C4882
:100BD000210CBEFBF8F61FFA8CF708FB16E341EA7E
:100BE000034306FB07F199420AD91CEB030306F104
:100BF000FF3080F01F81994240F21C81023E634425
:100C00005B1AA4B2B3FBF8F008FB103344EA0344C8
:100C100000FB07F7A7420AD91CEB040400F1FF33DD
:100C200080F00A81A74240F207816444023840EA1A
:100C30000640E41B00261DB1D4400023C5E9004353
:100C40003146BDE8F0878B4209D9002D00F0EF80D6
:100C50000026C5E9000130463146BDE8F087B3FA09
:100C600083F6002E4AD18B4202D3824200F2F980F1
:100C7000841A61EB030301209E46002DE0D0C5E9F4
:100C8000004EDDE702B9FFDEB2FA82F2002A40F040
:100C90009280A1EB0C014FEA1C471FFA8CFE012643
:100CA000200CB1FBF7F307FB131140EA01410EFBE7
:100CB00003F0884208D91CEB010103F1FF3802D28E
:100CC000884200F2CB804346091AA4B2B1FBF7F088
:100CD00007FB101144EA01440EFB00FEA64508D9AB
:100CE0001CEB040400F1FF3102D2A64500F2BB80E8
:100CF0000846A4EB0E0440EA03409CE7C6F1200737
:100D0000B34022FA07FC4CEA030C20FA07F401FA7C
:100D100006F31C43F9404FEA1C4900FA06F3B1FB05
:100D2000F9F8200C1FFA8CFE09FB181140EA01416A
:100D300008FB0EF0884202FA06F20BD91CEB010107
:100D400008F1FF3A80F08880884240F28580A8F15F
:100D500002086144091AA4B2B1FBF9F009FB1011B1
:100D600044EA014100FB0EFE8E4508D91CEB01014F
:100D700000F1FF346CD28E456AD90238614440EAF2
:100D80000840A0FB0294A1EB0E01A142C846A64672
:100D900056D353D05DB1B3EB080261EB0E0101FAFB
:100DA00007F722FA06F3F1401F43C5E90071002658
:100DB0003146BDE8F087C2F12003D8400CFA02FCAE
:100DC00021FA03F3914001434FEA1C471FFA8CFEBE
:100DD000B3FBF7F007FB10360B0C43EA064300FBAE
:100DE0000EF69E4204FA02F408D91CEB030300F14C
:100DF000FF382FD29E422DD9023863449B1B89B203
:100E0000B3FBF7F607FB163341EA034106FB0EF38B
:100E10008B4208D91CEB010106F1FF3816D28B4238
:100E200014D9023E6144C91A46EA004638E72E4604
:100E3000284605E70646E3E61846F8E64B45A9D2FC
:100E4000B9EB020864EB0C0E0138A3E74646EAE76B
:100E5000204694E74046D1E7D0467BE7023B614419
:100E600032E7304609E76444023842E7704700BF82
:100E7000DFF834D0002103E00C4B5B5843500431C1
:100E80000B480C4B42189A42F6D30B4A02E000235F
:100E900042F8043B094B9A42F9D303F09DFA1BF048
:100EA000E7F900F087FE70470000032064C10408E2
:100EB0000000002064010020640100206C2C01204F
:100EC000FEE7704710B5042104461AF0B6FB204631
:100ED00010BD000038B50C4B0C4C18800C4B822018
:100EE00019806368984740F6110398420AD1094D6A
:100EF00023682C60822098472B688220DB68984703
:100F0000002038BD0120FCE7800100204C000020BB
:100F100082010020840100204FF4A071F020FFF72F
:100F2000D9BF0000F7B5344D2B6804461B698220F9
:100F3000984780B2208000284CD02B680DF1060223
:100F40005B6901A982209847BDF8063040F67462BB
:100F5000934241D9ADF80620BDF80620C2F567627C
:100F6000043292B20A2A3DD90B23B2FBF3F2234B8F
:100F70001B889A4201D9013B9AB2BDF8043040F671
:100F8000B8318B4230D8C3F571630E339BB20F2159
:100F9000B3FBF1F31A4909888B4201D94B1E9BB26E
:100FA000184E194D30682F68834281B28CBF591A90
:100FB000C91AB8B2BA428CBF101A801A89B280B26C
:100FC00001440529C8BF33603368C8BF2A60638005
:100FD0002B68A38003B0F0BDB32B9CBFB423ADF846
:100FE0000630B9E70022C8E7C3F56D6308339BB24A
:100FF0000E2BCCD80023D3E78401002082010020EF
:1010000080010020880100208C01002037B568464F
:101010000D461446FFF786FFBDF8000030B1BDF85D
:1010200002302B60BDF804302360012003B030BDD6
:10103000032821D8DFE800F0020B12190F4B1A68C1
:10104000B2FA82F2520904210D4803F057BC0B4B4F
:101050005A68B2FA82F252090821F5E7074B9A68FA
:10106000B2FA82F252091021EEE7044BDA68B2FAC2
:1010700082F252092021E7E7704700BF900100206B
:1010800000100240032821D8DFE800F0020B1219FB
:101090000F4B1A68003A18BF012204210D4803F0D3
:1010A0002DBC0B4B5A68003A18BF01220821F5E706
:1010B000074B9A68003A18BF01221021EEE7044B53
:1010C000DA68003A18BF01222021E7E7704700BF25
:1010D000900100200010024003280DD8DFE800F046
:1010E0000206080A0421054803F00DBC0821FAE7AE
:1010F0001021F8E72021F6E7704700BF00100240FA
:10110000012380F8741080F8753070470020704714
:10111000034B4164003918BF01211970704700BFAB
:10112000C729012000207047836B0BB10846184780
:1011300070474FF6FF707047406803689B69184717
:10114000704770477047000070B5044600F054FCCB
:101150002368D3F88850044BD4E90F122046AC46DC
:10116000BDE87040604700BF000000D008B50368CC
:101170000446D3F880309847236820469B6F9847F1
:1011800000F0F0F8236820461B6F9847292000F0F4
:1011900047FF00F0E7F8236820461B6F9847F8E701
:1011A00010B5044608F09EFC23682046D3F8AC3006
:1011B000BDE81040184700F011BC00F015BC00F06D
:1011C00041BC00F0E7BB00F041BC00F049BC00F0BE
:1011D000EBBB07F0EFBE10B57C2104461AF02DFAE8
:1011E000204610BD90F877301BB1406803681B683B
:1011F000184718467047000010B590F8341090F862
:1012000074400C4B8C421A7809D03AB90A4A0B49FF
:101210001488088810800C8001221A7010BD002AE2
:10122000FCD0054A05491488088810800C800022EB
:10123000F3E700BFC0290120BC290120BE290120FD
:1012400070B50D46194635B9094B0A4A0A4840F2AD
:10125000D2211AF0C3FFC0E90F52084B003A18BF61
:1012600001221A700368BDE87040D3F88C3018472B
:10127000ACD30108E4D3010832D40108C629012007
:1012800008B5094B1B888B4203D8084B1B88934237
:1012900005D9074B074A08489E211AF09FFF074BC4
:1012A0001980074B1A8008BDBC290120BE290120E6
:1012B00077D40108DAD4010832D40108C229012008
:1012C000C429012000F088BA00F0F6BA012108B55F
:1012D0000022084605F02FFB0A4B186028B90A4B7C
:1012E0000A4A28210A481AF079FF00220421012025
:1012F00005F0BEFB074B186018B9074B034A2C21B9
:10130000F0E708BDA4010020F8D5010841D6010886
:1013100070D60108A0010020B8D60108024B4FF09A
:10132000FF31186805F051BBA4010020014B18687B
:1013300005F076BBA4010020024B0021186805F0DF
:1013400044BB00BFA4010020FFF7F0BF03480449DD
:10135000006800231A4605F0C6BB00BFA0010020AC
:101360000400002013B5084C00231A4601A9206888
:1013700005F0E9FB20684FF0FF33002201A905F0DA
:10138000E2FB02B010BD00BFA001002003685B6C4F
:1013900018470120704703689B6A184782B00023F2
:1013A00001930D4B1A6B42F400021A631A6B02F49C
:1013B00000020192019A1A6942F400021A611A6944
:1013C00022F400021A61054B054A1A61054B4FF0E1
:1013D00080629A6002B0704700380240A81900206D
:1013E0002914000800E100E040F2EF3070470000EF
:1013F000054B0360054B4FF08062C3F88820BFF3B4
:101400004F8FBFF36F8F704750D8010800E100E0A5
:1014100010B504464FF45A61FFF7EAFF20461AF070
:101420000CF9204610BD0000024B1B685868036889
:101430005B691847C829012070B5044625460A4B48
:101440000C30002660602672667245F8203B6022F0
:10145000294608F085FC04F55A63EE602435AB425A
:10146000FBD1204670BD00BF50D8010808B50B293C
:101470000BD8DFE801F01206100A0A0A0A08080869
:101480000808012008BD0520FCE7054B054A064871
:1014900066211AF0A3FE0020F4E70220F2E700BF65
:1014A000FAD6010815D701085FD7010808B50A293F
:1014B00009D8DFE801F010060E080808080606063D
:1014C0000600012008BD054B054A064887211AF091
:1014D00085FE0020F6E70220F4E700BFFAD60108F7
:1014E000A5D701085FD701082DE9F8434F7F0C46C7
:1014F00039468146FFF7BAFF94F81E8005464146FB
:101500004846FFF7B3FF414606464846FFF7CEFF81
:10151000A18A628B424B521A1A649A61228B521A28
:101520001A61E28A586342EA01425A642069626899
:10153000D863DA60216894F81CC080294FEA0C62F5
:1015400026D010D8202945EA020461D040295FD076
:1015500004295DD0324B2A4342F400324745DA6118
:101560005AD0304A40E0B1F5807F07D0B1F5007F16
:10157000F0D142F4003242F0090203E042F40032BA
:1015800042F00A02DA61E2681A625E6258612AE099
:10159000A4682A4342F40032211DD962DA6122781C
:1015A0005E62586142B1012A21D01F4B1F4A204878
:1015B00040F211111AF012FEDA69618822F47F42BA
:1015C000013922F0100242EA0122DA610120144BB3
:1015D000DA6942F02002DA61DA699206FCD410225C
:1015E0009A600028BDD0134A1A60BDE8F88362886B
:1015F000D969541E21F47F4222F0100242EA0422EB
:10160000BCF1FF0042F0100218BF0120DA61DEE7F2
:1016100044F40034DC61B8E740F20122E4E700BFA3
:1016200000B0024001020100F0D701080AD8010809
:101630005FD701080102020070B50C46897FFFF7F1
:1016400035FFA68AE18A628B154B2569586341EA0A
:101650000641921B5964DD631A642668E168082E0E
:101660000DD19A611A615862207F0E4A42EA0062E7
:10167000DA610D4A19625D61DD601A6070BD002299
:10168000D8611A6148090A0A02F4784200F4FC6041
:101690000243C1F3C4010A439A63044AEDE700BF61
:1016A00000B0024009000100010202000102030033
:1016B000012070470C2070470C2303FB0100083009
:1016C00070470C2303FB010008307047012070476E
:1016D0004FF4F46070474FF4F46303FB01000830EB
:1016E00070474FF4F46303FB01000830704701209A
:1016F00070471020704700EB01100830704700EB76
:10170000011008307047084601F054B910B5034B7A
:101710000360044607F099F9204610BD08D9010876
:1017200010B50446FFF7F2FF2046142119F085FF9B
:10173000204610BD10B5034B0360044607F085F941
:10174000204610BDD4D8010810B50446FFF7F2FFBB
:1017500020464FF4F56119F070FF204610BD0000DF
:1017600010B5034B0360044607F06FF9204610BD27
:10177000A0D8010810B50446FFF7F2FF2046182153
:1017800019F05BFF204610BD10B5084B03600446FE
:1017900000F2D470FFF7BAFF04F12C00FFF7CAFF84
:1017A00004F11400FFF7DCFF204610BD3CD901080E
:1017B00008B50248FFF7E8FF08BD00BFAC010020F4
:1017C00010B50446FFF7E0FF204640F6441119F03B
:1017D00034FF204610BD00002DE9F34100F074FFF6
:1017E000054600F075FF00240146234628462246A0
:1017F00000940EF035F9254B254A264D1A602046F7
:1018000002F098FA24480EF093F82B78BFF35B8F20
:10181000DB0735D4284619F012FF88B31F4C204B44
:10182000236004F2EC7604F1140004F12C0804F2B5
:10183000D4776060C4F80880E760266107F006F995
:10184000184B6361404607F001F9174BE3623846D5
:1018500007F0FCF8154BC4F8D43704F5FD6002F02E
:10186000E5FA224604F5FD61304602F0D5FA30462D
:1018700001F0A0F80E481AF0CFFC284619F0EBFE54
:101880000C4802B0BDE8F041FFF75EBC242A0120FD
:1018900010190020A801002008000020AC01002041
:1018A0003CD90108A0D80108D4D8010808D90108FA
:1018B000B1170008941800200148FFF757BC00BF7B
:1018C0009418002070B5234C234E244B244D2360E4
:1018D0003046FFF7B1FD284611F0CCF9214B2248E4
:1018E000DC60224C03600022F0204FF480712080E5
:1018F000C3E912121E4C1F492080C3E919121E4C65
:101900001A864FF080714FF4A07059670121C3E926
:101910000422C3E90622C3E90822C3E90A22C3E973
:101920000E22C3E91022C3E91422C3E916221A6663
:1019300083F86C201A67C3E9016583F8781020806A
:101940000E4C83F8341020800D4802700D4A1A6046
:1019500070BD00BFF00A0020F40A00209CD30108EB
:101960001419002094180020C8290120BC29012046
:10197000C229012001000001BE290120C429012043
:10198000C029012028D501080148FFF731BD00BF5B
:10199000F40A0020034B902283F85A2383F858233B
:1019A000704700BF00E100E0094A0A49D3680A48CD
:1019B000C3F30A03013B9BB20B801169C1F30A0117
:1019C000013901801364536B43F001035363704783
:1019D00000680140901900208E190020014BD3F8B7
:1019E000AC00704700680140024B0122C3F8AC1004
:1019F0005A6270470068014070B5044607F02FFB3B
:101A000023685D6E0AF0EAFE01462046A847236877
:101A1000054AD3F888502046AC460023BDE8704004
:101A2000A2F51631604700BF00B004D007F0FEBA3F
:101A300090F84B3013B1024B01221A7007F002BB31
:101A40008C19002007F0BCBA07F015BC034B4FF00F
:101A500080629A604FF080729A60704700E100E007
:101A6000084B4FF08062C3F88820BFF34F8FBFF35D
:101A70006F8F4FF08072C3F88820BFF34F8FBFF392
:101A80006F8F704700E100E010B5144C236823B35A
:101A9000134B144A1B6C11888B4213D1124B1988BB
:101AA00003F012FD226892F86630013382F8663046
:101AB000FFF74CFC206808F015F8BDE81040002046
:101AC000FFF7B6BA03F000FD206803681B6A984769
:101AD000BDE810400020FFF7D5BA10BDC82901208D
:101AE00000680140901900208E19002007B5064BB0
:101AF000ADF806001B68054801220DF1060104F04F
:101B00002FFA03B05DF804FB10000020181B002022
:101B100008B5642004F003FFFBE7000030B595B082
:101B2000102200210AA81AF0E5FB1422002103A8C4
:101B30001AF0E0FB00241D4B01941A6C42F0805215
:101B40001A641B6C03F080530193019B184B0294A1
:101B50001A6842F440421A601B6803F4404302933F
:101B60000122029B4FF48033CDE9082302254FF474
:101B70008003CDE90E5308214FF4A873CDE910136B
:101B800008A804231393129503F0BCFC0F23CDE99E
:101B900003354FF4A0504FF48053CDE906030521DF
:101BA00003A8059403F08CFE15B030BD0038024048
:101BB0000070004080B59AB002F01CFCFFF7AEFF49
:101BC000142200210DA800241AF094FBBF4B0094AE
:101BD0001A6BBF48BF4D42F010021A631A6B02F035
:101BE00010020092009A01941A6B42F020021A63CC
:101BF0001A6B02F020020192019A02941A6B42F0D1
:101C000080021A631A6B02F080020292029A039415
:101C10001A6B42F004021A631A6B02F00402039278
:101C2000039A04941A6B42F001021A631A6B02F0D1
:101C300001020492049A05941A6B42F002021A639C
:101C40001A6B02F002020592059A06941A6B42F092
:101C500040021A631A6B02F040020692069A079439
:101C60001A6B42F008021A631B6B03F00803079318
:101C700022463C21079B02F041FE97482246042160
:101C800002F03CFE224695484FF4405102F036FEE9
:101C900001264FF003083C238D48CDF840800DA964
:101CA00002274FF00409CDE90D360F9402F040FDF4
:101CB00089480F940DA9CDE90D96109702F038FDD3
:101CC0000DA94FF440538548CDE90D36CDE90F47B6
:101CD00002F02EFD8248834B036002F01DFC824A15
:101CE000824B2C62C5E9002328464FF48043C5E9A6
:101CF0000434C5E90244C5E9064402F0E9FF1021B5
:101D0000284603F025FA2146284603F040FA784891
:101D1000784984624FF48273C0E900134FF4007570
:101D20001823C0E906530A23734DC362C0E9024475
:101D3000C0E90444C0E9084404F0B6F86F4B0D97BD
:101D40004FF0100CC5E900364023C5E904C34FF439
:101D5000C073C5E906344FF40063C5E908344FF495
:101D60000053AB620DA907232846CDE90E39CDE912
:101D700010384FF0080AC5E90249CDE9127703F09F
:101D800093FF4FF6FF7209A92846CDE90AA60894E9
:101D900009960C9403F0A8FF304602F057FB4FF66B
:101DA000FF7209A92846CDE9097ACDE90B6403F051
:101DB0009BFF4FF6FF7209A92846CDE9098ACDE9B4
:101DC0000B9403F091FF4FF40C730893089B0C9352
:101DD0004FF6FF7209A92846CDE9099A0B9603F040
:101DE00083FF40F26A51284603F09CFF34222146CB
:101DF0000DEB02001AF07EFA414D424BAC86C5E96C
:101E000000340923C5E905361D2340F20D1EC5E93E
:101E1000073840F24313C5E909E3284640F2471367
:101E200040F21718C5E90B83C5E902442C6185F817
:101E3000364003F051FAFF21F022CDE912144FF49D
:101E4000806905214FF4A073CDE90E24CDE91491EA
:101E5000CDE916420DA922462846CDE910372A4D74
:101E600018930D94ADF864408DF8664003F0FFFAC6
:101E7000264B2B601B6898472B68254DDB689847DD
:101E8000244BC5E90A47C5E90C442846C5E9003496
:101E9000C5E9027402F050FB3146284602F004FC0A
:101EA000FFF710FA04F0C6FC1B4A1C48214604F058
:101EB000EDFC1B4B1B4A186021461B4804F0E6FC56
:101EC0001A4B186004F0C8FCFEE700BF003802405F
:101ED00000100240E819002000080240000C0240F7
:101EE000A019002000300240005C0040A0860100E4
:101EF000181B002000500140E41A0020400100A0FF
:101F00003C1A0020006801409819002014000020AD
:101F1000A819002000B0024084D90108111B000854
:101F20009C19002060D90108C912000894190020EA
:101F3000704770477FB5094B8DF817201B680293D7
:101F40000DF117020123009201930A46014604484D
:101F500002F066FF07B05DF804FB00BF0C00002034
:101F6000E81900207FB500238DF81730084B1B6857
:101F700002930A4601230DF11701009101930146D6
:101F8000044802F0DDFF9DF8170007B05DF804FB80
:101F90000C000020E81900201FB5084C24680092AE
:101FA000CDE901340A4601230146054802F0C8FF85
:101FB000003818BF012004B010BD00BF0C00002085
:101FC000E819002002F042BA08B5064800220421B0
:101FD00002F094FCBDE8084002480122042102F00E
:101FE0008DBC00BF0008024038B50B4D04460122ED
:101FF0000A484FF4005102F081FC002204212846D7
:1020000002F07CFC2046FFF771FD28460122BDE866
:102010003840042102F072BC00080240000C02406B
:1020200038B50B4D044600220A484FF4005102F027
:1020300065FC00220421284602F060FC2046FFF7E0
:1020400055FD28460122BDE83840042102F056BC67
:1020500000080240000C0240F7B5144E144F05462C
:102060000C4630460022042102F048FC00224FF4C6
:102070000051384602F042FC2846FFF737FD0D4B71
:102080000D481B68224601A904F00CF938460122CC
:102090004FF40051019C02F031FC30460122042132
:1020A00002F02CFC204603B0F0BD00BF0008024047
:1020B000000C024010000020181B002002F0C6B9DE
:1020C0000268034B9A4201D102F0AEB9704700BFDB
:1020D000001000407047000082B00E4B00220092BA
:1020E000596C41F480415964596C01F4804100916C
:1020F00000990192196C41F0805119641B6C03F036
:1021000080530193019B0F216FF0010002B002F098
:10211000C3B900BF003802400268094B9A4282B03E
:102120000BD100230193074B1A6B42F480521A63C0
:102130001B6B03F480530193019B02B0704700BFF7
:10214000003002400038024007B50F4B02689A4247
:1021500016D10022A3F5F0430192196B41F400015E
:1021600019631B6B03F40003019305215A20019BA3
:1021700002F092F95A2003B05DF804EB02F0BEB908
:1021800003B05DF804FB00BF00B002402DE9F0434E
:10219000044689B01422002103A81AF0ABF8226883
:1021A000244B9A4243D1244C244800250095236BAC
:1021B00043F004032363236B03F004030093009BA9
:1021C0000195236B43F001032363236B03F00103A9
:1021D0000193019B4FF012094FF400734FF0010877
:1021E0000327042603A9CDE90339CDE9058707961E
:1021F00002F09EFA4FF480731148079603A9CDE9C7
:102200000339CDE9058702F093FA0295236C43F474
:1022100000032364236C03F400030293029B236AEC
:1022200043F400032362236A23F40003236209B00A
:10223000BDE8F083005C0040003802400008024026
:1022400000000240F0B599B004461422002107A80E
:102250001AF050F830220DEB020000211AF04AF873
:1022600022685E4B9A4240F0B78008230C93C0234B
:102270001093042312930CA84FF40033159303F02A
:10228000E9FB08B1FFF726FF554B564800240094A0
:102290005A6C42F080625A645A6C02F0806200927A
:1022A000009A01941A6B42F020021A631A6B02F032
:1022B00020020192019A02941A6B42F001021A6301
:1022C0001A6B02F001020292029A03941A6B42F016
:1022D00002021A631A6B02F002020392039A049438
:1022E0001A6B42F040021A631A6B02F04002049229
:1022F000049A05941A6B42F004021A631A6B02F0F6
:1023000004020592059A06941A6B42F008021A63B9
:102310001B6B03F00803069302250E26069B0B9603
:102320004FF4806307A9CDE90735CDE9094502F0EF
:10233000FFF941F658032C480B9607A9CDE907355C
:102340000927CDE9094502F0F3F9032327480B9744
:1023500007A9CDE90735CDE9094502F0E9F94FF4C0
:10236000706322480B9607A9CDE90735CDE90945E9
:1023700002F0DEF94FF40C631D480B9607A9CDE976
:102380000735CDE9094502F0D3F9C02319480B966A
:1023900007A9CDE90735CDE9094502F0C9F90823B8
:1023A00015480B9607A9CDE90735CDE9094502F097
:1023B000BFF94FF4A0530E480B9707A9CDE9073595
:1023C000CDE9094502F0B4F958202246052102F072
:1023D00063F8582002F092F819B0F0BD006801408F
:1023E0000038024000140240000002400004024095
:1023F0000018024000080240000C024010B50446DC
:1024000088B01422002103A819F074FF2268144B2D
:102410009A4223D103F56843002101915A6C114877
:1024200042F480125A645A6C02F480120192019AAA
:1024300002911A6B42F020021A631B6B03F0200317
:102440000293029B4FF4607202230321CDE9032320
:102450000523CDE9061303A902F06AF908B010BDFF
:1024600000500140001402402DE9F04186B00023E5
:1024700003932B4B1C68002C4FD14FF00108C3F87D
:102480000080284B00949A6B274842EA08029A631E
:102490009B6B03EA08030093022703260C25009B8D
:1024A00001A94FF63F03CDE90137CDE9046502F0FC
:1024B0003FF91E48059501A9CDE90187CDE90346FD
:1024C00002F036F948F233131948059501A9CDE910
:1024D0000137CDE9034602F02BF94FF68373154817
:1024E000059501A9CDE90137CDE9034602F020F9B0
:1024F0004CF203731048059501A9CDE90137CDE9E8
:10250000034602F015F960230C48059501A9CDE9B1
:102510000137CDE9034602F00BF906B0BDE8F081C2
:10252000701B0020003802400014024000080240E6
:102530000018024000100240000C0240000402405B
:1025400030B5014689B00022362001F0A5FF3620C3
:1025500001F0D4FF0025154B02951A6C144C42F083
:1025600010021A641B6C03F01003029301A903A864
:10257000029B03F051FA03F03FFA0E4B236040F246
:10258000E733E36040000C4BB0FBF3F001386060D0
:1025900020462561A56004F071F820B9204603F0BB
:1025A00027FF09B030BD0120FBE700BF0038024023
:1025B000741B00200010004040420F007047FEE7EF
:1025C000FEE7FEE7FEE77047014803F04FBF00BF9C
:1025D000741B0020014802F0EDBE00BF3C1A002031
:1025E000014801F0D7BF00BFA819002001207047A3
:1025F00008B519F025FE162303604FF0FF3008BD23
:1026000008B519F01DFE16230360FEE770B50D46F0
:1026100014460E46731B9C4201DC204670BDAFF38E
:10262000008006F8010BF5E770B50D4614460E461E
:10263000731B9C4201DC204670BD16F8010BAFF302
:102640000080F5E74FF0FF3070474FF400534B60C8
:102650000020704701207047002070470A4A116827
:1026600008B5034609B90949116010686946034471
:102670008B4206D919F0E4FD0C2303604FF0FF30C4
:1026800008BD1360FCE700BFBC1B0020702C0120BC
:10269000704710B50421044618F0CFFF204610BD46
:1026A000012908B506D0022908D059B901F08EFBDE
:1026B000006808BD01F08AFB4068FAE701F086FB7C
:1026C0008068F6E70020F4E700487047BCD90108AD
:1026D0000320704713B5002451B1036801948DF8AD
:1026E000034001AA9C680DF10303A04702B010BD8E
:1026F0000846FBE7408970478089704780887047AB
:1027000083798088184480B27047C07900F07F00D8
:102710007047C079C0097047704710B5082104465A
:1027200018F08BFF204610BD7047704700F5967378
:102730000868496803C37047704770474160704735
:1027400070470000064BC0F848310023C0F84C31F8
:1027500000F5A073C0F84401C0F83C31704700BFD9
:10276000052800080123037270477047704710B4B2
:10277000C26841685410034601EB6200D20748BFAB
:102780000A599B685DF8044B48BFD3581847436803
:102790002BB183682BB9C06800F001007047184660
:1027A00070470120704710B50C21044618F045FF12
:1027B000204610BD10B51021044618F03EFF2046FB
:1027C00010BD10B54FF4AC71044618F036FF20462A
:1027D00010BD08B50AF002F8BDE808400AF0A2BB37
:1027E00010B50446D0F83C0158B10368DB6898473F
:1027F00038B1D4F83C0103689B6898470023C4F8BB
:102800003C3110BD2DE9F14FD0E9545A0746A86874
:1028100003681B6A9847B0F5F46F05D2454B464AEA
:10282000A321464819F0DAFC686803681B6A9847D8
:102830000F2803D8424B404AA421F2E7E868036816
:102840001B6A98470B2803D83E4B3B4AA521E8E773
:10285000DFF8F89009F0C2FF09F0C6FFD9F80000D0
:1028600010B10368DB689847D9F8000010B103681D
:102870001B689847DFF8D880D8F8000010B10368CB
:102880005B699847D7F8380110B103685B689847CF
:10289000D8F8000010B103681B689847D7F83801D2
:1028A00010B103689B689847E868036800215B6A79
:1028B00098474FF0000B244B03600446C0F804B067
:1028C00080F808B0A868036859465B6A98470646CE
:1028D00001F0D8FA6868036859465B6A9847314640
:1028E000054601F0B5FAC9F80040C7F83851C8F8F4
:1028F0000060E5B12B1DCAF800303368C5F808A0A8
:102900003046DB68F56398472B6828461B68984774
:10291000214630460BF068FB236820461B69984728
:1029200023685B69204601B0BDE8F04F18472B468D
:10293000E1E700BF08DA010896DA01089ADB01082E
:10294000E1DB010884DC010894DD0108082A01208C
:10295000042A0120F8B5044617460E4609F05EFF2A
:10296000104B0025C4E954760F4E1C60C4E9525543
:102970000E4B306823600E4BC4E9503503680121CB
:102980009B68C4E94E559847284601F0D3F933684F
:1029900093F876200AB1D86C00B9986811F051FF0D
:1029A0002046F8BD142A0120C829012048DD01086D
:1029B00030DD0108064BC0F848310023C0F84C3127
:1029C00000F5A073C0F84401C0F83C31704700BF67
:1029D00005280008006A7047406A704770478B8876
:1029E00080690A68DB0A50F823001044704710B56C
:1029F000C2B1137BB3B1547BD27A240204F4E064F5
:102A00001443C26998B202EB840213888B4202D14C
:102A100092F9020010BD05D8013880B204320028B6
:102A2000F3D1F7E70020F5E710B52821044618F0A8
:102A300004FE204610BD000030B589B00446BDF844
:102A400050500695BDF84C5005959DF840500495A2
:102A50009DF83C5003959DF8385002959DF83450F0
:102A600001959DF8305000950AF0FCFE064B23605E
:102A7000119BA361129BE361159B2362169B63620A
:102A8000204609B030BD00BFB8DD01080020704706
:102A900081807047C18070470181704741817047D4
:102AA0007047704770477047704710B4C488036818
:102AB000121B84885B6D091B12B25DF8044B09B2CE
:102AC00018474FF6FF7383814FF0FF33036213689B
:102AD000C361106070477047704770477047704718
:102AE00090F825201AB190F8242002B118607047A0
:102AF00090F82C00704730B50368018185B06D46B1
:102B00000146D3F8843004462846984795E80700E4
:102B10003C3484E8070005B030BD30B5036841811E
:102B200085B06D460146D3F8843004462846984760
:102B300095E807003C3484E8070005B030BD00226A
:102B4000028042808280C280704780F836107047D1
:102B500070B5036804461B6B1546984723682946E1
:102B600020465B6EBDE87040184700207047002289
:102B70004FF0FF31C0E9002182607047806C7047E0
:102B80007047704770477047704730B4C2684468F8
:102B90005510034604EB6200D20748BF62599B6898
:102BA00030BC48BFD358184743682BB183682BB952
:102BB000C06800F001007047184670470120704758
:102BC00010B54C21044618F038FD204610BD10B554
:102BD0004C21044618F031FD204610BD10B51021DF
:102BE000044618F02AFD204610BD10B54FF4F461DC
:102BF000044618F022FD204610BDD0F87C3770B591
:102C000004460D469BB10026C0F87467A0F8206703
:102C100000F5D1600AF079FD3023A4F84237A4F81A
:102C2000446704F2D4600AF070FDC4F87C67D4F8FD
:102C30007437102B2EDC5A1C04EB43030026C4F817
:102C4000742704F5D160A3F82057A3F822670AF08F
:102C50005CFDA5F13003092B1CD8D4F8783701337B
:102C600008BFC4F87867D4F8780704EBC0040A21D9
:102C7000D4F88037D4F88467A3FB013201FB062225
:102C8000591942F10003303943F1FF33C4F880177A
:102C9000C4F8843770BD90F8252012B103685B69D1
:102CA0001847704708B590F832300BB1FFF7F3FFC3
:102CB00008BD10B50446806A50B10368DB689847C8
:102CC00030B1A06A036821469B68BDE810401847F0
:102CD00010BD70B504460D4607F052F8A06C58B10F
:102CE0000368DB68984738B1A06C03682A46214620
:102CF0009B68BDE87040184770BD0000036870B560
:102D00005E6B124B1B6804468DB22BB9104B114AF7
:102D10006C21114819F062FA1049828D098891429C
:102D200003D80F4B0B4A6D21F3E713F812200D4B1C
:102D30001B6853F822000368DB6A9847281A01B21F
:102D400033462046BDE87040184700BF182A0120CE
:102D500008DE01084ADE010885DE01081C2A012080
:102D6000CCDE0108202A012000F1980399422DE9C8
:102D7000F341044606D10368DB6A312102B0BDE8A5
:102D8000F041184700F1E403994203D1036832216E
:102D9000DB6AF3E700F59873994203D103683321A6
:102DA000DB6AEBE700F5BE73994203D10368342177
:102DB000DB6AE3E700F5E473994203D10368352148
:102DC000DB6ADBE700F50573994203D1036836211E
:102DD000DB6AD3E700F51873994203D10368372102
:102DE000DB6ACBE700F52B73994203D103683821E6
:102DF000DB6AC3E700F53E73994203D103683921CA
:102E0000DB6ABBE700F55173994203D103683021B7
:102E1000DB6AB3E700F5777399421ED10025C0F84D
:102E20007457A0F8205700F5D1600AF06EFC3023EB
:102E3000A4F84237A4F8445704F2D4600AF065FCC1
:102E400004F5F2610022002304F5F06441E9022355
:102E5000C4E9002302B0BDE8F08100F58563994222
:102E60000AD103682B21DB6A98472B2384F89C370F
:102E70000123C4F87837EDE700F27443994205D195
:102E800003682D21DB6A98472D23EFE700F598634F
:102E9000994205D103687821DB6A98477823E5E7F2
:102EA00000F20C53994205D103682F21DB6A984741
:102EB0002F23DBE700F5AB63994217D10368732139
:102EC000DB6A984723686921DB6A204698472368B4
:102ED0006E21DB6A2046984723682821DB6A20465A
:102EE0009847732384F89C370023C2E700F2A45369
:102EF000994214D103686321DB6A984723686F21E4
:102F0000DB6A2046984723687321DB6A204698478E
:102F100023682821DB6A204698476323E2E700F50F
:102F2000BE63994205D103685E21DB6A98475E2340
:102F30009CE700F23C63994207D103682121DB6AD8
:102F40009847212384F89C3784E700F564739942FD
:102F500080D1D0F87857002D5ED190F89C37632B44
:102F60003AD0732B17D0212B61D10123D0F8806781
:102F7000D0F8847719462A469E4277EB050045DB58
:102F800001FB05F003FB0200A1FB03120133024425
:102F900045F10005F0E703685D21DB6A984704F519
:102FA000F063D3E90001FDF701FB6F4B0022FDF751
:102FB00055FC6BA3D3E90023FDF726FBFDF736FD97
:102FC00000EE100A18F0A6FB04F5F36383ED000A87
:102FD0000223C4F87C3754E003685D21DB6A98471C
:102FE00004F5F063D3E90001FDF7E0FA5E4B00223F
:102FF000FDF734FC5AA3D3E90023FDF705FBFDF7E9
:1030000015FD00EE100A18F041FBDDE7C4F890173B
:10301000C4F894270123DCE7012D08D190F89C37F0
:103020002F2B5DD005D82B2B1AD02D2B4CD0002365
:10303000CFE75E2B61D0782BF9D1D0F88027D0F87C
:103040008C37D0F88817D0F88467534301FB0633D8
:10305000A2FB01210B44C0F89027C0F894370EE082
:10306000D0F88037D0F88417D0F88807D4F88C6768
:103070001B1841EB0601C4F89037C4F89417C4F844
:103080007C57D4F87C37002B3FF4E4AE012B56D1AB
:10309000D4F890070A23112204F242710BF04AFF80
:1030A00004F2D4600AF031FB4FF0FF33C4F87837F4
:1030B00004F5F2610023002241E9022304F5F061E6
:1030C000C1E9002300233DE7D0F88037D0F884170A
:1030D000D0F88807D4F88C671B1A61EB0601CAE7A1
:1030E00000F5F26600F5F061D1E9000156E902232E
:1030F000FDF7ECFCC6E90001C1E703682E21DB6A9D
:10310000984704F5F26050E902E80021D4F880778E
:10311000D4F884C72A460B46AE4578EB01060ADB95
:1031200002FB0CF607FB03660135A2FB07233344C1
:1031300041F10001F0E7C4F8902743606AE7022BF1
:10314000AED104F5F363094A1B680193112101AB69
:1031500004F242700CF0E2FBA2E700BFAFF3008084
:103160006E861BF0F9210940008066400ADF0108E5
:1031700070B5036804461B6B1546984723682946BB
:1031800020465B6BBDE87040184770B504461D468D
:10319000BDF91060FFF7ECFF2368294620469B6BC2
:1031A0009847236831462046DB6BBDE870401847DE
:1031B0001B4B73B51B88018F8B4206462BD9194BCD
:1031C0001B682BB9184B194A19486C2119F006F8DD
:1031D00013F81120174B1B6853F82250164B186830
:1031E00000F0E4FD2B68019001469B6A2846984751
:1031F0002B6801991B6C0446284698472B68019957
:103200005B6A14FB00F428469847E4B2044486F84D
:10321000454002B070BD002380F84530F9E700BF9B
:103220001C2A0120182A012008DE01084ADE0108B4
:1032300085DE0108202A0120242A01204FF4807114
:1032400081840E4981624FF6FF7181854FF47F01C1
:1032500041630B49016000224FF0FF31C0E90122B8
:10326000C0E90322C0E90522C0E90722C0E9101223
:1032700002630287C2638264704700BF00DA0108FC
:1032800054DF010810B5044607F06EFD044B2360BF
:103290000023A364012384F82430204610BD00BF1E
:1032A000E4DF01082DE9F04F2DED108B04468FB0BF
:1032B0000AF0EEFC22460026EB4BE66342F8403B68
:1032C000EA4B2666C4E910364FF48073A4F86430E4
:1032D000FF2384F8663004F16C0308EE103A0CA961
:1032E0004FF6FF73C4E91266C4E91466C4E91666B2
:1032F00018EE100AA6660892ADF8303006F0A0FD70
:1033000004F19803184608EE903AFFF7BBFF04F16A
:10331000E403184609EE103AFFF7B4FF04F598737A
:10332000184609EE903AFFF7ADFF04F5BE73184654
:103330000AEE103AFFF7A6FF04F5E47318460AEE0A
:10334000903AFFF79FFF04F5057318460BEE103A0D
:10335000FFF798FF04F5187318460BEE903AFFF745
:1033600091FF04F52B7318460CEE103AFFF78AFF15
:1033700004F53E7318460CEE903AFFF783FF04F510
:10338000517318460DEE103AFFF77CFF04F5647395
:1033900018460DEE903AFFF775FF04F5777318465F
:1033A0000EEE103AFFF76EFF04F5856318460EEE39
:1033B000903AFFF767FF04F2744318460FEE103A95
:1033C000FFF760FF04F5986318460FEE903AFFF799
:1033D00059FF04F20C5304F5AB6A18460393FFF748
:1033E00051FF5046FFF74EFF04F2A45318460493D2
:1033F000FFF748FF04F5BE6304F23C6B18460593E3
:10340000FFF740FF5846FFF73DFF04F5D16318462C
:103410000693FFF713FF04F2D46318460793FFF7F0
:103420000DFF934BC4F864374FF0FF354FF4A0778E
:10343000904B0898C4F86C3732460097F023314619
:10344000C4F86847C4F87067C4F87467C4F878575C
:10345000FFF79BFE4FF07F4318EE100AA3660CA9FE
:10346000ADF8306007F059FBF023324618EE100A31
:1034700000973146FFF789FE18EE100A314606F034
:10348000A5FC18EE900A68220A214FF001094FF0BE
:103490000208FFF76DFE0CAA0BA918EE900AADF812
:1034A0002C90ADF8308007F0B1F9172304F264775F
:1034B000A4F8D03018EE900AFFF77AFE19EE100A41
:1034C000C4F8C07068223F21C4E93555FFF750FEAB
:1034D0000CAA0BA919EE100AADF82C90ADF83080AB
:1034E00007F094F91623A4F81C3119EE100AFFF71F
:1034F0005FFE19EE900AC4F80C7168227421C4E9C9
:103500004855FFF735FE0CAA0BA919EE900AADF845
:103510002C90ADF8308007F079F91523A4F86831C4
:1035200019EE900AFFF744FE1AEE100AC4F858711B
:103530009D220A21C4E95B55FFF71AFE0CAA0BA9CC
:103540001AEE100AADF82C90ADF8308007F05EF955
:103550001423A4F8B4311AEE100AFFF729FE1AEE6C
:10356000900AC4F8A4719D223F21C4E96E55FFF76B
:10357000FFFD0CAA0BA91AEE900AADF82C90ADF83D
:10358000308007F043F91323A4F800321AEE900AB2
:10359000FFF70EFE1BEE100AC4F8F0719D22742195
:1035A000C4E98155FFF7E4FD0CAA0BA91BEE100A34
:1035B000ADF82C90ADF8308007F028F91223A4F86C
:1035C0004C321BEE100AFFF7F3FD1BEE900AC4F815
:1035D0003C72D2220A21C4E99455FFF7C9FD0CAA16
:1035E0000BA91BEE900AADF82C90ADF8308007F0D7
:1035F0000DF94FF01103A4F898321BEE900AFFF773
:10360000D7FD1CEE100AC4F88872D2223F21C4E90B
:10361000A755FFF7ADFD0CAA0BA91CEE100AADF8DB
:103620002C90ADF8308007F0F1F84FF01003A4F8BB
:10363000E4321CEE100AFFF7BBFD1CEE900AC4F842
:10364000D472D2227421C4E9BA55FFF791FD0CAAB5
:103650000BA91CEE900AADF82C90ADF8308007F065
:10366000D5F80F2308E000BF70E00108C8E40108A6
:1036700058E00108692D0008A4F830331CEE900AC8
:10368000FFF796FD1DEE100AC4F8207340F20712F2
:103690003F21C4E9CD55FFF76BFD0CAA0BA91DEE28
:1036A000100AADF82C90ADF8308007F0AFF80E237B
:1036B000A4F87C331DEE100AFFF77AFD1DEE900A88
:1036C000C4F86C7340F207127421C4E9E055FFF7A7
:1036D0004FFD0CAA0BA91DEE900AADF82C90ADF889
:1036E000308007F093F80D23A4F8C8331DEE900A3C
:1036F000FFF75EFD1EEE100AC4F8B87340F2071221
:103700000A21C4E9F355FFF733FD0CAA0BA91EEEFD
:10371000100AADF82C90ADF8308007F077F80C2344
:10372000A4F814341EEE100AFFF742FD1EEE900AB4
:10373000C4F804746822A921C4F81854C4F81C54AD
:10374000FFF716FD0CAA0BA91EEE900AADF82C90FF
:10375000ADF8308007F05AF80B23A4F860341EEE61
:10376000900AFFF725FD1FEE100AC4F850749D2241
:10377000A921C4F86454C4F86854FFF7F9FC0CAAF2
:103780000BA91FEE100AADF82C90ADF8308007F0B1
:103790003DF84FF00A03A4F8AC341FEE100AFFF70F
:1037A00007FD1FEE900AC4F89C74D222A921C4F828
:1037B000B054C4F8B454FFF7DBFC0CAA0BA91FEEFD
:1037C000900AADF82C90ADF8308007F01FF809236F
:1037D000A4F8F8341FEE900AFFF7EAFC0398C4F847
:1037E000E87440F20712A921C4F8FC54C4F800554B
:1037F000FFF7BEFC0CAA0BA90398ADF82C90ADF80E
:10380000308007F003F80823A4F844350398FFF745
:10381000CFFCC4F8347533220A215046C4F8485509
:10382000C4F84C55FFF7A4FC0CAA0BA95046ADF800
:103830002C90ADF8308006F0E9FF0723A4F890350E
:103840005046FFF7B5FC0498C4F8807533223F2139
:10385000C4F89455C4F89855FFF78AFC0CAA0BA934
:103860000498ADF82C90ADF8308006F0CFFF062319
:10387000A4F8DC350498FFF79BFC0598C4F8CC75D8
:1038800033227421C4F8E055C4F8E455FFF770FC06
:103890000CAA0BA90598ADF82C90ADF8308006F075
:1038A000B5FF0523A4F828360598FFF781FCC4F876
:1038B00018763322A9215846C4F82C56C4F830563D
:1038C000FFF756FC0CAA0BA95846ADF82C90ADF8A2
:1038D000308006F09BFF0423A4F874365846FFF7A7
:1038E00067FC1823C4F8647600930698C4F87856E9
:1038F000D523C4F87C5603221021FFF746FC714FF4
:10390000A4F8BC664FF07F43C4F8B83604F5E4630E
:1039100009933B68C4F8C466C4F8C856C4F8CC66BA
:103920002BB9694B694A6021694818F057FC694B0B
:103930001B88012B03D8684B644A6121F4E7674B6D
:1039400049461868DFF89C9100F030FA644A034653
:10395000112109980BF026FE099A0698C4F8D02682
:1039600003230CA9ADF83430CDF8309006F0F4FE06
:1039700018220092D5231B2207981021FFF705FC7F
:103980003B68C4F814574FF07F42C4F80427A4F8EA
:103990000867C4F81067C4F8186704F24275002B72
:1039A000BFD04C4A1388002BC5D04C4B3146186809
:1039B00000F0FCF94A4A0346112128460BF0F2FDBB
:1039C0000798C4F81C570CA9251DCDF83090ADF808
:1039D000348006F0C1FE0899284605F04BF818EE31
:1039E000101A284605F046F818EE901A284605F0F9
:1039F00041F819EE101A284605F03CF819EE901A15
:103A0000284605F037F81AEE101A284605F032F865
:103A10001AEE901A284605F02DF81BEE101A2846CB
:103A200005F028F81BEE901A284605F023F81CEE46
:103A3000101A284605F01EF81CEE901A284605F0CC
:103A400019F81DEE101A284605F014F81DEE901A0C
:103A5000284605F00FF81EEE101A284605F00AF861
:103A60001EEE901A284605F005F81FEE101A28469B
:103A700005F000F81FEE901A284604F0FBFF0399AA
:103A8000284604F0F7FF5146284604F0F3FF049956
:103A9000284604F0EFFF0599284604F0EBFF59464D
:103AA000284604F0E7FF0699284604F0E3FF28467D
:103AB000079904F0DFFF20460FB0BDEC108BBDE886
:103AC000F08F00BF182A012008DE010810DF01086E
:103AD00085DE01081C2A0120CCDE0108242A0120F1
:103AE00048DF010800DA01087047000030B5154DC5
:103AF0002C78BFF35B8F14F001048DB01ED12846E3
:103B000017F09DFDD0B13F2307930F4B06930F4B4A
:103B10000F49104808940122CDE904430423CDE95C
:103B20000132CDE909440A2303940094FEF784FF8F
:103B3000094818F071FB284617F08DFD05480DB0B7
:103B400030BD00BFC01B0020A8F70108B4F7010872
:103B500028F60108C41B0020E93A0008704700005D
:103B600030B5164D2C78BFF35B8F14F001048DB087
:103B700020D1284617F063FDE0B13F230793104B97
:103B80000693104B104911480894CDE904430123D2
:103B9000CDE9023304220323CDE90032CDE9094403
:103BA00014231922FEF748FF094818F035FB284670
:103BB00017F051FD05480DB030BD00BFEC1B0020D3
:103BC000ACF70108B8F7010838F60108F01B00202F
:103BD0005D3B00087047000030B5154D2C78BFF3F1
:103BE0005B8F14F001048DB01ED1284617F027FD1D
:103BF000D0B13F2307930F4B06930F4B0F4910484B
:103C000008940122CDE904430423CDE90132CDE932
:103C10000944282303940094FEF70EFF094818F086
:103C2000FBFA284617F017FD05480DB030BD00BF60
:103C3000181C0020B0F70108BCF7010898F701082C
:103C40001C1C0020D53B0008002070470020704756
:103C50000EB403B503AB002153F8042B019309F014
:103C600033FC02B05DF804EB03B070470CB407B549
:103C700004AB53F8042B019309F026FC03B05DF864
:103C800004EB02B070470000436C10B5044673B3F8
:103C9000038F2BB9184B194AC021194818F09EFA06
:103CA000C38E00EB43035B8C0BB30AF0CCFE238F77
:103CB000012B03D8134B144AC521EEE7E28E531CA7
:103CC0009BB2092B194688BFA3F10A0104EB4101FD
:103CD00040F63F10498C814209D10A2B04EB420285
:103CE00028BF002304EB4303508C588451842046A2
:103CF000BDE810400AF0AABDA0E00108A9E0010853
:103D000054E101089EE10108ACE101080AF065BD3B
:103D100010B586B002AC84E806001A460AAB0593DB
:103D20000193099B00932146089B08F070F806B0A8
:103D300010BD000038B518BB124B13481B6813495F
:103D4000B3B11A689C681A4402605A681A440A603F
:103D50001C440F4B00221A8000F038F8054600F092
:103D600033F80C4B1C600C4B1D600C4B188007E0AB
:103D70000B4B03600B4B0B600B4B1C68002CE8D10A
:103D800038BD00BF441C0020481C00204C1C0020F3
:103D9000501C0020182A0120202A01201C2A012062
:103DA00028F80108C0F70108BCF80108044B1B689B
:103DB00053F82100034B1B6803EB4000704700BF22
:103DC0004C1C0020481C00201A20704700487047F7
:103DD000541C002010B5FFF7C3FE044C2060FFF711
:103DE000FBFE6060FFF782FEA06010BD541C002047
:103DF000704710B54FF4AC71044617F01EFC204616
:103E000010BD10B50446D0F8540100F012F8204659
:103E1000BDE8104008F090BB10B50446FEF79AFDCF
:103E2000014B2360204610BD88E201080022026099
:103E300070477047704704387047704710B51021BD
:103E4000044617F0FAFB204610BDA0F10400F5E788
:103E500010B500228260044AC16002F108042032D9
:103E60000460426010BD00BFCCE20108704770479B
:103E7000FEF787BE10B54FF4F461044617F0DDFB82
:103E8000204610BD10B50446FFF70CFA014B236025
:103E9000204610BDFCE20108F02070474FF4A070EE
:103EA00070472920FEF7BCB82820FEF7B9B808B53E
:103EB000FEF78AF8CA20FEF7B3F8C320FEF794F89D
:103EC0000820FEF791F85020FEF78EF8CF20FEF77D
:103ED000A7F80020FEF788F8C120FEF785F830200B
:103EE000FEF782F8ED20FEF79BF86420FEF77CF8E1
:103EF0000320FEF779F81220FEF776F88120FEF70E
:103F000073F8E820FEF78CF88520FEF76DF80020A6
:103F1000FEF76AF87820FEF767F8CB20FEF780F806
:103F20003920FEF761F82C20FEF75EF80020FEF73E
:103F30005BF83420FEF758F80220FEF755F8F7201A
:103F4000FEF76EF82020FEF74FF8EA20FEF768F83B
:103F50000020FEF749F80020FEF746F8B120FEF7F2
:103F60005FF80020FEF740F81B20FEF73DF8B62072
:103F7000FEF756F80A20FEF737F8A220FEF734F8CD
:103F8000C020FEF74DF81020FEF72EF8C120FEF7F6
:103F900047F81020FEF728F8C520FEF741F8452025
:103FA000FEF722F81520FEF71FF8C720FEF738F8B5
:103FB0009020FEF719F83620FEF732F8C820FEF7F9
:103FC00013F8F220FEF72CF80020FEF70DF8B020D1
:103FD000FEF726F8C220FEF707F8B620FEF720F815
:103FE0000A20FEF701F8A720FDF7FEFF2720FDF7C6
:103FF000FBFF0420FDF7F8FF2A20FEF711F8002050
:10400000FDF7F2FF0020FDF7EFFF0020FDF7ECFFCA
:10401000EF20FDF7E9FF2B20FEF702F80020FDF767
:10402000E3FF0020FDF7E0FF0120FDF7DDFF3F206B
:10403000FDF7DAFFF620FDF7F3FF0120FDF7D4FFCF
:104040000020FDF7D1FF0620FDF7CEFF2C20FDF765
:10405000E7FFC820FEF732F82620FDF7E1FF012038
:10406000FDF7C2FFE020FDF7DBFF0F20FDF7BCFFEF
:104070002920FDF7B9FF2420FDF7B6FF0C20FDF73E
:10408000B3FF0E20FDF7B0FF0920FDF7ADFF4E2076
:10409000FDF7AAFF7820FDF7A7FF3C20FDF7A4FF5E
:1040A0000920FDF7A1FF1320FDF79EFF0520FDF776
:1040B0009BFF1720FDF798FF1120FDF795FF0020CB
:1040C000FDF792FFE120FDF7ABFF0020FDF78CFF2D
:1040D0001620FDF789FF1B20FDF786FF0420FDF762
:1040E00083FF1120FDF780FF0720FDF77DFF3120C2
:1040F000FDF77AFF3320FDF777FF4220FDF774FFCD
:104100000520FDF771FF0C20FDF76EFF0A20FDF77B
:104110006BFF2820FDF768FF2F20FDF765FF0F20BC
:10412000FDF762FF1120FDF77BFFC820FDF7C6FFFA
:104130002920FDF775FFBDE808402C20FDF770BF72
:1041400008B5FDF741FF0321D320FDF785FF80B2BD
:1041500008BD10B5C4B2022203212046FDF7EAFED5
:104160000A20FDF72FFF204600220321FDF7E2FE83
:10417000BDE810400220FDF725BF38B50446E4B283
:10418000FDF7D6FE00212046FDF7ECFE0121054695
:104190002046FDF7E7FE40EA052080B238BD10B5A5
:1041A000C4B240212046FDF7DDFE030607D54C21B1
:1041B0002046FDF7D7FE003818BF012010BD0122B0
:1041C0004B212046FDF7B6FE204600224B21FDF78D
:1041D000B1FE0020F2E773B50423C4B20E461546C3
:1041E000D7210DEB03022046FDF7D6FE019B1BBA3B
:1041F0001A0DC3F30B23328020462B8001224B2162
:10420000FDF798FE00224B212046FDF793FE02B0F9
:1042100070BD000010B50A4B1A78904204460DD0CC
:10422000597888420AD00AB141B901229C54FDF75D
:104230007FFE2046BDE81040FFF78BBF10BD00BFDA
:10424000601C002010B5C4B209212046FDF78AFE8B
:1042500040F00100C2B209212046BDE81040FDF740
:1042600069BE10B5C4B209212046FDF77BFE0921C5
:1042700000F0FE022046BDE81040FDF75BBE38B5F9
:10428000C4B20D4620460A21FDF76CFE2843C2B297
:104290000A212046BDE83840FDF74CBE07B5019025
:1042A000FDF747FE01981F21FFF7E9FF019803B0D2
:1042B0005DF804EBFFF7C6BF38B5C4B20D46204623
:1042C0000A21FDF74FFE20EA0500C2B20A2120466E
:1042D000BDE83840FDF72EBE10B50446FFF7C1FF1C
:1042E00020461F21BDE81040FFF7E6BF10B5C0B261
:1042F0000C460B21FDF736FE204010BD1F21FFF7B5
:10430000F5BF0A46C0B20B21FDF714BE1F21FFF70F
:10431000F8BF38B5C4B20D4620461721FDF722FE7E
:1043200020EA0500C2B217212046BDE83840FDF75B
:1043300001BE70B5C4B2064604212046FDF712FE48
:10434000042100F0FB0205462046FDF7F3FD304650
:10435000F021FFF7DEFF05F0F80220460421FDF70B
:10436000E9FD492220212046FDF7E4FD0220FDF76A
:1043700029FE204601222121FDF7DCFD20469A225C
:104380004121FDF7D7FD204601224A21FDF7D2FD4C
:10439000204601224B21FDF7CDFD204600224B2176
:1043A000FDF7C8FD204601225621FDF7C3FD20463A
:1043B00001225821FDF7BEFD204601224021FDF7D4
:1043C000B9FD2046FF220B21FDF7B4FDBDE870408A
:1043D0000220FDF7F7BD0000054BD3F8882042F41A
:1043E0007002C3F888204FF000629A60704700BFE7
:1043F00000ED00E008B50B4B1A6842F400721A6039
:104400001A6842F480621A601A6842F480721A6074
:10441000032000F02FF80020FEF792F8FDF75CFE75
:10442000002008BD003C0240034A044B11681B7881
:104430000B441360704700BF641C0020780000200C
:10444000014B1868704700BF641C002038B5044653
:10445000FFF7F6FF631C1CBF054B1B78054618BF12
:10446000E418FFF7EDFF431BA342FAD338BD00BFAA
:10447000780000200749CA6822F4E06203021204AF
:1044800003F4E063120C134343F0BF6343F40033BF
:10449000CB60704700ED00E0164B30B5DC68C4F32C
:1044A0000224C4F10705231D042D28BF0425062B73
:1044B0004FF0FF338CBF033C002403FA05F521EADB
:1044C0000501A34022EA0302A140002841EA0203B9
:1044D000ACBF00F16040084A4FEA0313B8BF00F0D8
:1044E0000F00DBB2AABF00F56140135480F800331F
:1044F00030BD00BF00ED00E014ED00E0002808DB57
:104500004209012300F01F0003FA00F0014B43F8B9
:104510002200704700E100E010B5044650B1437935
:1045200003F0FF0213B90271FDF7F6FD0123637179
:10453000002010BD0120FCE710B5044630B390F810
:10454000393003F0FF021BB980F83820FDF7FCFD7D
:1045500022686168022384F83930136823F44033F9
:104560000B431360536BA16823F007030B435363A2
:10457000136CE16823F47F5323F03F030B43136470
:1045800000200123E06384F8393010BD0120FCE7EE
:1045900070477047036870B55E681D68F20704468F
:1045A00014D5E90512D51A6822F480721A60C26B1C
:1045B00042F00102C26301229A60042380F839307C
:1045C000002380F83830436903B19847B20616D506
:1045D000AB0414D523681A6822F400521A60202212
:1045E0009A60E36B43F00203E363042384F83930F9
:1045F000002384F8383063690BB1204698473007B0
:1046000016D5290514D523681A6822F400621A60A9
:1046100008229A60E36B43F00403E363042384F805
:104620003930002384F8383063690BB1204698474D
:1046300072070BD56B0509D523681A6822F48062CE
:104640001A6004229A602046FFF7A2FFB00714D533
:10465000A90512D523681A6822F400721A60022292
:104660009A60E36BE363012384F83930002384F814
:10467000383023690BB120469847F20613D5EB0476
:1046800011D523681A6822F480521A6010229A60A9
:10469000E36BE363012384F83930002384F8383076
:1046A0002046FFF776FF70BDF0B590F83830012B4B
:1046B0004FF002032BD0012280F8393080F83820E7
:1046C00000EB0113D3E907425D6A184F44EA024246
:1046D000093C012C9CBF05F07F431A434FEA0116A9
:1046E000036888BF42EA056299B9596A39400A43AA
:1046F0005A62012C82699A6103D8426A22F07F4291
:104700009A62012380F83930002380F83830184647
:10471000F0BDD96939400A43DA618219012C9269E6
:104720001A619CBF25F07F451D62EAE7F0FFFC009F
:104730002DE9F74FDFF8C0916D4A00230D68012481
:104740009C4004EA050CAC4340F0B9804D6805F08C
:1047500003044FEA43080326671E06FA08F6012FF2
:104760006FEA060634D8876807EA060ECF6807FAAC
:1047700008F747EA0E078760476827EA0C0EC5F37B
:1047800000179F4047EA0E074760C76807EA060E12
:104790008F6807FA08F747EA0E07022CC76019D19D
:1047A0004FEAD30A00EB8A0A03F0070BDAF820700D
:1047B0004FEA8B0B4FF00F0E0EFA0BFE27EA0E0E90
:1047C0000F6907FA0BF747EA0E07CAF8207001E0F5
:1047D000032CDAD1076804FA08F43E40264315F4A6
:1047E000403F06606BD04FF0000ACDF804A0D9F826
:1047F0004460404C46F48046C9F84460D9F84460AF
:1048000006F480460196019E23F0030606F18046D9
:1048100006F59C3603F0030ED6F808804FEA8E0E9C
:104820000F2707FA0EF7A04228EA07074ED004F533
:104830008064A0424CD004F58064A0424AD004F5C4
:104840008064A04248D004F58064A04246D004F5BC
:104850008064A04244D004F58064A04242D004F5B4
:104860008064A04240D004F58064A0423ED004F5AC
:104870008064A0420CBF09240A2404FA0EF43C43CD
:10488000B46094686FEA0C06EF0254BF34404CEAFF
:1048900004049460D468AF0254BF34404CEA04046A
:1048A000D4605468AF0354BF34404CEA04045460ED
:1048B0001468ED0354BF34404CEA0404146001331F
:1048C000102B7FF43BAF03B0BDE8F08F5446D4E724
:1048D0000124D2E70224D0E70324CEE70424CCE766
:1048E0000524CAE70624C8E70724C6E70824C4E766
:1048F000003C014000000240003802400AB18161E2
:1049000070470904FBE7436901EA030221EA030156
:1049100041EA02418161704701684B6913F4806389
:104920004FF0000210D06FF480634B6120230263CC
:1049300080F83D3080F83E20036C80F83C2043F046
:104940000403036401207047184670472DE9F846B8
:1049500006460F4691461D464FEA114A3368BAF1A2
:10496000010F0CBF5C699C6927EA0404A4B2B4FA85
:1049700084F46409A14501D0002017E06A1CEED040
:10498000FFF75EFD089BC01AA84201D8002DE5D1B3
:1049900000232022336386F83D2086F83E30326CB7
:1049A00086F83C3042F0200232640120BDE8F886EF
:1049B0002DE9F04104460F46164698462568686979
:1049C00027EA000080B2B8B16B695A0516D52B688A
:1049D00043F400732B606FF480636B61202200232B
:1049E000236384F83D2084F83E30226C42F00402B8
:1049F000226484F83C300120BDE8F081731CDED0D5
:104A0000FFF71EFDA0EB0800B04201D8002ED5D163
:104A100000232022236384F83D2084F83E30226C5A
:104A200042F02002E4E770B504460D4616462168C0
:104A30004B6913F0400301D0002010E04A69D20610
:104A40000ED56FF010024A612022236384F83D20C6
:104A500084F83E30226C226484F83C30012070BD22
:104A6000FFF7EEFC801BA84201D8002DDFD1002308
:104A70002022236384F83D2084F83E30226C42F0EB
:104A80002002E8E770B504460D46164623685B69C8
:104A90005B0701D5002070BD2046FFF73DFFA8B998
:104AA0006A1CF3D0FFF7CCFC801BA84201D8002D74
:104AB000ECD100232022236384F83D2084F83E308B
:104AC000226C84F83C3042F0200222640120E2E7AC
:104AD00070B504460D46164623685B691B0601D572
:104AE000002070BD2046FFF717FFA8B96A1CF3D05D
:104AF000FFF7A6FC801BA84201D8002DECD10023B3
:104B00002022236384F83D2084F83E30226C84F810
:104B10003C3042F0200222640120E2E72DE9F0431C
:104B20001546026885B0DDE90C789946136843F4B0
:104B3000807313600E463B46CDF8008000224FF094
:104B400001110446FFF702FF236838B11B68DB053B
:104B500002D54FF40073236403200AE006F0FE063A
:104B60001E61194943463A462046FFF721FF18B116
:104B7000012005B0BDE8F083236803905A690392D1
:104B80009B690393424639462046039BFFF7A0FFEB
:104B900040B1236C042B01BF2268136843F40073F7
:104BA0001360E5E7B9F1010F236802D1EDB21D6191
:104BB000DFE72A0A1A61394642462046FFF788FF96
:104BC0000028E6D12368F1E7020001002DE9FF4744
:104BD0009A46036815461A6842F480621A601A6899
:104BE000DDE90C7842F480721A600E463B46CDF83F
:104BF000008000224FF001110446FFF7A7FE236852
:104C000048B11B68DB0502D54FF400732364032011
:104C100004B0BDE8F0875FFA86F906F0FE061E6173
:104C20002A4943463A462046FFF7C2FE08B1012012
:104C3000EEE7236803905A6903929B690393424607
:104C400039462046039BFFF743FF40B1236C042BFA
:104C500001BF2268136843F400731360E7E7BAF1F9
:104C6000010F23681AD1EDB21D6142463946204634
:104C7000FFF72EFF0028E9D12268136843F4807300
:104C800013604FF001110246CDF800803B462046EC
:104C9000FFF75CFE226860B11368B3E72A0A1A6165
:104CA000394642462046FFF713FF0028CED123683D
:104CB000D9E749F001031361044943463A462046C7
:104CC000FFF776FE003818BF0120A1E702000100BF
:104CD00070B5044608B9012070BD90F83D3003F06E
:104CE000FF021BB980F83C20FDF750FA242384F81A
:104CF0003D3023681A6822F001021A601A6842F4F3
:104D000000421A601A6822F400421A6000F074FE31
:104D10003F4B65689D4294BF3E4B3F4B98428CBFD2
:104D200000230123002BD6D12268394E53683B491A
:104D3000B0FBF1F123F03F030B43B542536088BF52
:104D40004FF49676136A88BF714323F03F0384BF04
:104D50004FF47A76B1FBF6F1013119431162D16952
:104D6000431E2B4821F44F41854221F0FF0132D8E8
:104D70006D0040F6FC70B3FBF5F30133034242D003
:104D8000C3F30B030B43D361D4E90730116803432A
:104D900021F0C0010B4313609168D4E9030321F4AF
:104DA0000341034321F0FF010B439360D4E9053035
:104DB000D168034321F0FF010B43D360136843F034
:104DC0000103136000202023206484F83D30206319
:104DD00084F83E0080E7A06850B905EB4505B3FBB9
:104DE000F5F30133C3F30B037BB143F40043C9E78D
:104DF00019204543B3FBF5F30133C3F30B0323B190
:104E000043F44043BEE70423BCE70123BAE700BFF5
:104E1000A08601007F841E00FF083D0040420F0075
:104E20002DE9F743044699460C9E0F469046FFF73E
:104E300007FB94F83D30202B054603D0022003B039
:104E4000BDE8F08300903C49192301222046FFF77A
:104E50007DFD0028F2D194F83C30012BEED0206883
:104E6000012384F83C300368D9075EBF036843F030
:104E700001030360036823F400630360212384F8C3
:104E80003D30402384F83E30002323640A9B636254
:104E9000BDF82C306385638D2385284BE362CDE913
:104EA00000654B46424639462046FFF737FE00284C
:104EB0002AD00120C3E7FFF70BFE40B1236C042B7F
:104EC00001BF2268136843F400731360F1E7636A5B
:104ED00027681A4612F8011B39616262628D218DC2
:104EE000013A92B262857A69481E80B252072085E3
:104EF0000AD548B15A783A6102336362638D013B47
:104F000002399BB221856385238D2A46314620468E
:104F1000002BD0D1FFF7B6FD0028CFD1226813684F
:104F200043F400731360202384F83D3084F83C0080
:104F300084F83E0083E700BF020010000000FFFF7E
:104F40002DE9F043044687B09946109F0D469046E0
:104F5000FFF776FA94F83D30202B064604D0022560
:104F6000284607B0BDE8F083009076491923012256
:104F70002046FFF7EBFC0028F1D194F83C30012BE0
:104F8000EDD02068012384F83C300368DB075EBF66
:104F9000036843F001030360036823F400630360C4
:104FA000222384F83D30402384F83E3000232364DC
:104FB0000E9B6362BDF83C306385638D2385624B35
:104FC000E3622946CDE900764B4642462046FFF78C
:104FD000FDFD054608B10125C2E7228D2368B2B95F
:104FE00002905A6902929A690292029A1A6842F4ED
:104FF00000721A60DFF85481238D002B2CD12022FF
:1050000084F83D2084F83C3084F83E30A8E7012A3B
:105010000AD11A6822F480621A6003905A690392D6
:105020009A690392039AE1E7022A0ED11A6822F4E0
:1050300080621A601A6842F400621A6004905A6929
:1050400004929B690493049BD4E705905A690592E6
:105050009B690593059BCDE7032B56D8012B15D1F2
:10506000324639462046FFF7DEFC0028B3D12368DC
:105070001A69636A1A70636A01336362238D013BA4
:105080002385638D013B9BB26385B5E7022B0096B8
:105090003B464FF000024146204619D1FFF756FC2F
:1050A000002898D123681A6842F400721A601A69BD
:1050B000636A1A70626A531C6362238D013B238505
:1050C000638D013B9BB2638523681B695370D2E7F4
:1050D000FFF73CFC00287FF47EAF23681A6822F4B7
:1050E00080621A601A69636A1A70636A00960133F3
:1050F0006362238D013B2385638D013B9BB26385F6
:1051000002463B4641462046C8E7324639462046DD
:10511000FFF789FC00287FF45EAF23681A69636A91
:105120001A70626A531C6362238D013B2385638D71
:10513000013B9BB263852368596949077FF55CAFE2
:10514000C3E700BF020010000000FFFF04000100E1
:1051500010B590F83D30202BDCB216D1242380F816
:105160003D3003681A6822F001021A605A6A22F080
:1051700010025A625A6A114359621A6842F00102D7
:105180001A6080F83D40002010BD0220FCE730B5D9
:1051900090F83D30202BDCB216D10268242380F831
:1051A0003D30136823F001031360556A4FF6F07326
:1051B0002B400B439BB25362136843F0010313600F
:1051C00080F83D40002030BD0220FCE70068D1F8A7
:1051D00000C0D201843283182DE9F043C6685D68AF
:1051E0004C68D1F8189005F470455D60C5680CF105
:1051F0000107C5F30B45C6F30B463D44264445EA7B
:1052000006455D60C568CE68C5F30A052E449D68F5
:1052100005F470459D60C7688D68C7F30A070135BE
:105220003D4445EA06459D601D690E6925F0070568
:105230001D614FF0000E1E619D6991F8327091F86A
:105240003180C3F818E091F8305045EA096545EA25
:10525000082545EA07459D615D6925F0FF055D610B
:105260004D695D61DD6925F4E06525F00705DD61C7
:10527000D1E907573D43DD619D6A4D6AC3F828E0D7
:105280009D621EB3012E23D0B51E022D22D9072EFA
:105290000CBF02250125DE6A06F0E026DE62A4EBE3
:1052A0000C048E6AC96A6C436E43033444EA0644B4
:1052B000DC621C6B24F4FF6424F007041C63196394
:1052C000835843F001038350BDE8F0830425E2E7EF
:1052D0000325E0E70225DEE738B50446002863D061
:1052E00090F8A13003F0FF021BB980F8A020FCF772
:1052F000A9FF022384F8A13023689A6922F0704242
:105300009A61D4E901200243E06899690243206967
:1053100002430A439A619A68244960690A409A6084
:105320009A6842EA0042A06902439A60DA68E0693A
:105330000A40DA60DA6842EA0042206A0243DA6030
:105340001A69606A0A401A611A6942EA0042A06A50
:1053500002431A615A69114059615A69E16A42EA85
:105360000142216B0A435A61D96A94F8360094F8D5
:10537000355001F07F41D962D96A94F834200A434C
:1053800042EA052242EA0042DA625A6B42F0060221
:105390005A639A6942F001029A6100200123C4F81D
:1053A000A40084F8A13038BD0120FCE700F800F02B
:1053B00070477047036870B59E6B5D6B720704465B
:1053C00014D5690712D55A6B22F004025A630422DD
:1053D000DA63D0F8A43043F00103C0F8A43000230E
:1053E00080F8A12080F8A030FFF7E2FFB20716D5C1
:1053F000AB0714D523685A6B22F002025A630222CB
:10540000DA63D4F8A4301343C4F8A430042384F836
:10541000A130002384F8A0302046FFF7C9FFF00731
:1054200010D5E9070ED523685A6B22F001025A63A2
:105430000122DA63002384F8A12084F8A0302046FA
:10544000FCF722FB320711D52B070FD523685A6BC7
:1054500022F008025A630822DA63012384F8A1309B
:10546000002384F8A0302046FFF7A3FF70BD2DE98C
:10547000F04190F8A030012B06460F4694464FF0BD
:1054800002001FD04FF0010886F8A08086F8A10026
:1054900034240D4604FB02640FCD38340FC40FCD05
:1054A0000FC40FCD0FC42B682360304662463946C7
:1054B000FFF78CFE33680020C3F8248086F8A180B3
:1054C00086F8A000BDE8F08190F8A030012B4FF0E5
:1054D000020312D080F8A13003685A6B22F0010257
:1054E0005A63074A11645A6B42F001025A6301235E
:1054F00080F8A130002380F8A0301846704700BF24
:10550000006801402DE9F341044640B30368DD071C
:1055100010D4236898075ED423681A0700F1A0808E
:1055200023685B0700F1C080A069002840F0288153
:1055300000202BE08F4B9A6802F00C02042A07D05F
:105540009A6802F00C02082A0BD15A68510208D559
:10555000884B1B689A03DCD56368002BD9D10120E6
:1055600014E06268B2F5803F13D11A6842F48032C9
:105570001A60FEF765FF7F4E054633689B03C8D46B
:10558000FEF75EFF401B6428F7D9032002B0BDE898
:10559000F081784DB2F5A02F2B6807D143F480231A
:1055A0002B602B6843F480332B60E2E723F48033D5
:1055B0002B602B6823F480232B60002AD9D1FEF7BF
:1055C0003FFF06462B689F03A3D5FEF739FF801BDC
:1055D0006428F7D9D9E7674B9A6812F00C0F07D007
:1055E0009A6802F00C02082A11D15B685E020ED4A0
:1055F000604A13689D0702D5E368012BAFD1136899
:10560000216923F0F80343EAC103136084E7E268E9
:10561000594BB2B101221A60FEF712FF554D0646F2
:105620002B68980707D52B68226923F0F80343EA13
:10563000C2032B6070E7FEF703FF801B0228EFD93F
:10564000A3E71A60FEF7FCFE4A4E05463368990749
:105650007FF562AFFEF7F4FE401B0228F6D994E70F
:105660006269454B82B10122C3F8802EFEF7E8FE45
:10567000404E0546736F9F073FF552AFFEF7E0FEC1
:10568000401B0228F6D980E7C3F8802EFEF7D8FE2B
:10569000384E0546736F98077FF542AFFEF7D0FE90
:1056A000401B0228F6D970E7324B1A6C12F0805278
:1056B00028D101921A6C42F080521A641B6C03F0DC
:1056C00080530193019B01272C4D2B68D9051BD5D5
:1056D000A368284D012B27D12B6F43F001032B67C3
:1056E000FEF7AEFE234E054641F28838336F9B0726
:1056F00039D5002F3FF418AF1E4A136C23F08053A6
:10570000136411E70027DFE72B6843F480732B60F5
:10571000FEF796FE06462B68DA05D9D4FEF790FE12
:10572000801B0228F7D930E7052B04D12B6F43F0FB
:1057300004032B67D0E72A6F22F001022A672A6F41
:1057400022F004022A67002BCAD1FEF779FE41F24B
:10575000883806462B6F9807CBD5FEF771FE801B65
:105760004045F7D911E7FEF76BFE401B4045BDD918
:105770000BE700BF003802400000474200700040C5
:10578000364DAB6803F00C03082B3DD0344B0022A0
:1057900002281A662BD1FEF753FE06462B689901A4
:1057A0001FD4D4E907321343626A43EA8213E26AE0
:1057B00043EA0263A26A5208013A43EA02436B6079
:1057C000274B264D01221A66FEF73AFE04462B6847
:1057D0009A013FF5ADAEFEF733FE001B0228F6D965
:1057E000D3E6FEF72DFE801B0228D7D9CDE6FEF7C3
:1057F00027FE04462B689B017FF59AAEFEF720FE3C
:10580000001B0228F6D9C0E601283FF4BFAE6B6842
:10581000E26903F4800191427FF4A1AE216A03F0B2
:105820003F028A427FF49BAE616A47F6C0721A401B
:10583000B2EB811F7FF493AEA26A520803F44031A9
:10584000013AB1EB024F7FF48AAEE26A03F0706373
:10585000B3EB026F3FF46CAE81E600BF003802404C
:1058600000004742134908B58B6803F00C03042B72
:105870001CD0082B1CD14A684B68496813F480037C
:1058800014BF0D480D48C1F3881118BF002302F062
:105890003F02A1FB0001FBF769F9064B5B68C3F30C
:1058A000014301335B00B0FBF3F008BD0248FCE7A5
:1058B0000248FAE70038024000127A000024F4009F
:1058C0002DE9F0410D46044610B90120BDE8F081F4
:1058D000444B1A6802F00F028A4228D322689707C5
:1058E0002DD4D00741D43F4B1A6802F00F02AA42D0
:1058F00066D8226851076CD4130707D53A4A216944
:10590000936823F4604343EAC1039360FFF7AAFF5F
:10591000354B364A9B68C3F30313D35CD840344BF2
:105920001860344B1868FCF70BFE0020CEE7CAB2B3
:105930001A701B6803F00F038B42C6D1CEE72A4BC7
:1059400012F0040F1EBF996841F4E05199601607E8
:1059500042BF996841F4604199602349A0688B680F
:1059600023F0F00303438B60BBE762681E4B012A00
:105970001CD11B6813F4003FA7D01B4EB36823F063
:1059800003031343B360FEF75BFD41F2883807461B
:10599000B368626803F00C03B3EB820FA3D0FEF789
:1059A0004FFDC01B4045F3D903208FE7911E01290D
:1059B0001B6802D813F0007FDEE713F0020FDBE76D
:1059C000EAB21A701B6803F00F03AB427FF47DAF9D
:1059D0008FE70549E0688B6823F4E05303438B604D
:1059E0008AE700BF003C0240003802402CE3010877
:1059F000740000207C000020044B054A9B68C3F320
:105A00008223D35C034A1068D840704700380240B4
:105A10003CE30108740000200F2303600B4B9A68DD
:105A200002F0030242609A6802F0F00282609A6813
:105A300002F4E052C2609B68DB0803F4E0530361A8
:105A4000034B1B6803F00F030B60704700380240E4
:105A5000003C0240036813F0430FF7B5044640F0E2
:105A60008C80236813F00C0F45D08B4B8B4D00229C
:105A70001A67FEF7E5FC06462B689F0000F1CF8011
:105A800021684E0715D5D4E90403D5F888201B06F4
:105A900002F0E04243EA80131343C5F88830D5F89A
:105AA0008C30226A23F4F853013A43EA0223C5F802
:105AB0008C300D0714D5794AA369D2F88810206973
:105AC0001B0701F0706143EA80130B43C2F8883072
:105AD000D2F88C30616A23F440330B43C2F88C3027
