:020000040800F2
:1000000000000320197B0008AF290008B12900086F
:10001000B3290008B5290008B7290008000000002E
:100020000000000000000000000000002173000834
:10003000B929000800000000B1730008CD6C000869
:10004000697B0008697B0008697B0008697B000800
:10005000697B0008697B0008697B0008697B0008F0
:10006000697B0008697B0008697B0008697B0008E0
:10007000697B0008697B0008697B0008697B0008D0
:10008000697B0008697B0008697B0008697B0008C0
:10009000697B0008697B0008697B0008697B0008B0
:1000A000697B0008697B0008697B0008697B0008A0
:1000B000697B0008697B0008697B0008697B000890
:1000C000697B0008697B0008697B0008697B000880
:1000D000697B0008697B0008697B0008697B000870
:1000E000697B0008697B0008697B0008697B000860
:1000F000697B0008697B0008697B0008697B000850
:10010000697B0008697B0008697B0008697B00083F
:10011000697B0008697B0008BD290008697B00082D
:10012000697B0008697B0008697B0008697B00081F
:10013000697B0008697B0008697B0008697B00080F
:10014000697B0008697B0008697B0008697B0008FF
:10015000697B0008697B0008697B0008697B0008EF
:10016000697B0008697B0008697B0008697B0008DF
:10017000697B0008697B0008697B000800000000BB
:10018000697B0008697B0008697B0008697B0008BF
:10019000697B0008697B0008697B0008697B0008AF
:0C01A000C9290008697B0008D529000867
:1001B00010B5054C237833B9044B13B10448AFF3A1
:1001C00000800123237010BD6001002000000000AA
:1001D0004CAD010808B5034B1BB103490348AFF30D
:1001E000008008BD00000000640100204CAD010843
:1001F00053B94AB9002908BF00281CBF4FF0FF318E
:100200004FF0FF3000F072B9ADF1080C6DE904CE8B
:1002100000F006F8DDF804E0DDE9022304B07047E1
:100220002DE9F047089E04468846002B4BD18A42B0
:10023000154667D9B2FA82F24AB1C2F1200701FA33
:1002400002F320FA07F7954047EA030894404FEA83
:10025000154E230CB8FBFEF71FFA85FC0EFB178822
:1002600043EA084307FB0CF1994209D9EB1807F15F
:10027000FF3080F01B81994240F21881023F2B44ED
:100280005B1AA4B2B3FBFEF00EFB103344EA034446
:1002900000FB0CFCA44509D92C1900F1FF3380F0B8
:1002A0000781A44540F2048102382C4440EA07400B
:1002B000A4EB0C0400271EB1D4400023C6E9004380
:1002C0003946BDE8F0878B4209D9002E00F0EB805B
:1002D0000027C6E9000138463946BDE8F087B3FA81
:1002E00083F7002F47D18B4202D3824200F2FA807B
:1002F000841A61EB030301209846002EE0D0C6E982
:100300000048DDE702B9FFDEB2FA82F2002A40F0CF
:100310008F80491B4FEA154E1FFA85F80127B1FB64
:10032000FEFC230C0EFB1C1143EA014308FB0CF1FD
:10033000994207D9EB180CF1FF3002D2994200F232
:10034000CD808446591AA3B2B1FBFEF00EFB101407
:1003500043EA044408FB00F8A04507D92C1900F132
:10036000FF3302D2A04500F2B6801846A4EB080481
:1003700040EA0C409FE7C7F1200CBB4022FA0CFE7C
:100380004EEA030E01FA07F420FA0CF521FA0CF3F9
:100390004FEA1E482543B3FBF8F92C0C08FB193330
:1003A0001FFA8EFA44EA034309FB0AF49C4202FA5C
:1003B00007F200FA07F10BD91EEB030309F1FF3036
:1003C00080F087809C4240F28480A9F10209734446
:1003D0001B1BADB2B3FBF8F008FB103345EA034436
:1003E00000FB0AFAA24508D91EEB040400F1FF3312
:1003F0006BD2A24569D90238744440EA0940A0FB97
:100400000289A4EB0A044C45C2464B4654D351D052
:10041000002E69D0B1EB0A0564EB030404FA0CFC6E
:10042000FD40FC404CEA0505C6E90054002747E7BB
:10043000C2F1200320FA03F7954001FA02F021FAF5
:1004400003F34FEA154E3843010CB3FBFEF71FFAD6
:1004500085F80EFB173341EA034107FB08F38B4293
:1004600004FA02F407D9691807F1FF3C2FD28B4236
:100470002DD9023F2944CB1A81B2B3FBFEF00EFB0B
:10048000103341EA034100FB08F38B4207D9691896
:1004900000F1FF3C17D28B4215D902382944C91A02
:1004A00040EA07473BE73746304609E70746E7E6B5
:1004B0001846FBE64145ABD2B8EB020A69EB0E02E7
:1004C00001381346A4E76046E9E7184695E7674612
:1004D000D1E781467CE702382C4447E7ACF1020CB7
:1004E0002B442FE7384608E73746E9E6704700BF58
:1004F00001F0FF01102A2BDB10F0070F08D010F8D5
:10050000013B013A8B422DD010F0070F42B3F6D1D8
:10051000F0B441EA012141EA014122F007047FF0F1
:1005200000070023F0E80256083C85EA010586EA48
:10053000010685FA47F5A3FA87F586FA47F6A5FA84
:1005400087F68EB9EED1F0BC01F0FF0102F0070290
:1005500032B110F8013B013A83EA010313B1F8D13B
:100560000020704701387047002D06BF354603381C
:10057000073815F0010F07D1013015F4807F02BF55
:10058000013015F4C03F0130F0BC0138704700BFA6
:10059000704704387047704710B51021044619F0B1
:1005A00035FC204610BDA0F10400F5E710B500228F
:1005B0008260044AC16002F1080420320460426093
:1005C00010BD00BFA4AD0108704770477047704769
:1005D000704700F093B810B54FF4E361044619F08A
:1005E00015FC204610BD000010B5044600F066F969
:1005F000014B2360204610BDD4AD010800220260EB
:1006000070477047704700F596730868496803C3E0
:100610007047704700F046BD10B54FF4AC7104460A
:1006200019F0F4FB204610BD10B50446D0F8540173
:10063000FFF7E7FF2046BDE810400BF087B810B584
:100640000446D0F83C0158B10368DB68984738B1DC
:10065000D4F83C0103689B6898470023C4F83C31F8
:1006600010BD000010B5044600F0E4FC014B23600F
:10067000204610BD08AE010890F8252012B103688D
:100680005B69184770470020704781807047C180C0
:1006900070470181704741817047704770477047CC
:1006A00070477047C38810B4D21A83885DF8044B32
:1006B000C91A036812B25B6D09B218474FF6FF738F
:1006C00083814FF0FF3303621368C361106070478A
:1006D0007047704790F825201AB190F8242002B195
:1006E00018607047704790F82C00704708B590F874
:1006F00032300BB1FFF7C0FF08BD7047704770473D
:1007000010B50821044619F081FB204610BD10B534
:100710004C21044619F07AFB204610BD10B54FF469
:10072000E361044619F072FB204610BD10B5044683
:10073000806A50B10368DB68984730B1A06A0368EB
:1007400021469B68BDE81040184710BD70B50446AF
:100750000D4608F0C9FBA06C58B10368DB689847E8
:1007600038B1A06C03682A4621469B68BDE87040FA
:10077000184770BD70B5036804461B6B1546984753
:100780002368294620465B6BBDE87040184770B56A
:1007900004461E46BDF91050FFF7ECFF23683146B2
:1007A00020469A6B9047236829462046DB6BBDE8BC
:1007B00070401847F8B51A4B018F1B888B420646CC
:1007C0002AD9184B1B682BB9174B184A18486C21AB
:1007D00019F028FB13F81120164B1B6853F8225010
:1007E000154B186800F03AFF2B68074601469B6AD4
:1007F000284698472B6804461B6C3946284698477C
:100800002B6814FB00F45B6A394628469847E4B22B
:10081000204486F84500F8BD002380F84530FAE70B
:10082000202701201C270120D0AE010888AF010835
:1008300012AF0108242701202827012010B501212B
:1008400080F82510134901601349816200224FF698
:10085000FF714FF47F048280C280028142818281D5
:10086000C28102824282C0E90522C26102844284BE
:1008700080F8242081850263446380F8382080F862
:1008800039208287C287A0F84010A0F84210426445
:1008900010BD00BF50BD010854AE010810B504469C
:1008A00009F06CFB044B23600023A364012384F84C
:1008B0002430204610BD00BF64AE01082DE9F04F82
:1008C0000446A3B00CF0EEFA22460026D94BE663AC
:1008D00042F8403BD84B2364FF2322AD84F86630B6
:1008E00004F16C0303934FF6FF7325F8083D0127CD
:1008F0002946A4F84460A4F84660A4F84860A4F827
:100900004A60A4F84C60A4F84E60A4F85060A4F8C3
:100910005260C4E91566E665A4F86060A4F86260F8
:1009200084F8646084F86570A6660398199208F0EC
:100930003BFB04F1980318460493FFF7AFFF04F163
:10094000E40318460593FFF7A9FF04F598731846CA
:100950000693FFF7A3FF04F5BE7318460793FFF74E
:100960009DFF04F5E47318460893FFF797FF04F51D
:10097000057318460993FFF791FF04F5187318469D
:100980000A93FFF78BFF04F52B7318460B93FFF7C1
:1009900085FF04F53E7318460C93FFF77FFF04F5BF
:1009A000517318460D93FFF779FF04F564731846E9
:1009B0000E93FFF773FF04F5777318460F93FFF755
:1009C0006DFF04F5856318461093FFF767FF04F287
:1009D000744318461193FFF761FF04F598631846B6
:1009E0001293FFF75BFF04F20C5318461393FFF7C3
:1009F00055FF04F5AB6318461493FFF74FFF04F25D
:100A0000A45318461593FFF749FF04F5BE63184633
:100A10001693FFF743FF04F23C6318461793FFF762
:100A20003DFF04F5D16304F5DA69184618934FF4D5
:100A3000A078FFF703FF4846FFF700FF3246CDF8E6
:100A4000008031461998F023FFF7A1FE4FF07F4355
:100A5000A36629460398ADF8806009F068F9F02391
:100A60003246CDF8008031460398FFF790FE3146BC
:100A7000039808F05FFA049868223F214FF0020AB9
:100A8000FFF778FE2A461FA90498ADF880A0ADF8BC
:100A90007C7009F0A1F814234FF0FF3BA4F8D0308C
:100AA0000498FFF787FEC4E935BB059868220A2140
:100AB000FFF760FE2A461FA90598ADF880A0ADF8A3
:100AC0007C7009F089F81523A4F81C310598FFF70C
:100AD00071FEC4F820B1C4F824B1069868227421CC
:100AE000FFF748FE2A461FA90698ADF880A0ADF88A
:100AF0007C7009F071F81323A4F868310698FFF7A9
:100B000059FEC4F86CB1C4F870B107989D220A214F
:100B1000FFF730FE2A461FA90798ADF880A0ADF870
:100B20007C7009F059F81223A4F8B4310798FFF744
:100B300041FEC4F8B8B1C4F8BCB108989D223F2169
:100B4000FFF718FE2A461FA90898ADF880A0ADF857
:100B50007C7009F041F81123A4F800320898FFF7DF
:100B600029FEC4F804B2C4F808B209989D22742181
:100B7000FFF700FE2A461FA90998ADF880A0ADF83E
:100B80007C7009F029F84FF01003A4F84C32099852
:100B9000FFF710FEC4F850B2C4F854B20A98D2223B
:100BA0000A21FFF7E7FD2A461FA90A98ADF880A0A1
:100BB000ADF87C7009F010F80F23A4F898320A9869
:100BC000FFF7F8FDC4F89CB2C4F8A0B20B98D2228B
:100BD0003F21FFF7CFFD2A461FA90B98ADF880A053
:100BE000ADF87C7008F0F8FF0E23A4F8E4320B98FF
:100BF000FFF7E0FDC4F8E8B2C4F8ECB20C98D222DA
:100C00007421FFF7B7FD2A461FA90C98ADF880A004
:100C1000ADF87C7008F0E0FF0D23A4F830330C9899
:100C2000FFF7C8FDC4F834B3C4F838B30D9840F2E8
:100C3000071203E05CAF0108E0BD01083F21FFF7A8
:100C400099FD2A461FA90D98ADF880A0ADF87C70DB
:100C500008F0C2FF0C23A4F87C330D98FFF7AAFD1F
:100C6000C4F880B3C4F884B30E9840F2071274211C
:100C7000FFF780FD2A461FA90E98ADF880A0ADF8B9
:100C80007C7008F0A9FF0B23A4F8C8330E98FFF777
:100C900091FDC4F8CCB3C4F8D0B30F9840F207125A
:100CA0000A21FFF767FD4FF00A082A461FA90F988F
:100CB000ADF880A0ADF87C7008F08EFFA4F8148425
:100CC0000F98FFF777FDC4F818B4C4F81CB4109857
:100CD0006822A921FFF74EFD2A461FA91098ADF8FA
:100CE00080A0ADF87C7008F077FF0923A4F8603489
:100CF0001098FFF75FFDC4F864B4C4F868B41198A5
:100D00009D22A921FFF736FD2A461FA91198ADF8AB
:100D100080A0ADF87C7008F05FFF0823A4F8AC3425
:100D20001198FFF747FDC4F8B0B4C4F8B4B41298F2
:100D3000D222A921FFF71EFD2A461FA91298ADF85D
:100D400080A0ADF87C7008F047FF0723A4F8F834C2
:100D50001298FFF72FFDC4F8FCB4C4F800B513983F
:100D600040F20712A921FFF705FD2A461FA9139893
:100D7000ADF880A0ADF87C7008F02EFF0623A4F833
:100D800044351398FFF716FDC4F848B5C4F84CB5C0
:100D9000414614983322FFF7EDFC2A461FA9149808
:100DA000ADF880A0ADF87C7008F016FF0523A4F81C
:100DB00090351498FFF7FEFCC4F894B5C4F898B5C4
:100DC000159833223F21FFF7D5FC2A461FA9159815
:100DD000ADF880A0ADF87C7008F0FEFE0423A4F806
:100DE000DC351598FFF7E6FCC4F8E0B5C4F8E4B5C7
:100DF000169833227421FFF7BDFC4FF003082A46F2
:100E00001FA91698ADF880A0ADF87C7008F0E4FE3C
:100E1000A4F828861698FFF7CDFCC4F82CB6C4F8C1
:100E200030B617983322A921FFF7A4FC2A461FA940
:100E30001798ADF880A0ADF87C7008F0CDFEA4F84E
:100E400074A61798DFF860A1FFF7B4FCC4F878B671
:100E5000C4F87CB64FF0180B42461898CDF800B095
:100E6000D5231021FFF793FC0DF168084FF07F4365
:100E7000C4F8B8361899A4F8BC66404608F0C2FB1E
:100E800098E8070004F2C46383E80700294618982D
:100E9000CDF880A0ADF8847008F044FE1B224846CF
:100EA000CDF800B0D5231021FFF771FC4FF07F4340
:100EB000C4F8003749464046A4F8046708F0A2FB8E
:100EC00098E8070004F20C7383E8070029464846B7
:100ED000251DCDF880A0ADF8846008F023FE199997
:100EE000284606F07BFE0399284606F077FE049913
:100EF000284606F073FE0599284606F06FFE06990F
:100F0000284606F06BFE0799284606F067FE08990A
:100F1000284606F063FE0999284606F05FFE0A9906
:100F2000284606F05BFE0B99284606F057FE0C9902
:100F3000284606F053FE0D99284606F04FFE0E99FE
:100F4000284606F04BFE0F99284606F047FE1099FA
:100F5000284606F043FE1199284606F03FFE1299F6
:100F6000284606F03BFE1399284606F037FE1499F2
:100F7000284606F033FE1599284606F02FFE1699EE
:100F8000284606F02BFE1799284606F027FE1899EA
:100F9000284606F023FE2846494606F01FFE204656
:100FA00023B0BDE8F08F00BF54AE01087047704712
:100FB0007047416070477047012303727047704764
:100FC000704710B4C468416862100346E40701EB3F
:100FD00002009B6848BF8A585DF8044B48BFD3584D
:100FE000184743682BB183682BB9C06800F0010033
:100FF0007047184670470120704710B50C21044611
:1010000018F004FF204610BD10B54FF4AC71044633
:1010100018F0FCFE204610BD10B51021044618F053
:10102000F5FE204610BD08B50AF0E2FCBDE8084018
:101030000BF082B8F8B5044617460E460AF0F8FCE5
:10104000144BC4F854611C60134E144B23600025EC
:101050003068134BC4F83851C4F83C51C4F84031DF
:10106000C4F84451C4F84851C4F84C51C4F8507104
:10107000036801219B689847284600F0B5FA336859
:1010800093F876200AB1D86C00B9986811F09FFFE8
:101090002046F8BD18270120CC260120E4AF010826
:1010A000CCAF0108064BC0F848310023C0F84C31E2
:1010B00000F5A073C0F84401C0F83C31704700BF90
:1010C000051200082DE9F04707469068DDF820A0DA
:1010D000994603681B6A884615469847B0F5E36F42
:1010E00005D2424B424AA321424818F09BFE686851
:1010F00003681B6A98470F2803D83F4B3C4AA4213A
:10110000F2E7E86803681B6A98470B2803D83B4B53
:10111000374AA521E8E70AF06BFC0AF06FFCD9F822
:10112000000010B10368DB689847D9F8000010B1DF
:1011300003681B689847386810B103685B69984773
:10114000D8F8000010B103685B689847386810B1A0
:1011500003681B689847D8F8000010B103689B68C3
:101160009847E868036800215B6A9847044620B105
:10117000002343600372224B0360A86803680021C8
:101180005B6A9847064608B1FFF72EFA686803685D
:1011900000215B6A9847054610B13146FFF706FA11
:1011A000C9F80040C8F800503E60E5B12B1DCAF8F0
:1011B0000030C5F808A03368F5633046DB6898470F
:1011C0002B6828461B689847214630460CF016F8D5
:1011D000236820461B699847236820465B69984727
:1011E0002846BDE8F0872B46E1E700BF4CB0010878
:1011F00061B20108DAB001081BB10108BEB10108F3
:1012000030B0010807B5D0F854310093D0F8502120
:10121000044B00F59C710448FFF754FF03B05DF8E0
:1012200004FB00BF0C2701200827012013B5002272
:1012300049B102AB019203F8052D0268946801AA36
:10124000A04702B010BD0846FBE74089704780897F
:1012500070478088704783798088184480B27047CF
:10126000C07900F07F007047C079C0097047006AFC
:101270007047406A704770478B8880690A68DB0A4C
:1012800050F823001044704710B5C2B1137BB3B1BE
:10129000547BD27A240204F4E0641443C26998B205
:1012A00002EB840213888B4202D192F9020010BD36
:1012B00005D8013880B204320028F3D1F7E70020C6
:1012C000F5E710B52821044618F0A0FD204610BD12
:1012D00030B589B00446BDF850500695BDF84C5065
:1012E00005959DF8405004959DF83C5003959DF858
:1012F000385002959DF8345001959DF83050009576
:101300000BF0BAFB064B2360119BA361129BE361B8
:10131000159B2362169B6362204609B030BD00BF57
:1013200070B3010830B5164D2C78BFF35B8F14F005
:1013300001048DB020D1284618F040FDE0B13F23D4
:101340000793104B0693104B104908940122CDE9E6
:1013500004430423CDE90132CDE909440A2303946F
:1013600000940B48FFF7B4FF284618F033FD094AF4
:101370000949074818F045FD05480DB030BD00BFCC
:101380007C010020F4CC0108F0CC010854CB01080A
:1013900080010020000000207712000830B5164DB3
:1013A0002C78BFF35B8F14F001048DB020D1284658
:1013B00018F004FDE0B13F230793104B0693104B48
:1013C000104908940122CDE904430423CDE90132F8
:1013D000CDE909442823039400940B48FFF778FFD4
:1013E000284618F0F7FC094A0949074818F009FD92
:1013F00005480DB030BD00BFA8010020ECCC0108AD
:10140000FCCC01087CCB0108AC01002000000020CE
:101410007712000830B5174D2C78BFF35B8F14F0AE
:1014200001048DB022D1284618F0C8FCF0B13F234A
:101430000793114B0693114B11490894CDE90443CE
:101440000123CDE9023304220323CDE90032CDE9A3
:101450000944192214230B48FFF73AFF284618F0D5
:10146000B9FC094A0949074818F0CBFC05480DB0FA
:1014700030BD00BFD4010020F8CC010800CD010828
:101480008CCB0108D8010020000000207712000852
:10149000704710B50421044618F0B8FC204610BD72
:1014A000012908B508D003D3022909D0002002E0A1
:1014B00000F012F8006808BD00F00EF84068FAE786
:1014C00000F00AF88068F6E700487047D4B30108D6
:1014D0000320704718207047004870470002002022
:1014E00010B5FFF797FF044C2060FFF757FF6060CF
:1014F000FFF718FFA06010BD000200200020704719
:10150000002070470EB403B503AB002153F8042B41
:1015100001930BF0E3F802B05DF804EB03B0704701
:101520000CB407B504AB53F8042B01930BF0D6F8B9
:1015300003B05DF804EB02B07047000010B5436CD7
:10154000044673B3038F2BB9184B194AC0211948AD
:1015500018F068FCC38E00EB43035B8C0BB30CF0FC
:101560007CFB238F012B03D8134B144AC521EEE7D4
:10157000E28E531C9BB2092B194688BFA3F10A01C6
:1015800004EB410140F63F10498C814209D10A2BFE
:1015900004EB420228BF002304EB4303508C588421
:1015A00051842046BDE810400CF05ABA10B401082E
:1015B0003DB5010819B401085DB401086BB4010818
:1015C0000CF015BA10B586B002AC84E806001A46D5
:1015D0000AAB05930193099B00932146089B09F0F0
:1015E00020FD06B010BD000038B5D8B9114B124827
:1015F0001B681249BBB11A689C681A4402605A6899
:101600001A440A601C446CB10D4B00221A80FFF78B
:1016100063FF0546FFF75EFF0A4B1C600A4B1D6027
:101620000A4B188038BD0A4B03600A4B0B600A4B0B
:101630001C68E8E70C0200201002002014020020C1
:10164000180200201C270120242701202027012028
:10165000189604088495040814960408044B1B6823
:1016600053F82100034B1B6803EB4000704700BF99
:101670001402002010020020012380F8741080F86A
:1016800075307047002070474164034B003118BF2C
:1016900001211970704700BFC92601200020704742
:1016A000836B0BB10846184770474FF6FF707047C1
:1016B000406803689B69184770477047034B902246
:1016C00083F85A2383F85823704700BF00E100E0F5
:1016D000094A0A49D3680A48C3F30A03013B9BB28B
:1016E0000B801169C1F30A01013901801364536B46
:1016F00043F0010353637047006801401E0200205D
:101700001C020020014B986A704700BF84680140AA
:10171000024B0122996243F8602C704784680140B3
:1017200070B5044606F04FFD23685D6E0AF060F95F
:1017300001462046A8472368054AD3F8885020462A
:10174000AC460023A2F51631BDE87040604700BFEB
:10175000005802D010B531B90A4B0B4A0B4840F281
:10176000D22118F05FFBC0E90F120032084918BF00
:1017700001220A7002681946D2F88C20BDE8104098
:10178000104700BF4BB6010805B7010883B6010832
:10179000C826012008B5094B1B888B4203D8084B8B
:1017A0001B88934205D9074B074A08489E2118F029
:1017B00039FB074B1980074B1A8008BDBE26012054
:1017C000C0260120E8B50108C2B6010883B60108A9
:1017D000C4260120C626012006F0DCBC90F84B3060
:1017E00013B1024B01221A7006F0E0BC1A0200206D
:1017F00006F09ABC06F0F3BD10B5044607F026FAD1
:1018000023682046D3F8AC30BDE81040184790F864
:1018100077301BB1406803681B681847184670474B
:1018200010B590F8744090F834100C4B8C421A7834
:1018300009D03AB90A4A0B491488088810800C80EC
:1018400001221A7010BD002AFCD0054A05491488EF
:10185000088810800C800022F3E700BFC226012018
:10186000BE260120C0260120034B4FF080629A6003
:101870004FF080729A60704700E100E0084B4FF033
:101880008062C3F88820BFF34F8FBFF36F8F4FF094
:101890008072C3F88820BFF34F8FBFF36F8F7047FC
:1018A00000E100E010B5144C236823B3134B144A35
:1018B0001B6C11888B4213D1124B198803F0EEFB7D
:1018C000226892F86630013382F8663000F004FA3C
:1018D000206807F0BBF90020BDE8104000F016BCFE
:1018E00003F0DCFB206803681B6A98470020BDE812
:1018F000104000F035BC10BDCC260120006801402E
:101900001E0200201C02002003685B6C18470120A7
:10191000704703689B6A184782B0002301930D4B00
:101920001A6B42F400021A631A6B02F4000201926D
:10193000019A1A6942F400021A611A6922F400023B
:101940001A61054B054A1A61054B4FF080629A6097
:1019500002B07047003802407C2901206D19000850
:1019600000E100E040F2EF3070470000024B1B68DE
:10197000586803685B691847CC26012008B50B2816
:101980000BD8DFE800F01206100A0A0A0A08080855
:101990000808012008BD0520FCE7054B054A06485C
:1019A000662118F03FFA0020F4E70220F2E700BFBA
:1019B0006DB701083EB8010888B7010808B50A28C4
:1019C00009D8DFE800F010060E0808080806060629
:1019D0000600012008BD054B054A0648872118F07E
:1019E00021FA0020F6E70220F4E700BF6DB70108F6
:1019F00088B8010888B70108F8B50C46487FFFF79A
:101A0000BDFFA77F05463846FFF7B8FF06463846B4
:101A1000FFF7D4FFA38A628BD21A494B1A64A18ABA
:101A2000628B521A9A61A18A228B521A1A615863E8
:101A3000A18AE28A42EA01425A642269DA63626850
:101A4000DA602268402A70D010D8042A3BD0202ABD
:101A50006BD0237F45EA0365394B45F40035DD61E2
:101A6000617FA27F914267D0364A4BE0B2F5807F1A
:101A70001BD0B2F5007F23D0802AEAD1A068021DD6
:101A8000DA62227F45EA026545F40035DD615E6277
:101A900022695A610278EAB1012A35D02A4B2B4AD1
:101AA0002B4840F2111118F0BDF9217F294A42EA72
:101AB0000162DA61E2681A625E6222695A6120E0BC
:101AC000217F254AF3E7227F45EA026545F4003588
:101AD000DD61F1E7D9694288501E21F47F4222F08E
:101AE000100242EA0022DA610121154BDA6942F064
:101AF0002002DA61DA699206FCD410229A60002989
:101B0000B2D0164A1A60F8BDDA694088217F22F403
:101B10007F4222F01002013842F01002FF3942EAFF
:101B2000002218BF0121DA61DFE7237F45EA036560
:101B300045F40035024BCBE740F20122E2E700BF5B
:101B400000B002400102010053B7010800B80108CB
:101B500088B701080A000200090002000102020021
:101B600010B5887F0C46FFF729FF1C4B5863A18AEC
:101B7000E28A42EA01425A642269DA63628BA18AEC
:101B8000521A1A642268082A16D1A18A628B521A44
:101B90009A61A18A628B521A1A615862217F104A97
:101BA00042EA0162DA61E2681A6222695A612269D4
:101BB000DA600C4A1A6010BD0022D8611A61E1682F
:101BC0000A0A480902F4784200F4FC600243C1F3B7
:101BD000C4010A439A63044AECE700BF00B0024024
:101BE000090001000102020001020300054B03602D
:101BF000054B4FF08062C3F88820BFF34F8FBFF3CF
:101C00006F8F7047B8B7010800E100E010B50446D7
:101C1000FFF7ECFF20464FF45A6118F0F7F8204622
:101C200010BD000070B505462C460A4B0C3000264E
:101C300068602E726E7244F8203B6022214607F0E5
:101C400043F905F55A63E6602434A342FBD12846E4
:101C500070BD00BFB8B70108012108B500220846D1
:101C600005F0C3F80A4B186028B90A4B0A4A282124
:101C70000A4818F0D7F800220421012005F056F98F
:101C8000074B186018B9074B034A2C21F0E708BD31
:101C900024020020D3B8010887B901081CB9010843
:101CA0002002002045B90108024B4FF0FF311868AF
:101CB00005F0E6B824020020014B186805F00CB9C5
:101CC00024020020024B0021186805F0D9B800BF9B
:101CD00024020020FFF7F0BF0348044900680023F6
:101CE0001A4605F05FB900BF200200200400002062
:101CF00013B5084C00231A4601A9206805F084F9A1
:101D00004FF0FF33002201A9206805F07DF902B0F1
:101D100010BD00BF200200207047704770470120AF
:101D200070470C2070470C2303FB010008307047FC
:101D30000C2303FB010008307047012070474FF46B
:101D4000E36070474FF4E36303FB01000830704722
:101D50004FF4E36303FB0100083070470120704734
:101D60001020704700EB01100830704700EB0110A5
:101D7000083070470846FFF795B9000010B5034BCF
:101D80000360044605F014FF204610BD28BA010880
:101D900010B50446FFF7F2FF2046142118F036F87C
:101DA000204610BD10B5034B0360044605F000FF4C
:101DB000204610BDF4B9010810B50446FFF7F2FF44
:101DC00020464FF4E46118F021F8204610BD0000D1
:101DD00010B5034B0360044605F0EAFE204610BD33
:101DE000C0B9010810B50446FFF7F2FF20461821DC
:101DF00018F00CF8204610BD10B5084B03600446DF
:101E000000F24C70FFF7BAFF04F12C00FFF7CAFF95
:101E100004F11400FFF7DCFF204610BD5CBA010896
:101E200010B50446FFF7E8FF204640F6BC0117F066
:101E3000EDFF204610BD00002DE9F341FFF744FB04
:101E40000546FFF745FB0024014623462846224667
:101E500000940CF0D5F9274B274A284D1A602046EC
:101E6000FFF7C2FB26480CF033F92B78BFF35B8FEA
:101E7000DB0738D4284617F0A1FF002833D0214CC7
:101E8000214B236004F2647604F1140004F12C0861
:101E900004F24C776060C4F80880E760266105F0C2
:101EA00089FE1A4B6361404605F084FE184BE362DD
:101EB000384605F07FFE174BC4F84C3704F5EC604C
:101EC000FEF79CFB224604F5EC613046FEF7CAFBA8
:101ED0003046FFF7E7F8284617F07CFF0E4A0F4917
:101EE000204617F08EFF0E4802B0BDE8F04100F02A
:101EF000D1B800BF2827012008190020280200209F
:101F0000080000202C0200205CBA0108C0B90108BA
:101F1000F4B9010828BA010800000020F91D0008E2
:101F20008C180020014800F0C7B800BF8C180020B2
:101F300010B50421044617F069FF204610BD10B506
:101F40007821044617F062FF204610BD10B57C21B1
:101F5000044617F05BFF204610BD0000F8B5394C71
:101F6000394D3A4F3A4B3B492B602246284617F0F1
:101F700048FF394E3846FFF755FE22463749384666
:101F800017F03FFF30460FF03BFA22463449304607
:101F900017F037FF22463349334817F032FF3348F2
:101FA000334941663349C56000230122324D038520
:101FB000C0E90176C0E90433C0E90633C0E908335B
:101FC00080F82A30C3620386C0E90E33C0E91033BB
:101FD00080F8483080F8492080F84A3080F84B304B
:101FE000C0E91333C0E91533C0E9173380F868300E
:101FF00080F8693080F86A3080F86B3080F86C3097
:102000000860F02129801D4D036729801C4D80F850
:1020100074304FF4A07129801A4D80F875302980F2
:10202000194980F876300B70184B80F8772080F8CB
:10203000782080F83420036022461549BDE8F84036
:1020400017F0DFBE00000020E80A0020EC0A0020A4
:1020500048BB0108191D00080C190020ED1B0008E1
:102060001B1D000891140008080000208C18002097
:1020700001000001CC260120BE260120C42601203B
:10208000C0260120C6260120C226012070BA010800
:102090001D1D000870B50446FFF742FB2368D3F806
:1020A0008850044BD4E90F122046AC46BDE870407E
:1020B000604700BF00B004D008B503680446D3F8F9
:1020C00080309847236820469B6F9847FFF710FEA3
:1020D000236820461B6F9847292000F00DFCFFF76E
:1020E00007FE236820461B6F9847F8E7FFF70ABBF7
:1020F000FFF70EBBFFF77CBBFFF7E0BAFFF7B4BBFF
:10210000FFF7BCBBFFF7E4BA06F008B8032821D8F4
:10211000DFE800F0020B12190F4B1A68B2FA82F2D4
:10212000520904210D4802F0ADB90B4B5A68B2FABE
:1021300082F252090821F5E7074B9A68B2FA82F257
:1021400052091021EEE7044BDA68B2FA82F2520922
:102150002021E7E7704700BF8419002000100240EB
:10216000032821D8DFE800F0020B12190F4B1A6880
:10217000003218BF012204210D4802F083B90B4B35
:102180005A68003218BF01220821F5E7074B9A6808
:10219000003218BF01221021EEE7044BDA6800324A
:1021A00018BF01222021E7E7704700BF84190020F3
:1021B0000010024003280DD8DFE800F00206080AEC
:1021C0000421054802F063B90821FAE71021F8E775
:1021D0002021F6E7704700BF0010024038B50C4BD5
:1021E0000C4C18800C4B822019806368984740F68D
:1021F000110398420AD1094D23682C608220984728
:102200002B688220DB689847002038BD0120FCE75E
:10221000941900202400002096190020981900200D
:102220004FF4A071F020FFF7D9BF0000F7B5324D91
:102230002B6804461B698220984780B220800028C2
:1022400052D02B680DF106025B6901A982209847E4
:10225000BDF8062040F674639A4247D9ADF80630BF
:10226000BDF806209B1A9BB20B22B3FBF2F333B1ED
:10227000224A12889A423CBF02F1FF339BB2BDF85A
:10228000042040F6B8318A4295BFC2F57162C2F5AA
:102290006D620E320832ADF80420BDF804100F2232
:1022A000B1FBF2F131B1164A12888A423CBF02F109
:1022B000FF3189B2134E144D30682F6882B28142CB
:1022C00088BF8A1AB8B298BF521ABB428CBF181A7C
:1022D000C01A92B280B20244052AC4BF31602B609A
:1022E000336863802B68A38003B0F0BDB32A9CBF22
:1022F000B422ADF80620B3E7981900209619002003
:10230000941900209C190020A019002037B56846B8
:102310000D461446FFF78AFFBDF8000030B1BDF846
:1023200002302B60BDF804302360012003B030BDC3
:10233000054BD3F8882042F47002C3F888204FF090
:1023400000629A60704700BF00ED00E030B50146C2
:1023500089B00022362001F0C1FE362001F0F2FEE5
:102360000025154B02951A6C144C42F010021A64A9
:102370001B6C03F01003029301A903A8029B01F058
:1023800097F801F085F80E4B236040F2E733E360E5
:1023900040000C4BB0FBF3F0013860602046256133
:1023A000A56001F0EFF920B9204601F0A1F809B0CD
:1023B00030BD0120FBE700BF00380240D0270120DC
:1023C0000010004040420F0007B5064B02A91B68F1
:1023D00021F8020D0122044802F071F903B05DF802
:1023E00004FB00BF140000207028012008B5642001
:1023F00004F0EFFCFBE7000030B595B0302200217F
:1024000008A817F08AFD1422002103A817F085FD03
:1024100000241D4B01941A6C42F080521A641B6C0C
:1024200003F080530193019B184B02941A6842F405
:1024300040421A601B6803F4404302930122029B4E
:102440004FF48033CDE9082302254FF48003CDE912
:102450000E5308214FF4A873CDE9101308A80423E4
:102460001393129500F09CFD0F23CDE903354FF433
:10247000A0504FF48053CDE90603052103A805942D
:1024800000F068FF15B030BD003802400070004019
:1024900080B59AB002F022FEFFF7AEFF14220021B1
:1024A0000DA8002417F039FDBF4B00941A6BBF48EC
:1024B000BF4D42F010021A631A6B02F01002009234
:1024C000009A01941A6B42F020021A631A6B02F010
:1024D00020020192019A02941A6B42F080021A6360
:1024E0001A6B02F080020292029A03941A6B42F075
:1024F00004021A631A6B02F004020392039A049412
:102500001A6B42F001021A631A6B02F00102049284
:10251000049A05941A6B42F002021A631A6B02F0D5
:1025200002020592059A06941A6B42F040021A6361
:102530001A6B02F040020692069A07941A6B42F058
:1025400008021A631B6B03F00803079322463C2121
:10255000079B01F097FF22460421964801F092FF65
:1025600022464FF44051944801F08CFF01264FF071
:1025700003083C230DA98D48CDF8408002274FF079
:102580000409CDE90D360F9401F08EFE0DA989489E
:102590000F94CDE90D96109701F086FE0DA94FF42A
:1025A00040538548CDE90D36CDE90F4701F07CFE5B
:1025B0008248834B036002F0FFFE824A824B2C620A
:1025C000C5E9002328464FF48043C5E90434C5E932
:1025D0000244C5E9064401F0D7FA1021284601F06B
:1025E00025FD2146284601F043FD7848784984625C
:1025F0004FF48273C0E900134FF400751823C0E94B
:1026000006530A23734DC362C0E90244C0E904447F
:10261000C0E9084401F0F4FF6F4B0D974FF0100C28
:10262000C5E900364023C5E904C34FF4C073C5E9CA
:1026300006344FF40063C5E908344FF40053AB622D
:102640000DA907232846CDE90E39CDE910384FF002
:10265000080AC5E90249CDE9127700F04BFC4FF6B4
:10266000FF7209A9284608940996CDE90AA60C9498
:1026700000F060FC304602F05DFD4FF6FF7209A9E4
:102680002846CDE9097ACDE90B6400F053FC4FF6FA
:10269000FF7209A92846CDE9098ACDE90B9400F01B
:1026A00049FC4FF40C730893089B0C934FF6FF7290
:1026B00009A92846CDE9099A0B9600F03BFC40F2A7
:1026C0006A51284600F054FC342221460DEB0200EA
:1026D00017F023FC414D424B2C61C5E9003409231E
:1026E000C5E905361D2340F20D1EC5E9073840F245
:1026F0004313C5E909E340F2171840F24713C5E94F
:102700000B83C5E90244AC8685F83640284602F0C2
:10271000BFFBFF21F022CDE912144FF4806905219F
:102720004FF4A073CDE90E24CDE91491CDE9164202
:102730000DA922462846CDE910372A4D18930D944D
:10274000ADF864408DF8664002F07FFC264B2B60AC
:102750001B6898472B68254DDB689847244BC5E9D3
:102760000A47C5E90C442846C5E90034C5E90274A6
:1027700002F0E0F93146284602F09CFA02F02CFE05
:1027800004F0B2FA1B4A1C48214604F0D9FA1B4B4C
:102790001B4A186021461B4804F0D2FA1A4B1860F5
:1027A00004F0B4FAFEE700BF003802400010024017
:1027B0001C28012000080240000C0240C82801200B
:1027C00000300240005C0040A0860100702801201B
:1027D00000500140BC290120400100A0D028012068
:1027E00000680140A41900204C0000207C29012031
:1027F00000B0024094BB0108ED2300081828012016
:1028000070BB0108DD53000878290120704770472C
:1028100010B586B006AC074B04F8012D1B68029377
:1028200001230A46CDE900430146034801F05CFA62
:1028300006B010BD100000201C2801207FB506AA9C
:10284000002302F8013D084B1B6802930123CDE9E8
:1028500000230A460146054801F0DAFA9DF8170000
:1028600007B05DF804FB00BF100000201C28012009
:102870001FB5084C24680092CDE901340A460123B3
:102880000146054801F0C4FA003018BF012004B029
:1028900010BD00BF100000201C28012002F04ABC1F
:1028A00010B5064C00222046042101F0EBFD204625
:1028B00001220421BDE8104001F0E4BD00080240FF
:1028C00038B50B4C054601224FF40051094801F080
:1028D000D9FD00220421204601F0D4FD2846FFF74F
:1028E00073FD204601220421BDE8384001F0CABD35
:1028F00000080240000C024038B50B4C054600228F
:102900004FF40051094801F0BDFD0022042120468A
:1029100001F0B8FD2846FFF757FD204601220421AB
:10292000BDE8384001F0AEBD00080240000C024096
:10293000F7B5144C144D07460E46204600220421DC
:1029400001F0A0FD00224FF40051284601F09AFD4D
:102950003846FFF739FD0D4B0D481B68324601A97B
:1029600002F049F8284601224FF40051019E01F07F
:1029700089FD20460122042101F084FD304603B088
:10298000F0BD00BF00080240000C0240140000200F
:102990007028012002F0CEBB0268034B9A4201D19D
:1029A00002F0B6BB704700BF001000407047704790
:1029B000FEE7FEE7FEE7FEE770470000014800F093
:1029C000D5BD00BFD0270120014802F0DDBA00BF0D
:1029D000D0280120014802F0DDB800BF7C29012089
:1029E00008B50A4B1968024609B9094919601868FF
:1029F000694602448A4206D917F040FA0C23036064
:102A00004FF0FF3008BD1A60FCE700BFA819002096
:102A1000382A012082B00E4B00220092596C41F4FA
:102A200080415964596C01F48041009100990192F0
:102A3000196C41F0805119641B6C03F080530193B1
:102A4000019B0F216FF0010002B001F047BB00BFF6
:102A5000003802400268094B9A4282B00BD1002331
:102A60000193074B1A6B42F480521A631B6B03F4F9
:102A700080530193019B02B0704700BF00300240B9
:102A80000038024007B50F4B02689A4216D1002267
:102A9000A3F5F0430192196B41F4000119631B6B1C
:102AA00003F40003019305215A20019B01F016FB5A
:102AB0005A2003B05DF804EB01F044BB03B05DF8AD
:102AC00004FB00BF00B002402DE9F043044689B08A
:102AD0001422002103A817F020FA2268244B9A42FE
:102AE00043D1244C244800250095236B43F0040374
:102AF0002363236B03F004030093009B0195236B76
:102B000043F001032363236B03F001030193019B53
:102B10004FF012094FF400734FF001080327042609
:102B200003A9CDE90339CDE90587079601F0BCFB80
:102B30004FF4807303A911480796CDE90339CDE915
:102B4000058701F0B1FB0295236C43F40003236475
:102B5000236C03F400030293029B236A43F40003F3
:102B60002362236A23F40003236209B0BDE8F083E3
:102B7000005C0040003802400008024000000240B3
:102B8000F0B599B004461422002107A817F0C5F942
:102B900030220DEB0200002117F0BFF922685E4BD6
:102BA0009A4240F0B78008230C93C023109304236B
:102BB00012930CA84FF40033159302F0CFFA08B12A
:102BC000FFF7F4FE554B5648002400945A6C42F02F
:102BD00080625A645A6C02F080620092009A0194FA
:102BE0001A6B42F020021A631A6B02F02002019263
:102BF000019A02941A6B42F001021A631A6B02F0F6
:102C000001020292029A03941A6B42F002021A63C2
:102C10001A6B02F002020392039A04941A6B42F0B8
:102C200040021A631A6B02F040020492049A05945F
:102C30001A6B42F004021A631A6B02F00402059246
:102C4000059A06941A6B42F008021A631B6B03F094
:102C50000803069302250E26069B0B964FF480630D
:102C600007A9CDE90735CDE9094501F01DFB41F67E
:102C7000580307A92B480B96CDE907350927CDE95D
:102C8000094501F011FB032307A927480B97CDE95C
:102C90000735CDE9094501F007FB4FF4706307A93B
:102CA00021480B96CDE90735CDE9094501F0FCFA3D
:102CB0004FF40C6307A91D480B96CDE90735CDE904
:102CC000094501F0F1FAC02307A919480B96CDE98F
:102CD0000735CDE9094501F0E7FA082307A91548AA
:102CE0000B96CDE90735CDE9094501F0DDFA4FF442
:102CF000A05307A90D480B97CDE90735CDE9094544
:102D000001F0D2FA58202246052101F0E7F95820B7
:102D100001F018FA19B0F0BD006801400038024017
:102D2000001402400000024000040240001802406B
:102D300000080240000C024010B5044688B014227E
:102D4000002103A817F0E9F82268144B9A4223D116
:102D500003F56843002101915A6C114842F4801236
:102D60005A645A6C02F480120192019A02911A6B11
:102D700042F020021A631B6B03F020030293029BB4
:102D80004FF4607202230321CDE903230523CDE92B
:102D9000061303A901F088FA08B010BD00500140E5
:102DA000001402402DE9F04186B01422002101A850
:102DB00017F0B3F82B4B1C68002C4FD14FF00108D3
:102DC000C3F80080284B00949A6B284842EA080216
:102DD0009A639B6B03EA08030093022703260C25E2
:102DE000009B01A94FF63F03CDE90137CDE904650A
:102DF00001F05AFA01A91E480595CDE90187CDE9F0
:102E0000034601F051FA48F2331301A91948059518
:102E1000CDE90137CDE9034601F046FA4FF6837359
:102E200001A915480595CDE90137CDE9034601F023
:102E30003BFA4CF2037301A910480595CDE901371F
:102E4000CDE9034601F030FA602301A90C4805954D
:102E5000CDE90137CDE9034601F026FA06B0BDE819
:102E6000F08100BFAC19002000380240001402407D
:102E7000000802400018024000100240000C02400E
:102E8000000402400120704708B516F0F7FF162332
:102E900003604FF0FF3008BD08B516F0EFFF1623B2
:102EA0000360FEE770B50E4615460C46A31B9D4217
:102EB00001DC284670BDAFF3008004F8010BF5E794
:102EC00070B50E4615460C46A31B9D4201DC2846F4
:102ED00070BD14F8010BAFF30080F5E74FF0FF3041
:102EE00070474FF400534B6000207047012070473B
:102EF0000020704738B50D460446C8B190F82C3014
:102F000003F0FF021BB980F82D20FFF74BFF0223CF
:102F100084F82C30211D206801F022F962682068B5
:102F2000294601F051F9012384F82C30002038BDE6
:102F30000120FCE770B5054690F82C00C0B20228CD
:102F40000E4612D000F0FB04012C0FD1022385F8AD
:102F50002C30286801F07AF93368022B06BF05236C
:102F600085F82C3085F82C40002070BD0120FCE74E
:102F700038B5044690F82C00C0B202280DD094F861
:102F80002C50EDB2012D09D1022384F82C30206899
:102F900001F080F984F82C50002038BD0120FCE7B6
:102FA0002DE9F341044608B9012041E00368DD073B
:102FB00010D4236898075AD423681A0700F19C801C
:102FC00023685B0700F1BA80A069002840F01C81EB
:102FD00000202DE0A44B9A6802F00C02042A07D0CE
:102FE0009A6802F00C02082A0AD15B68590207D5D8
:102FF0009D4B1B689A03DCD56368002BD9D1D3E7BE
:103000006268994BB2F5803F15D11A6842F480325C
:103010001A606368F3B102F087F8934D06462B6897
:103020009B03C6D402F080F8801B6428F7D90320E4
:1030300002B0BDE8F081B2F5A02F1A6803D142F4C6
:1030400080221A60E1E722F480321A601A6822F4C2
:103050008022DDE702F068F8834D06462B689F0367
:10306000A7D502F061F8801B6428F7D9DFE77E4B13
:103070009A6812F00C0F07D09A6802F00C02082A26
:1030800011D15B685E020ED4774B1A68950702D5A2
:10309000E268012A88D11A68216922F0F80242EA1E
:1030A000C1021A6088E7E268704BB2B101221A606F
:1030B00002F03AF86C4D06462B68980707D52B6846
:1030C000226923F0F80343EAC2032B6074E702F09D
:1030D0002BF8801B0228EFD9A9E71A6002F024F828
:1030E000614D06462B6899077FF566AF02F01CF824
:1030F000801B0228F6D99AE762695D4B7AB10122FA
:103100001A6002F011F8584D06466B6F9F073FF5A5
:1031100057AF02F009F8801B0228F6D987E71A603A
:1031200002F002F8504D06466B6F98077FF548AFE6
:1031300001F0FAFF801B0228F6D978E74A4B1A6C97
:1031400012F080522BD101921A6C42F080521A6414
:103150001B6C03F080530193019B0126454D2B68A6
:10316000D9051ED5A268404B012A2AD11A6F42F018
:1031700001021A67A368002B37D001F0D5FF3A4D42
:10318000074641F288382B6F9B0728D5002E3FF465
:103190001BAF354A136C23F08053136414E70026E9
:1031A000DCE72B6843F480732B6001F0BDFF07461A
:1031B0002B68DA05D6D401F0B7FFC01B0228F7D977
:1031C00035E7052A1A6F03D142F004021A67CDE7EA
:1031D00022F001021A671A6F22F00402C9E701F017
:1031E000A3FFC01B4045CED921E701F09DFF1E4D36
:1031F000074641F288382B6F9807C7D501F094FF36
:10320000C01B4045F7D912E7174DAB6803F00C031C
:10321000082B46D0184E00230228336034D101F029
:1032200083FF07462B68990128D4D4E9073213435A
:10323000626A43EA8213E26A43EA0263A26A0A4CC0
:103240005208013A43EA02436B600123336001F004
:103250006BFF054623689A013FF5BAAE01F064FFA3
:10326000401B0228F6D9E2E600380240000047423F
:10327000800E4742007000406000474201F054FF5A
:10328000C01B0228CED9D2E601F04EFF04462B68BF
:103290009B017FF59DAE01F047FF001B0228F6D988
:1032A000C5E601283FF4C4AE6B68E26903F480010F
:1032B00091427FF479AE216A03F03F028A427FF4A3
:1032C00073AE616A47F6C0721A40B2EB811F7FF499
:1032D0006BAEA26A520803F44031013AB1EB024FDF
:1032E0007FF462AEE26A03F07063B3EB026F14BF67
:1032F000012000209CE600BF08B513498B6803F04D
:103300000C03042B03D0082B03D0104800E0104816
:1033100008BD4A684B68496813F4800314BF0C4821
:103320000A48C1F3881118BF002302F03F02A1FB35
:103330000001FCF75DFF044B5B68C3F301430133FD
:103340005B00B0FBF3F0E3E7003802400024F40038
:1033500000127A002DE9F0410D46044610B9012013
:10336000BDE8F081454B1A6802F00F028A422AD369
:1033700023689E072FD42368D90743D43F4B1A688C
:1033800002F00F02AA4268D823685A076ED4236855
:103390001B0707D53A4A2169936823F4604343EA3F
:1033A000C1039360FFF7A8FF354B364A9B68C3F310
:1033B0000313D35CD840344B1860344B1868FEF7C5
:1033C000C5FF0020CCE7CAB21A701B6803F00F03D8
:1033D0008B42C4D1CCE7580741BF294A936843F4D4
:1033E000E05393602368264A13F0080F1EBF9368CA
:1033F00043F4604393609368A16823F0F0030B43A8
:103400009360B8E762681E4B012A1CD11B6813F455
:10341000003FA4D01A4EB36823F003031343B360F4
:1034200001F082FE41F288380746B368626803F013
:103430000C03B3EB820FA1D001F076FEC01B404518
:10344000F3D903208CE7911E01291B6802D813F0E1
:10345000007FDEE713F0020FDBE7EAB21A701B68A9
:1034600003F00F03AB427FF47AAF8DE7044AE168C3
:10347000936823F4E0530B43936088E7003C0240D9
:103480000038024058BB01080C0000201C0000203E
:10349000044B054A9B68C3F38223D35C034A10683C
:1034A000D84070470038024068BB01080C0000207B
:1034B0000F2303600B4B9A6802F0030242609A6884
:1034C00002F0F00282609A6802F4E052C2609B68E7
:1034D000DB0803F4E0530361034B1B6803F00F03A5
:1034E0000B60704700380240003C0240704700000B
:1034F00090F83D30012B31D10268022380F83D3035
:10350000D36843F00103D3600368154A93421AD08D
:10351000B3F1804F17D0A2F57C42934213D002F54D
:10352000806293420FD002F5806293420BD002F585
:103530007842934207D002F57052934203D0A2F52D
:103540009432934204D19A6802F00702062A03D00B
:103550001A6842F001021A6000207047012070478B
:1035600000000140704770477047704710B503680E
:103570001A69910704460FD5DA6892070CD56FF0E7
:1035800002021A610123037703689B699B077AD0C3
:10359000FFF7E9FF0023237723681A69500711D545
:1035A000DA6851070ED56FF004021A6102232377FF
:1035B00023689B6913F4407F20466AD0FFF7D3FF4E
:1035C0000023237723681A69120710D5DA681007D9
:1035D0000DD56FF008021A61042323772368DB6995
:1035E000990720465BD0FFF7BEFF002323772368AF
:1035F0001A69D20611D5DA68D0060ED56FF010021E
:103600001A61082323772368DB6913F4407F20467F
:103610004BD0FFF7A8FF0023237723681A69D1074F
:1036200008D5DA68D20705D56FF001021A61204685
:10363000FFF7B2F923681A69100608D5DA6811068F
:1036400005D56FF080021A61204600F033FD236833
:103650001A69520608D5DA68500605D56FF040029F
:103660001A612046FFF781FF23681A69910622D567
:10367000DA6892061FD56FF020021A612046BDE875
:10368000104000F016BDFFF76DFF2046FFF76CFFFE
:1036900080E7FFF767FF2046FFF766FF90E7FFF739
:1036A00061FF2046FFF760FF9FE7FFF75BFF2046C3
:1036B000FFF75AFFAFE710BD304A0368904212D0BF
:1036C000B0F1804F0FD0A2F57C4290420BD002F5B2
:1036D0008062904207D002F58062904203D002F5EA
:1036E0007842904219D14A6823F070031343234A69
:1036F000904229D0B0F1804F26D0A2F57C42904272
:1037000022D002F5806290421ED002F58062904283
:103710001AD002F57842904216D0194A904213D03E
:1037200002F5806290420FD002F5806290420BD089
:10373000A2F59832904207D002F58062904203D001
:1037400002F58062904203D1CA6823F440731343A8
:103750004A6923F08003134303608B68C3620B68DC
:103760008362064B984203D003F58063984201D1EF
:103770000B69036301234361704700BF00000140F0
:103780000040014010B5044630B390F83D3003F0DE
:10379000FF021BB980F83C20FFF7A8FE022384F843
:1037A0003D302068211DFFF787FF012384F8463054
:1037B000002084F83E3084F83F3084F8403084F8AC
:1037C000413084F8423084F8433084F8443084F83F
:1037D000453084F83D3010BD0120FCE701684B699D
:1037E00013F480634FF0000210D06FF480634B61DC
:1037F0002023026380F83D3080F83E20036C80F87F
:103800003C2043F0040303640120704718467047CE
:103810002DE9F0410446164698468FB2256868693E
:1038200037EA000018D06B695A0517D52B6843F4A6
:1038300000732B6023686FF480625A61002320229A
:10384000236384F83D2084F83E30226C42F0040269
:10385000226484F83C300120BDE8F081731CDED086
:1038600001F062FCA0EB0800B04201D8002ED5D1D7
:1038700000232022236384F83D2084F83E30226C0C
:1038800042F02002E4E770B504460D461646236870
:103890005B695B0701D5002070BD2046FFF79EFFE6
:1038A000A8B96A1CF3D001F03FFC801BA84201D8E4
:1038B000002DECD100232022236384F83D2084F8DE
:1038C0003E30226C84F83C3042F020022264012019
:1038D000E2E770B504460D4616462068436913F0CA
:1038E000400301D0002010E04269D2060ED56FF0EF
:1038F000100242612022236384F83D2084F83E3088
:10390000226C226484F83C30012070BD01F00CFC74
:10391000801BA84201D8002DDFD100232022236381
:1039200084F83D2084F83E30226C42F02002E8E723
:103930002DE9F843089E044690461F464FEA114978
:103940008DB22168B9F1010F0CBF4B698B6935EA63
:1039500003030CBF01230023984501D0002016E08B
:103960007B1CEFD001F0E0FB801BB84201D8002F98
:10397000E7D100232022236384F83D2084F83E30E1
:10398000226C84F83C3042F0200222640120BDE821
:10399000F88370B504460D46164623685B691B061E
:1039A00001D5002070BD2046FFF718FFA8B96A1C9A
:1039B000F3D001F0B9FB801BA84201D8002DECD157
:1039C00000232022236384F83D2084F83E30226CBB
:1039D00084F83C3042F0200222640120E2E700003B
:1039E0002DE9FF41154602680B9E9846136843F483
:1039F000807313600F460A9B009600224FF001115E
:103A00000446FFF795FF236838B11B68DB0502D534
:103A10004FF40073236403200AE007F0FE071F61E0
:103A20000A9A194933462046FFF7F2FE18B10120E1
:103A300004B0BDE8F081236803905A6903929B6942
:103A4000039332460A99039B2046FFF7A2FF40B139
:103A5000236C042B01BF2268136843F400731360C6
:103A6000E5E7B8F1010F236802D1EDB21D61DFE790
:103A70002A0A1A610A9932462046FFF78AFF00286F
:103A8000E6D12368F1E700BF020001002DE9FF4104
:103A9000164602680B9D9846136843F480631360D2
:103AA0000268136843F4807313600F460A9B009505
:103AB00000224FF001110446FFF73AFF236848B196
:103AC0001B68DB0502D54FF400732364032004B0A8
:103AD000BDE8F081FFB207F0FE021A6129490A9A97
:103AE0002B462046FFF794FE08B10120EFE723683C
:103AF00003905A6903929B6903932A460A99039B90
:103B00002046FFF746FF40B1236C042B01BF22681B
:103B1000136843F400731360E7E7B8F1010F2368FB
:103B200025D1F6B21E612A460A992046FFF731FFD9
:103B300002460028E8D121680B6843F480730B60CB
:103B400020460A9B00954FF00111FFF7F1FE236814
:103B50000028B5D147F001071F610A9A09492B4691
:103B60002046FFF755FE003018BF0120AFE7320AAC
:103B70001A610A992A462046FFF70BFF0028C3D195
:103B80002368CEE70200010070B5044608B90120A1
:103B900070BD90F83D3003F0FF021BB980F83C2067
:103BA000FEF792FF2268242384F83D30136823F047
:103BB000010313602268136843F400431360226812
:103BC000136823F400431360FFF762FC424B626802
:103BD0009A4294BF414B424B98428CBF0023012331
:103BE000002BD4D122683F495368B0FBF1F123F098
:103BF0003F030B4353606668374B25689E4288BF7E
:103C00004FF496732A6A8ABF4B434B1C4FF47A7168
:103C100022F03F0284BFB3FBF1F3013313432B6265
:103C200021686368CA692C4D22F44F42AB4222F0EE
:103C3000FF0200F1FF3035D85B00B0FBF3F0431C0E
:103C4000C3F30B03042B38BF04231343CB61216858
:103C5000D4E907300A68034322F0C00213430B6023
:103C60002168D4E903038A6822F40342034322F063
:103C7000FF0213438B602168D4E90530CA6803430F
:103C800022F0FF021343CB602268136843F0010364
:103C9000136000202023206484F83D30206384F8E2
:103CA0003E0075E7A56855B903EB4303B0FBF3F09D
:103CB000431CC3F30B036BB143F40043C5E7192561
:103CC0006B43B0FBF3F0431CC3F30B0313B143F49A
:103CD0004043BAE70123B8E7A08601007F841E00B5
:103CE000FF083D0040420F002DE9F7430446994686
:103CF0000F4690460C9E01F017FA94F83D30202BA9
:103D0000054603D0022003B0BDE8F08300901923DC
:103D100001223D492046FFF70BFE0028F2D194F81E
:103D20003C30012BEED0012384F83C3023681A6824
:103D3000D2075EBF1A6842F001021A602268136857
:103D400023F400631360212384F83D30402384F87A
:103D50003E30002323640A9B6362BDF82C306385E8
:103D6000638D2385294BE362CDE900654B464246CE
:103D700039462046FFF734FE00282DD00120C2E747
:103D8000FFF707FE40B1236C042B01BF22681368C4
:103D900043F400731360F1E7626A236812781A61D2
:103DA000616A628D4B1C6362238D013A92B2013BC2
:103DB00062859BB222682385506940070CD55BB1B0
:103DC0004B781361636A01336362238D013B238562
:103DD000638D013B9BB26385238D2A463146204685
:103DE000002BCDD1FFF74FFD0028CCD122681368FE
:103DF00043F400731360202384F83D3084F83C00C2
:103E000084F83E007FE700BF020010000000FFFFC3
:103E10002DE9F043044687B099460D469046109F21
:103E200001F082F994F83D30202B064604D002259B
:103E3000284607B0BDE8F083009019230122784995
:103E40002046FFF775FD0028F1D194F83C30012B96
:103E5000EDD0012384F83C3023681A68D0075EBF98
:103E60001A6842F001021A602268136823F40063A2
:103E70001360222384F83D30402384F83E30002331
:103E800023640E9B6362BDF83C306385638D23859C
:103E9000644BE3622946CDE900764B464246204614
:103EA000FFF7F4FD054608B10125C1E7228D23681F
:103EB000B2B902905A6902929A690292029A1A68F9
:103EC00042F400721A60DFF86081238D002B2FD13D
:103ED000202284F83D2084F83C3084F83E30A7E767
:103EE000012A0BD11A6822F480621A6023680390B9
:103EF0005A6903929A690392039AE0E7022A10D161
:103F00001A6822F480621A602268136843F400631E
:103F10001360236804905A6904929B690493049B7C
:103F2000D1E705905A6905929B690593059BCAE7FD
:103F3000032B58D8012B15D1324639462046FFF7BE
:103F4000C8FC0028B0D123681A69636A1A70636AD2
:103F500001336362238D013B2385638D013B9BB25B
:103F60006385B2E7022B00963B464FF000024146C4
:103F700020461AD1FFF7DCFC002895D1226813688F
:103F800043F40073136023681A69636A1A70626AE3
:103F9000531C6362238D013B2385638D013B9BB2E0
:103FA000638523681B695370D1E7FFF7C1FC0246A4
:103FB00000287FF479AF21680B6823F480630B60DD
:103FC00023681969636A1970636A00960133636232
:103FD000238D013B2385638D013B9BB26385414665
:103FE0003B462046C6E7324639462046FFF771FC7D
:103FF00000287FF459AF23681A69636A1A70626AED
:10400000531C6362238D013B2385638D013B9BB26F
:1040100063852368596949077FF557AFC2E700BF39
:10402000020010000000FFFF0400010010B590F82E
:104030003D30DBB2202B19D10468242280F83D20CA
:10404000226822F0010222600468626A22F01002F3
:1040500062620468626A1143616201680A6842F040
:1040600001020A6080F83D30002010BD0220FCE70C
:1040700030B590F83D20D2B2202A18D1056824230B
:1040800080F83D302C6824F001042C600468656AD7
:104090004FF6F0732B400B439BB2636201680B68D1
:1040A00043F001030B6080F83D20002030BD02206A
:1040B000FCE7704770470000074AD36823F4E063C9
:1040C0001B041B0C43F0BF63000243F4003300F4F5
:1040D000E0600343D360704700ED00E070B5174B1C
:1040E000DC68C4F30224C4F10705042D04F10403C1
:1040F00028BF04254FF0FF36062B06FA05F38CBFC8
:10410000033C002421EA0303A34006FA04F422EA54
:104110000404002843EA0403A8BF00F160404FEA0A
:104120000313BCBF00F00F00054ADBB2AABF00F5C5
:104130006140135480F8003370BD00BF00ED00E013
:1041400014ED00E0002808DB4209012300F01F0005
:1041500003FA00F0014B43F82200704700E100E051
:1041600030B5D1E907340A684D6A2343154C92B93A
:1041700002682B43224013434A6813438A6813435F
:10418000CA6813430A6913434A6913438A6913438C
:104190000360002030BD02682B4322F4F842134331
:1041A000036043684A68234013438A681343CA681C
:1041B00013430A6913434A6913438A6913434360EB
:1041C000E7E700BF0080FFFF30B5CB684D695C1E9C
:1041D0006B1E1B0543EA0434CAB90B688268013BB5
:1041E00002F07042234313434A68013A43EA021340
:1041F0008A68013A43EA02230A69013A43EA024320
:104200008A69013A43EA02638360002030BD836813
:1042100023F4700323F4704323438360C3684A6824
:1042200003F07043013A43EA02130A68013A134368
:104230008A68013A43EA02230A69013A43EA0243DF
:104240008A69013A43EA0263C360DEE770B5154646
:10425000D1E90032044613430069CA68800D43EA7D
:1042600042238A6880050343013A43EA42132361EB
:1042700000F05AFF0646A06910F0200003D06B1C26
:10428000F9D00DB9032070BD00F04EFF801BA8428D
:10429000F1D9F7E7436923F47F5323F03E0343EA60
:1042A00041014161002070472DE9F74FDFF8C8C197
:1042B0006F4CDFF8C881DFF8C8E1002301250A68E8
:1042C0009D402A40954240F0B9804E6806F00306B2
:1042D0005F000325013EBD40012E6FEA050511D8A0
:1042E000866806EA0509CE68BE4046EA0906866089
:1042F000466826EA02094E68C6F300169E4046EA62
:10430000090646604E6806F00306032E07D0C6680D
:1043100006EA05098E68BE4046EA0906C6604E6890
:1043200006F00306022E16D14FEAD30A00EB8A0AE2
:1043300003F0070BDAF820604FEA8B0B4FF00F0900
:1043400009FA0BF926EA09090E6906FA0BF646EA9C
:104350000906CAF82060066835404E6806F0030674
:10436000BE40354305604D6815F4403F66D04FF0C0
:10437000000BCDF804B0DCF844603E4D46F48046B6
:10438000CCF84460DCF8446006F480460196019E57
:1043900023F0030606F1804606F59C3603F0030978
:1043A000D6F808A04FEA89090F2707FA09F7A842AB
:1043B0002AEA070749D005F58065A84247D005F5E8
:1043C0008065A84245D005F58065A84243D04045A8
:1043D00043D0704543D005F54065A84241D005F56E
:1043E0008065A8423FD005F58065A8423DD005F51F
:1043F0008065A84214BF0A25092505FA09F53D4341
:10440000B5604D68A768D643ED0254BF37401743E7
:10441000A7604D68E768AD0254BF37401743E760B7
:104420004D686768AD0354BF3740174367604D68F8
:104430002768ED0354BF3740174327600133102B23
:104440007FF43CAF03B0BDE8F08F5D46D5E70125B2
:10445000D3E70225D1E70325CFE70425CDE70525DE
:10446000CBE70625C9E70725C7E70825C5E700BF4D
:10447000003C0140000002400038024000100240B1
:10448000001402400AB1816170470904FBE74369E7
:1044900001EA030221EA030141EA02418161704716
:1044A0002DE9F3411D4616460F46044600F03CFE3A
:1044B00035442D1A00F038FE244B1B68C3F3CB3370
:1044C00080466B4322680193936837EA030301D067
:1044D000002031E0731CF7D000F026FEA0EB0800AE
:1044E000A8422CD32268536823F0E003536063682A
:1044F000B3F5827F0BD1A368B3F5004F02D0B3F5BB
:10450000806F04D12268136823F040031360A36A0C
:10451000B3F5005F09D12268136823F400531360D8
:104520002268136843F400531360012384F8513068
:10453000002384F85030032002B0BDE8F081019BD5
:10454000002B019B08BF0025013BBBE70C000020AE
:1045500010B513464268B2F5827F04460BD18268DB
:10456000B2F5004F02D0B2F5806F04D12068026826
:1045700022F0400202606268B2F5827F0BD1A2682D
:10458000B2F5806F0A4607D080212046FFF788FFEA
:1045900020B9002010BD0A460121F6E7636D43F003
:1045A000200363650320F5E773B51346124A134EE3
:1045B00015684268B5FBF6F64FF47A757543B2F5A7
:1045C000827F044601950BD10A468021FFF768FFE0
:1045D00078B1636D43F020036365032002B070BDC2
:1045E000019B33B1019B013B019323689B681B0630
:1045F000F6D40020F2E700BF0C00002000366E0168
:1046000010B50446002858D0436A002B51D14268A7
:10461000B2F5827F00D0C3610023A36294F85130C9
:1046200003F0FF0223B984F850202046FEF784FBF4
:104630002268022384F85130136823F0400313608A
:10464000D4E90023A16803F4827301F404410B430D
:10465000E16801F400610B43216901F002010B43A1
:10466000616901F001010B43A16901F400710B4381
:10467000E16901F038010B43216A01F080010B432D
:10468000A16A01F400510B431360638B626A2168D5
:1046900002F0100203F0040313434B602268D36955
:1046A00023F40063D36100200123606584F8513056
:1046B00010BD0023C0E90433AEE70120F8E72DE97F
:1046C000F3411D4690F85030012B044688461746AA
:1046D00000F09880012380F8503000F025FD064658
:1046E00094F85100C0B2012840F08A80B8F1000F60
:1046F0005CD0002F5AD0032384F85130A368C4F84B
:1047000030800020B3F5004F6065A786E786A06380
:10471000A087E087C4E9100009D12268136823F05C
:10472000400313602268136843F4804313602368D6
:104730001A6852065EBF1A6842F040021A60E268C8
:104740006368B2F5006F3AD10BB1012F0AD123682B
:10475000226B1288DA60236B02332363E38E013B02
:104760009BB2E386E38E9BB2A3B93246294620462C
:10477000FFF71AFF002840D1A36833B901932368DB
:10478000DA6801929B680193019B606D003018BF4D
:1047900001200BE023689A689007D9D400F0C4FC8C
:1047A000801BA842DED3691CDCD00320012384F8DF
:1047B0005130002384F8503002B0BDE8F0810BB1D5
:1047C000012F0AD12368226B12781A73236B0133ED
:1047D0002363E38E013B9BB2E386E38E9BB2002B07
:1047E000C3D023689A689207EDD400F09DFC801B2B
:1047F000A842F2D36B1CF0D0D7E720236365BBE758
:104800000220D3E70220D7E72DE9F7431D4690F8B1
:1048100050300A9E012B04468846914600F0E980FC
:10482000012380F8503000F07FFC94F85130DBB267
:10483000012B07460BD06268B2F5827F40F0D7802B
:10484000A268002A40F0D380042B40F0D080B8F159
:10485000000F00F0CA80B9F1000F00F0C680002DF3
:1048600000F0C38094F85130C4F83890042B1CBF7A
:10487000052384F851300023C4E9103363652368AD
:10488000E587A587C4F83080E586A5861A685206B4
:104890005EBF1A6842F040021A60E2686368B2F5CF
:1048A000006F5DD10BB1012D0AD1226B23681288F4
:1048B000DA60236B02332363E38E013B9BB2E38612
:1048C0000125E38E9BB2ABB9E38F9BB293B93A4615
:1048D00031462046FFF768FE002840F08480A36838
:1048E000002B34D123680190DA6801929B68019310
:1048F000019B2CE02268936898070ED5E38E9BB24B
:104900005BB155B1236B1B88D360236B02332363E8
:10491000E38E013B9BB2E386002522689368D907AA
:104920000DD5E38F9BB253B1A36BD2681A80A36BF2
:104930000233A363E38F013B9BB2E387012500F0C1
:10494000F3FBC01B8642BCD8731CBAD003200123E2
:1049500084F85130002384F8503003B0BDE8F08370
:104960000BB1012D0AD1226B236812781A73236BC5
:1049700001332363E38E013B9BB2E3860125E38E83
:104980009BB21BB9E38F9BB2002BA0D02268936827
:1049900098070ED5E38E9BB25BB155B1236B1B78A4
:1049A0001373236B01332363E38E013B9BB2E386D6
:1049B000002522689368D9070DD5E38F9BB253B1C8
:1049C000A36BD2681A70A36B0133A363E38F013B1F
:1049D0009BB2E387012500F0A7FBC01B8642CED81F
:1049E000731CCCD0B2E7202363650120AFE702201F
:1049F000ADE70220B1E72DE9F3411D464368B3F569
:104A0000827F0446884617460CD1836853B9042335
:104A100080F85130134600950A46FFF7F5FE02B0C4
:104A2000BDE8F08194F85030012B00F08180012323
:104A300084F8503000F078FB064694F85100C0B27C
:104A4000012873D1B8F1000F5ED0002F5CD0042391
:104A500084F85130002363652363E787A386E386E8
:104A6000C4E91033A368C4F83880B3F5004FA787B2
:104A700009D12268136823F0400313602268136889
:104A800023F48043136023681A6857065EBF1A68D0
:104A900042F040021A60E368FBB1E38F9BB203B3BC
:104AA00023689A68D20736D5DA68A36B1A80A36B9D
:104AB0000233A363E38F013B9BB2E387EDE72368F7
:104AC0009A68D00718D5A26B1B7B1370A36B0133B8
:104AD000A363E38F013B9BB2E387E38F9BB2002B81
:104AE000EDD1324629462046FFF732FDD8B9606D38
:104AF000003018BF012007E000F016FB801BA84221
:104B0000EBD3691CE9D00320012384F85130002342
:104B100084F8503083E700F007FB801BA842BCD329
:104B20006B1CBAD0EFE720236365E0E70220EBE7D8
:104B3000022074E710B5044640B390F8393003F012
:104B4000FF021BB980F83820FDF79CFF22686168DE
:104B5000022384F83930136823F440330B43136085
:104B60002268A168536B23F007030B435363226849
:104B7000E168136C23F47F5323F03F030B4313646A
:104B800000200123E06384F8393010BD0120FCE7E8
:104B90007047704770B503685E681D68F207044689
:104BA00015D5E90513D51A6822F480721A60C36B13
:104BB00043F00103C363036801229A60042380F871
:104BC0003930002380F83830436903B19847B20682
:104BD00017D5AB0415D52268136823F4005313606E
:104BE000236820229A60E36B43F00203E36304230B
:104BF00084F83930002384F8383063690BB12046DB
:104C00009847300717D5290515D52268136823F46E
:104C100000631360236808229A60E36B43F0040387
:104C2000E363042384F83930002384F8383063695F
:104C30000BB12046984772070CD56B050AD5226840
:104C4000136823F480631360236804229A6020466B
:104C5000FFF79EFFB00715D5A90513D52268136885
:104C600023F400731360236802229A60E36BE3630A
:104C7000012384F83930002384F8383023690BB1DC
:104C800020469847F20614D5EB0412D52268136823
:104C900023F480531360236810229A60E36BE3636C
:104CA000012384F83930002384F838302046FFF798
:104CB00070FF70BD70B590F83830012B4FF00203D3
:104CC0002CD0012280F838200A0180F8393084186D
:104CD000D4E9075345EA0343093D012D656A194E9E
:104CE0009ABF05F07F452B4343EA05630568B9B9D0
:104CF000696A31400B436B62036882699A61C369D8
:104D0000093B012B04D8436A026823F07F43936276
:104D1000012380F83930002380F83830184670BD00
:104D2000E96931400B43EB61831801689A690A61B4
:104D3000DB69093B012B9FBF636A026823F07F4355
:104D40001362E5E7F0FFFC00F0B505684C68EB681E
:104D5000D20184321544C3F30B431C446B6803F443
:104D600070436B6005680E68EB680136C3F30B4354
:104D70001544334443EA04436B600568CC68EB6830
:104D8000C3F30A031C44AB189D6805F470459D608D
:104D900005688B68EE680133C6F30A061544334490
:104DA00043EA0443AB600368134400251C6924F004
:104DB00007041C6103680C6913441C61046891F8C2
:104DC000326091F83170D1F818C01444A369A5611C
:104DD000046891F8303043EA0C63144443EA072333
:104DE00043EA0643A361036813445C6924F0FF04AB
:104DF0005C6103684C6913445C6104681444E369B2
:104E000023F4E06323F00703E3610368D1E9074675
:104E100013443443DC61036813449C6A9D62036855
:104E20004C6A13449C620B6963B3012B2CD09C1E0B
:104E3000022C2BD9072B14BF01240224036813442E
:104E4000DD6A05F0E025DD6203689D18D1E90063A5
:104E50009B1B8E6A63430333744343EA0443EB6250
:104E600004681444236B23F4FF6323F007032363D4
:104E70000368C96A1344196301688B5843F001033E
:104E80008B50F0BD0424D9E70324D7E70224D5E7EB
:104E900038B50446002870D090F8A13003F0FF0226
:104EA0001BB980F8A020FDF76BFE2268022384F86E
:104EB000A130936923F070439361D4E90130034337
:104EC000E068226803432069916903430B439361BF
:104ED00021682B4A8B6813408B60216860698B685E
:104EE00043EA0043A06903438B602168CB68134009
:104EF000CB602168E069CB6843EA0043206A034342
:104F0000CB6021680B6913400B6121680B69606AF3
:104F100043EA0043A06A03430B6121684B691A40CE
:104F20004A612268E16A536943EA0143216B0B43FA
:104F30005361216894F83600CA6A94F8355002F03B
:104F40007F42CA62226894F83430D16A0B4343EA44
:104F5000052343EA0043D3622268536B43F0060300
:104F600053632268936943F0010393610020012396
:104F7000C4F8A40084F8A13038BD0120FCE700BFCC
:104F800000F800F07047704770B503689E6B5D6B6A
:104F90007207044615D5690713D55A6B22F004022F
:104FA0005A6303680422DA63D0F8A43043F00103A3
:104FB000C0F8A430002380F8A12080F8A030FFF7CB
:104FC000E1FFB20717D5AB0715D52268536B23F065
:104FD0000203536323680222DA63D4F8A430134334
:104FE000C4F8A430042384F8A130002384F8A0304E
:104FF0002046FFF7C7FFF00711D5E9070FD5226854
:10500000536B23F00103536322680123D36384F8B5
:10501000A130002384F8A0302046FCF743FC32077F
:1050200012D52B0710D52268536B23F00803536366
:1050300023680822DA63012384F8A130002384F86E
:10504000A0302046FFF79FFF70BDF8B590F8A03064
:10505000012B06468C4696464FF002001DD00127D4
:1050600086F8A07086F8A10034240D4604FB026483
:105070000FCD38340FC40FCD0FC40FCD0FC42B6824
:105080002360304672466146FFF75EFE33680020BB
:105090005F6286F8A17086F8A000F8BD10B590F8A0
:1050A000A030012B4FF0020314D0046880F8A13027
:1050B000012280F8A020636B23F001036363064B99
:1050C000196401684B6B13434B63002380F8A120E4
:1050D00080F8A030184610BD0068014008B50B4BA1
:1050E0001A6842F400721A601A6842F480621A6008
:1050F0001A6842F480721A600320FEF7DDFF002078
:10510000FDF724F9FDF786FC002008BD003C0240B5
:10511000034A044B11681B780B441360704700BFAF
:10512000F029012018000020014B1868704700BFCB
:10513000F029012038B50446FFF7F6FF631C1CBFB9
:10514000054B1B78054618BFE418FFF7EDFF401B21
:10515000A042FAD338BD00BF18000020F7B503689D
:1051600013F0430F044640F08C80236813F00C0FBB
:1051700045D08B4D8B4E00232B60FFF7D5FF0746A4
:1051800033689B0000F1D08023685F0715D5D4E910
:105190000413D6F888201B0602F0E04243EA81138C
:1051A0001343C6F88830D6F88C30226A23F4F853BB
:1051B000013A43EA0223C6F88C3023681E0714D54F
:1051C000784AA369D2F8881020691B0701F0706142
:1051D00043EA80130B43C2F88830D2F88C30616AFE
:1051E00023F440330B43C2F88C3001232B60FFF7CC
:1051F0009BFF6C4D06462B68980040F19C8023680D
:105200009A0634D500230193664B674D1A6C42F021
:1052100080521A641B6C03F080530193019B2B682E
:1052200043F480732B60FFF77FFF06462B68D90598
:1052300040F188805B4D2B6F13F4407340F0898000
:10524000A26A02F44073B3F5407F564B40F0A3804E
:10525000996822F0704221F4F81122F440720A4356
:105260009A60A26A196FC2F30B020A431A67206898
:1052700010F010001FBF4D4B94F82C201A60002036
:1052800050E04B4D474E00232B60FFF74DFF074684
:1052900033681B0140D42368DF0741BFD4E90123F1
:1052A0001B0743EA8213C6F8843023689E0715D58E
:1052B0003C4AE368D2F8841060681B0601F0E041C4
:1052C00043EA80130B43C2F88430D2F88C10E369B0
:1052D00021F01F01013B0B43C2F88C3023685806B4
:1052E0000AD5E36862681B0643EA8213A26843EAB0
:1052F00002732C4AC2F8843001232B60FFF714FF9D
:10530000284D06462B6819013FF52FAFFFF70CFF1C
:10531000801B0228F6D904E0FFF706FFC01B022815
:10532000B6D9032003B0F0BDFFF7FEFEC01B022874
:105330007FF626AFF5E7FFF7F7FE801B02287FF622
:105340005AAFEEE7FFF7F0FE801B02287FF66EAF44
:10535000E7E7A26A02F4407293423FF471AF2B6F09
:10536000144A0121116023F44073002111602B675E
:105370002B6FDA077FF564AFFFF7D6FE41F288376F
:1053800006462B6F9B073FF55BAFFFF7CDFE801BFB
:10539000B842F6D9C5E79A6822F4F81260E700BF70
:1053A000700047420038024000700040E011474260
:1053B00068004742400E474210B5044650B1437959
:1053C00003F0FF0213B90271FDF744FB012363717F
:1053D000002010BD0120FCE7FCF72EBDFCF7A2BDAC
:1053E00000F108034FF0FF324360C0E9022303617C
:1053F00000230360704700230361704743684B60DC
:105400009A688A609A6851609960086103680133FC
:10541000036070470A68531C30B50AD103695A68A3
:105420004A6091608B6059600861036801330360D2
:1054300030BD00F108035C6825689542EFD823462B
:10544000F9E7D0E9012103699160D0E901125160C7
:105450005A68824204BF82685A60002202611A6858
:10546000013A1A601868704710B5044601F06AFFE7
:10547000A46B01F089FFB4FA84F0400910BD70B547
:105480001546026C866B044642B905689DB9806872
:1054900001F080F9A5600136A66370BD6DB9406862
:1054A00014F030FD6368226C1344A2686360934279
:1054B00001D3236863600020EDE7C06814F022FD8B
:1054C000236CE26821685B421A448A42E2603EBF74
:1054D000A2689B18E360022DEDD10EB1013EEAE710
:1054E0003046D8E7034610B41A6C084662B1D96852
:1054F0009C681144A142D96024BF1968D960D96859
:105500005DF8044B14F0FEBC5DF8044B704770B5B9
:10551000044601F017FF94F8455004F124066DB2DB
:10552000002D14DCFF2384F8453001F02DFF01F03D
:1055300009FF94F8445004F110066DB2002D12DCFE
:10554000FF2384F84430BDE8704001F01DBF636A5A
:10555000002BE7D0304601F03FF808B101F0C4F865
:10556000013D6DB2DCE72369002BE9D0304601F044
:1055700033F808B101F0B8F8013D6DB2DEE7000084
:1055800038B50D46044640B94FF0500383F31188F7
:10559000BFF36F8FBFF34F8FFEE701F0D3FED4E967
:1055A0000F30226862604343D1181B1A1344A16074
:1055B000E3600021FF23A16384F8443084F8453080
:1055C00095B9236963B104F1100001F005F838B111
:1055D0000A4B4FF080521A60BFF34F8FBFF36F8FAB
:1055E00001F0D2FE012038BD04F11000FFF7F8FEF3
:1055F00004F12400FFF7F4FEF2E700BF04ED00E041
:1056000013B51C4640B94FF0500383F31188BFF324
:105610006F8FBFF34F8FFEE743B94FF0500383F313
:105620001188BFF36F8FBFF34F8FFEE74AB191B977
:105630004FF0500383F31188BFF36F8FBFF34F8F89
:10564000FEE741B14FF0500383F31188BFF36F8F32
:10565000BFF34F8FFEE750230193019B502B08D0DF
:105660004FF0500383F31188BFF36F8FBFF34F8F59
:10567000FEE7002908BF2246019B22600123C4E9FE
:105680000F0184F8463019462046FFF779FF9DF850
:10569000103084F84C30204602B010BDF8B50D46ED
:1056A0001746064640B94FF0500383F31188BFF305
:1056B0006F8FBFF34F8FFEE74843503001F012FD6C
:1056C000044678B1002200F15003954208BF03461A
:1056D00080F846200360C0E90F650121FFF750FF05
:1056E00084F84C702046F8BD13B513460C4640B9FB
:1056F0004FF0500383F31188BFF36F8FBFF34F8FC9
:10570000FEE7884208D24FF0500383F31188BFF3BD
:105710006F8FBFF34F8FFEE70222009200221146E7
:10572000FFF76EFF00B1846302B010BD10B50C46E8
:1057300040B94FF0500383F31188BFF36F8FBFF36D
:105740004F8FFEE7884208D24FF0500383F3118851
:10575000BFF36F8FBFF34F8FFEE702220021FFF7E9
:105760009DFF00B1846310BD2DE9FF47884601927B
:105770001F46044640B94FF0500383F31188BFF32E
:105780006F8FBFF34F8FFEE751B9036C43B14FF0FA
:10579000500383F31188BFF36F8FBFF34F8FFEE782
:1057A000022F0BD1E36B012B08D04FF0500383F392
:1057B0001188BFF36F8FBFF34F8FFEE700F09AFFA2
:1057C00050B9019E4EB14FF0500383F31188BFF3DF
:1057D0006F8FBFF34F8FFEE700264FF00009DFF811
:1057E000E8A037E0019D1DB901F0CEFD002050E09A
:1057F00016B902A800F030FF01F0C6FD00F040FD30
:1058000001F0A0FD94F84430FF2B08BF84F84490C9
:1058100094F84530FF2B08BF84F8459001F0B4FDA3
:1058200001A902A800F024FF002846D101F08AFD5A
:10583000A26BE36B9A422FD101F0A6FD019904F10E
:10584000100000F091FE2046FFF761FE00F0B8FD69
:1058500050B3012601F076FDA26BE36B9A4201D3AF
:10586000022FBFD13A4641462046FFF708FE636A41
:105870001BB104F1240000F0AFFE38B1124B4FF021
:1058800080521A60BFF34F8FBFF36F8F01F07CFD22
:10589000012004B0BDE8F08701F076FD2046FFF757
:1058A00036FE00F08DFDD4E74FF08053CAF800308B
:1058B000BFF34F8FBFF36F8FCBE72046FFF727FE75
:1058C00000F07EFD92E700BF04ED00E02DE9F84313
:1058D000894690461F46044640B94FF0500383F373
:1058E0001188BFF36F8FBFF34F8FFEE751B9036C81
:1058F00043B14FF0500383F31188BFF36F8FBFF3B1
:105900004F8FFEE7022F0BD1E36B012B08D04FF036
:10591000500383F31188BFF36F8FBFF34F8FFEE700
:1059200001F02EFEEFF311864FF0500383F3118840
:10593000BFF36F8FBFF34F8FA26BE36B9A4201D31C
:10594000022F23D194F84550A36B6DB23A464946D5
:105950002046FFF794FD6B1C13D1636A0BB901203D
:105960000BE004F1240000F037FE0028F7D0B8F176
:10597000000FF4D00120C8F8000086F31188BDE8BC
:10598000F88301356DB284F84550E8E70020F4E76C
:1059900070B50D46044640B94FF0500383F31188AB
:1059A000BFF36F8FBFF34F8FFEE7036C43B14FF030
:1059B000500383F31188BFF36F8FBFF34F8FFEE760
:1059C000036853B9836843B14FF0500383F31188E0
:1059D000BFF36F8FBFF34F8FFEE701F0D1FDEFF301
:1059E00011864FF0500383F31188BFF36F8FBFF31D
:1059F0004F8FA26BE36B93421CD994F84530013270
:105A00005BB2A2635A1C10D1636A0BB9012009E092
:105A100004F1240000F0E0FD0028F7D0002DF5D0BF
:105A20000120286086F3118870BD01335BB284F8D1
:105A30004530EBE70020F5E72DE9F04385B00F4650
:105A40000192044640B94FF0500383F31188BFF32D
:105A50006F8FBFF34F8FFEE751B9036C43B14FF027
:105A6000500383F31188BFF36F8FBFF34F8FFEE7AF
:105A700000F040FE50B9019E4EB14FF0500383F349
:105A80001188BFF36F8FBFF34F8FFEE700264FF0F3
:105A90000008DFF8E0903BE0019D1DB901F074FCC7
:105AA000002052E016B902A800F0D6FD01F06CFC0F
:105AB00000F0E6FB01F046FC94F84430FF2B08BFF1
:105AC00084F8448094F84530FF2B08BF84F8458063
:105AD00001F05AFC01A902A800F0CAFD00283DD13E
